:1000000012C02CC02BC02AC029C028C027C026C0BF
:1000100025C024C023C022C021C020C01FC01EC0D4
:100020001DC01CC01BC011241FBECFE5D4E0DEBF25
:10003000CDBF10E0A0E6B0E0E0E7F9E002C0059037
:100040000D92A639B107D9F710E0A6E9B0E001C0DA
:100050001D92AC3DB107E1F725D288C4D1CF809184
:10006000D600882309F449C08091D8009091D90026
:1000700001969093D9008093D80080918F008823B7
:1000800011F0AD9801C0AD9A2091D8003091D900FF
:1000900080919100909192002817390751F4809136
:1000A0008F00813031F410928F001092D90010929D
:1000B000D8002091D8003091D90080919100909182
:1000C000920028173907D1F480918F008823B1F46A
:1000D00081E080938F001092D9001092D800809117
:1000E000D60081508093D60080919100909192002B
:1000F0009093DB008093DA000895AD9A089590BD47
:1001000089B988E18AB986EA80BD08955D9BFECFF2
:100110008CB908958BB1807808955F9BFECF8CB128
:1001200008959298EEECF0E03197F1F720E030E09E
:1001300040E050E0682F70E0EEECF0E0CB01022EE2
:1001400002C0959587950A94E2F780FF07C0929ABE
:10015000CF010197F1F74F5F5F4F04C09298CF0135
:100160000197F1F72F5F3F4F2830310539F740FDF8
:1001700002C0929801C0929A8EEC90E00197F1F73C
:10018000929A8EEC90E00197F1F7089580E090E06C
:1001900008C0019627E28031920719F420E030E090
:1001A000A9C08399F6CF24EF3FEF45E00AC02A307B
:1001B000310538F4839B05C08091CD008F5F80931B
:1001C000CD00C9010A970A9738F4839B05C0809136
:1001D000CE008F5F8093CE00C90144970A9738F410
:1001E000839B05C08091CF008F5F8093CF00C901B2
:1001F0004E970A9738F4839B05C08091D0008F5F9B
:100200008093D000C90188970A9738F4839B05C072
:100210008091D1008F5F8093D100C901C2970A9766
:1002200038F4839B05C08091D2008F5F8093D20009
:10023000C901CC970A9738F4839B05C08091D300FD
:100240008F5F8093D300C901865490400A9738F499
:10025000839B05C08091D4008F5F8093D400842F4E
:100260008A95F1F72F5F3F4F2936310509F09FCF6F
:100270008091CD0020E030E0853010F021E030E0CA
:100280008091CE00853010F02E5F3F4F8091CF00DF
:10029000853010F02C5F3F4F8091D000853010F0FA
:1002A000285F3F4F8091D100853010F0205F3F4F95
:1002B0008091D200853010F0205E3F4F8091D300B6
:1002C000853010F0205C3F4F8091D400853010F0D5
:1002D00020583F4F1092CD001092CE001092CF00C8
:1002E0001092D0001092D1001092D2001092D30040
:1002F0001092D400C90108950F931F935D9BFECF08
:100300008CB95D9BFECF6CB95D9BFECF4CB95D9BFC
:10031000FECF2CB9860F840F820F20E030E070E012
:100320000AC0F801E20FF31FE0815D9BFECFECB93C
:100330008E0F2F5F3F4F261737079CF35D9BFECF35
:1003400081958CB91F910F9108958CEFEADE85E0BD
:10035000E8DE81E1E6DE87E2E4DE86E5E2DE0895BE
:1003600088EE93E028EC30E0F9013197F1F701973E
:10037000D9F7EBDF88EE93E028EC30E0F901319714
:10038000F1F70197D9F7E1DF88EE93E028EC30E050
:10039000F9013197F1F70197D9F7D7DF88EE93E0AC
:1003A00028EC30E0F9013197F1F70197D9F78CEF9C
:1003B000B8DE85E0B6DE80E4B4DE8BE2B2DE85E155
:1003C000B0DE88EE93E028EC30E0F9013197F1F7E8
:1003D0000197D9F78CEFA5DE86E0A3DE83ECA1DEE2
:1003E00080E09FDE84E09DDE86ED9BDE88EE93E07C
:1003F00028EC30E0F9013197F1F70197D9F78CEF4C
:1004000090DE86E08EDE87EC8CDE8CEF8ADE87E87D
:1004100088DE8CE886DE88EE93E028EC30E0F90197
:100420003197F1F70197D9F78CEF7BDE85E079DE24
:1004300081E177DE87E275DE86E573DE88EE93E0A4
:1004400028EC30E0F9013197F1F70197D9F78CEFFB
:1004500068DE86E066DE83EC64DE80E062DE84E0F7
:1004600060DE86ED5EDE88EE93E028EC30E0F90198
:100470003197F1F70197D9F78CEF53DE86E051DE23
:1004800087EC4FDE8CEF4DDE87E84BDE8CE849DEF3
:1004900088EE93E028EC30E0F9013197F1F701970D
:1004A000D9F70895AF92BF92CF92DF92EF92FF9269
:1004B0000F931F93CF93DF938B98939ABA98C29A16
:1004C0008A9A929AA59AAD9A1092DB001092DA005D
:1004D00010BC83E389B988E18AB986EA80BD80E4EB
:1004E0009CE928EC30E0F9013197F1F70197D9F751
:1004F00037DF20E4A22E2CE9B22E98ECC92ED12CA5
:1005000001E080E4E82E8CE9F82E1CC21EDF3EDEFE
:100510008093B4003BDE8093B500C2E0D0E022C0FF
:1005200035DEFE01EC54FF4F808380818B3191F0EA
:1005300080818B3F79F08081843461F080818031CB
:1005400049F080818C3A31F08081893C19F08081BA
:10055000883D39F4CC54DF4F88818093D700CFE0B9
:10056000D0E021968091B50090E0C817D907C0F27D
:10057000C5010197F1F78091D7008434A9F488EE82
:1005800093E0F6013197F1F70197D9F788EE93E000
:10059000F6013197F1F70197D9F788EE93E0F6016C
:1005A0003197F1F70197D9F78091D7008B3109F096
:1005B00094C00093D7008CEFB4DD85E0B2DD81E11B
:1005C000B0DD87E2AEDD86E5ACDD88EE93E0F601D6
:1005D0003197F1F70197D9F78CEFA3DD85E0A1DD25
:1005E00088E89FDD8FE69DDD8FE59BDD88EE93E05B
:1005F000F6013197F1F70197D9F78CEF92DD85E09D
:1006000090DD80E48EDD8BE28CDD85E18ADD88EE95
:1006100093E0F6013197F1F70197D9F75D9BFECF93
:100620008CEF8CB986E07DDD83EC7BDD80E079DDCD
:1006300084E077DD86ED75DD88EE93E0F601319795
:10064000F1F70197D9F78CEF6CDD86E06ADD87EC76
:1006500068DD8CEF66DD87E864DD8CE862DD88EEBE
:1006600093E0F6013197F1F70197D9F78CEF59DD57
:1006700085E057DD81E155DD87E253DD86E551DD1B
:1006800088EE93E0F6013197F1F70197D9F78CEFF7
:1006900048DD86E046DD83EC44DD80E042DD84E039
:1006A00040DD86ED3EDD88EE93E0F6013197F1F70F
:1006B0000197D9F78CEF35DD86E033DD87EC31DD4E
:1006C0008CEF2FDD87E82DDD8CE82BDD88EE93E0C5
:1006D000F6013197F1F70197D9F78091D7008B3F59
:1006E00009F040C01092D7008CEF1BDD85E019DDCA
:1006F00081E417DD82EA15DD84E013DDC501019791
:10070000F1F710E022DEC5010197F1F71F5F1A3003
:10071000C9F78CEF06DD85E004DD80E502DD8AEABD
:1007200000DD85E0FEDCC7010197F1F70EDEC701B1
:100730000197F1F78091D6008F5F8093D6000093E8
:10074000D7008CEFEEDC85E0ECDC80E5EADC8AEAC1
:10075000E8DC85E0E6DCC7010197F1F7F6DDC701CB
:100760000197F1F78091D700893C09F040C01092C1
:10077000D7008CEFD6DC85E0D4DC81E4D2DC82EAE1
:10078000D0DC84E0CEDCC5010197F1F710E0DDDDBF
:10079000C5010197F1F71F5F1A30C9F78CEFC1DC73
:1007A00085E0BFDC80E5BDDC8AEABBDC85E0B9DC46
:1007B000C7010197F1F7C9DDC7010197F1F78091F2
:1007C000D6008E5F8093D6000093D7008CEFA9DC13
:1007D00085E0A7DC80E5A5DC8AEAA3DC85E0A1DC76
:1007E000C7010197F1F7B1DDC7010197F1F78091DA
:1007F000D700883D09F040C01092D7008CEF91DC03
:1008000085E08FDC81E48DDC82EA8BDC84E089DCAE
:10081000C5010197F1F710E098DDC5010197F1F7E7
:100820001F5F1A30C9F78CEF7CDC85E07ADC80E54D
:1008300078DC8AEA76DC85E074DCC7010197F1F7A1
:1008400084DDC7010197F1F78091D6008B5F80931B
:10085000D6000093D7008CEF64DC85E062DC80E595
:1008600060DC8AEA5EDC85E05CDCC7010197F1F7B9
:100870006CDDC7010197F1F78091D7008C3A09F040
:1008800040C01092D7008CEF4CDC85E04ADC81E45C
:1008900048DC82EA46DC84E044DCC5010197F1F7DC
:1008A00010E053DDC5010197F1F71F5F1A30C9F75A
:1008B0008CEF37DC85E035DC80E533DC8AEA31DC3F
:1008C00085E02FDCC7010197F1F73FDDC7010197F4
:1008D000F1F78091D600865F8093D6000093D70011
:1008E0008CEF1FDC85E01DDC80E51BDC8AEA19DC6F
:1008F00085E017DCC7010197F1F727DDC7010197F4
:10090000F1F78091D7008031E1F40093D7008CEFAC
:1009100008DC85E006DC80E504DC8AEA02DC85E0B0
:1009200000DCC5010197F1F78CEFFBDB85E0F9DB1B
:1009300081E1F7DB87E2F5DB86E5F3DBC5010197B3
:10094000F1F78DDB80918E00882309F0DFCD1092C6
:10095000D60080E090E0DF91CF911F910F91FF9042
:10096000EF90DF90CF90BF90AF900895F894FFCFB5
:10097000FC2E885528504F4C292D31302D535320B3
:1009800049443030332D3033563233302D34332018
:1009900031305345503132203536343826A40101E8
:0609A0000103000100004C
:00000001FF
