:1000000012C02CC02BC02AC029C028C027C026C0BF
:1000100025C024C023C022C021C020C01FC01EC0D4
:100020001DC01CC01BC011241FBECFE5D4E0DEBF25
:10003000CDBF10E0A0E6B0E0E8E5F3E002C0059037
:100040000D92AC36B107D9F711E0ACE6B0E001C0D3
:100050001D92AD31B107E1F7E2D07CC1D1CF81E093
:1000600090E090936800809367008FEF9FEF9093EC
:1000700066008093650048EC50E0CEC05F9BFECFE9
:100080008CB1823009F0C8C05F9BFECF8CB1882351
:1000900009F0C2C05F9BFECF8CB1813009F0BCC0BB
:1000A0005F9BFECF8CB1853E09F0B6C05F9BFECF53
:1000B0008CB1883109F0B0C020E030E05F9BFECF0A
:1000C0008CB190E0F901EE0FFF1FE753FF4F9183D2
:1000D00080832F5F3F4F2031310581F78091D3001E
:1000E0009091D400019709F437C08091D30090918A
:1000F000D400029789F18091D3009091D4000397A6
:1001000059F18091D3009091D400049729F1809106
:10011000D3009091D4000597F9F08091D30090918D
:10012000D4000697C9F08091D3009091D40007972E
:1001300099F08091D3009091D400089769F0809154
:10014000D3009091D400099739F08091D300909119
:10015000D4000A9709F060C02091650030916600D4
:100160008091D1009091D2002817390709F454C02A
:100170008091D1009091D2009093660080936500A9
:100180008091D5009091D600019739F08091D500EB
:100190009091D600039709F03FC08091D3009091D1
:1001A000D400019781F18091D3009091D4000297FF
:1001B00051F18091D3009091D400039721F1809167
:1001C000D3009091D4000497F1F08091D3009091E6
:1001D000D4000597C1F08091D3009091D400069788
:1001E00091F08091D3009091D400079761F08091B5
:1001F000D3009091D400089731F08091D300909172
:10020000D400099749F4AD9A8EEE92E0FA01319745
:10021000F1F70197D9F7AD98859B30CF0895A59A4E
:10022000AD988D98959A10BC83E389B988E18AB915
:1002300086E880BD80E29EE428EC30E0F901319749
:10024000F1F70197D9F70BDFFECF90BD89B988E1AF
:100250008AB986E880BD08955D9BFECF8CB908956C
:100260008BB1807808955F9BFECF8CB108950F937A
:100270001F935D9BFECF8CB95D9BFECF6CB95D9BE0
:10028000FECF4CB95D9BFECF2CB9860F840F820F39
:1002900020E030E070E00AC0F801E20FF31FE081D7
:1002A0005D9BFECFECB98E0F2F5F3F4F26173707B0
:1002B0009CF35D9BFECF81958CB91F910F910895A2
:1002C00080916300909164000197D9F04AE050E07A
:1002D000FA01EE0FFF1FE758FF4F20813181FA012D
:1002E000EE0FFF1FED50FF4F8081918128173907D6
:1002F00019F02FEF3FEF07C04F5F5F4F42315105BD
:1003000039F721E030E0C9010895809167009091AC
:1003100068000197D9F04AE050E0FA01EE0FFF1FA4
:10032000E353FF4F20813181FA01EE0FFF1FE156A9
:10033000FF4F808191812817390719F02FEF3FEF88
:1003400007C04F5F5F4F4231510539F721E030E080
:08035000C9010895F894FFCFE4
:0C03580001FFFF0100FFFF010001000099
:040000050080006017
:00000001FF
