:100000000C9418060C942A060C942A060C942A06C2
:100010000C942A060C942A060C942A060C942A06A0
:100020000C942A060C942A060C942A060C942A0690
:100030000C942A060C942A060C942A060C942A0680
:100040000C942A060C942A060C942A060C942A0670
:100050000C942A060C942A060C942A060C942A0660
:100060000C942A060C942A062042494C4C20414309
:10007000434550544F52204552524F5200203A208F
:1000800000203A2000203A2000203A2000200020C2
:100090002020202020202020202020202020202060
:1000A0002020002042494C4C204143434550544FAE
:1000B00052204641494C002020202042494C4C20EF
:1000C0004143434550544F52202020002042494C88
:1000D0004C204143434550544F52204641494C0027
:1000E000202042494C4C204143434550544F52201C
:1000F0004F4B2020002020202020202020202020C6
:1001000020202020202020202000202020204249C4
:100110004C4C204143434550544F52202020002056
:10012000434F494E204143434550544F522045527E
:10013000524F5200203A2000203A2000203A20005E
:1001400020200020202020202020202020202020CF
:1001500020202020202000434F494E20414343458A
:1001600050544F52204641494C0020202020434FFC
:10017000494E204143434550544F522020200043D4
:100180004F494E204143434550544F522046414928
:100190004C002020434F494E204143434550544F8B
:1001A00052204F4B202000202020202020202020E3
:1001B000202020202020202020202000202020205F
:1001C000434F494E204143434550544F5220202035
:1001D00000202020484F5050455220332045525295
:1001E0004F5220202000203A2000203A2000203AC0
:1001F000200020200020202020202020202020203F
:10020000202020202020202000202020484F505057
:1002100045522033204641494C20202000202020F8
:1002200020202020484F50504552202020202020C0
:100230002000202020484F50504552203320464176
:10024000494C2020200020202020484F505045526B
:100250002033204F4B202020202000202020484FFA
:10026000505045522032204552524F5220202000FB
:10027000203A2000203A2000203A200020200020B0
:10028000202020202020202020202020202020206E
:10029000202000202020484F505045522032204638
:1002A00041494C2020200020202020202020484FA1
:1002B000505045522020202020202000202020487F
:1002C0004F505045522032204641494C20202000BA
:1002D00020202020484F505045522032204F4B20A4
:1002E0002020202000202020484F5050455220310F
:1002F000204552524F5220202000203A2000203A20
:100300002000203A20002020002020202020202033
:1003100020202020202020202020202000202020FD
:10032000484F505045522031204641494C20202012
:100330000020202020202020484F505045522020CF
:10034000202020202000202020484F5050455220BF
:1003500031204641494C2020200020202020484FB9
:10036000505045522031204F4B202020202000208B
:10037000202020202020202020202020202020207D
:100380002020200020202020202020484F505045B1
:1003900052202020202020200020202020494F20F3
:1003A000425554544F4E204F4B20202020002020F7
:1003B00020494F204B45592032204552524F522060
:1003C000202000202020494F204B45592031204536
:1003D00052524F52202020002020494F2042555495
:1003E000544F4E2033204552524F52200020204976
:1003F0004F20425554544F4E2032204552524F52B6
:1004000020002020494F20425554544F4E20312087
:100410004552524F52200020202020202020202012
:1004200020202020202020202020200020202020EC
:1004300020494F20425554544F4E20202020202048
:1004400000202020494F20434F4D424F204552521B
:100450004F5220202000203A2000203A2000203A4D
:1004600020002020002020202020202020202020CC
:10047000202020202020202000202020494F204321
:100480004F4D424F204641494C2020200020202043
:10049000202020494F20434F4D424F202020202034
:1004A0002000202020494F20434F4D424F204641FD
:1004B000494C2020200020202020494F20434F4D30
:1004C000424F204F4B0020202020202020202020A1
:1004D000202020202020202020200020202020203C
:1004E00020494F20434F4D424F2020202020200004
:1004F0002067722020202000207A6C2020200020FD
:100500002020202000202020202020205245535A47
:10051000544120202020202020002067722020200D
:100520002000207A6C202020002020202020002085
:10053000202020202057504C41434F4E4F20202058
:10054000202020002020424C4144204B4F4D554E4E
:10055000494B41434A4920200020202020202020D0
:1005600020202020202020202020202020002020AB
:10057000504F574941444F4D204F42534C554745EA
:10058000202000204155544F4D4154205A41424CA7
:100590004F4B4F57414E59002067722020202000BA
:1005A000207A6C20202000202020202000202020E5
:1005B0002020504F5A4F5354414C4F202020202090
:1005C00020002067722020202000207A6C2020202C
:1005D0000020202020200020202020202057504CC8
:1005E00041434F4E4F20202020202000202020205B
:1005F000204252414B204D4F4E4554202020202078
:10060000002020202020202020202020202020200A
:100610002020202020002020504F574941444F4D9A
:10062000204F42534C554745202000204155544F00
:100630004D4154205A41424C4F4B4F57414E590067
:100640002031202020202020202032202020202087
:10065000205B335D0020202020202020202020202F
:1006600020202020202020202000202020202020AA
:10067000202044525A5749202020202020200020AA
:100680002020202020204F54574152544F2020201A
:10069000202020002031202020202020205B325DDF
:1006A0002020202020203320002020202020202057
:1006B000202020202020202020202020200020205A
:1006C00020202020202044525A574920202020203A
:1006D000202000202020202020204F545741525419
:1006E0004F202020202020005B315D202020202072
:1006F00020203220202020202020332000202020F5
:1007000020202020202020202020202020202020E9
:100710002000202020202020202044525A57492009
:1007200020202020202000202020202020204F5486
:10073000574152544F2020202020200020312020DB
:100740002020202020203220202020202020332084
:1007500000202020202020202020202020202020B9
:100760002020202020002020202020444F204F54F3
:10077000574152434941202020200020202020576B
:1007800059424945525A2044525A57492020200084
:1007900020202020204252414B204D4F4E455420D6
:1007A0002020202000202020202020202020202069
:1007B000202020202020202020002020504F57499A
:1007C00041444F4D204F42534C5547452020002077
:1007D0004155544F4D4154205A41424C4F4B4F5775
:1007E000414E5900202020202020202020202020A1
:1007F00020202020202020200020677220002020A0
:100800002020202020002020202020202020202008
:1008100020202020202020202020002020202020F8
:1008200020202020202020202020202020202000E8
:10083000202020202043454E412055534C55474908
:10084000202020200020677220202020202020202F
:10085000002020202020202020002067722020203F
:100860002000207A6C202020002020202020002042
:100870002020202020204252414B554A4520202054
:10088000202020002067722020202000207A6C2069
:100890002020002020202020002020202020575031
:1008A000524F5741445A4F4E4F20202020002020C5
:1008B0004D4F4E45542035306772203A2046554CF6
:1008C0004C2000202020202020202020202020201C
:1008D000202020202020200020204D4F4E45542055
:1008E000317A6C20203A2046554C4C2000202020A4
:1008F00020202020202020202020202020202020F8
:10090000200020204D4F4E455420357A6C20203A4F
:100910002046554C4C200020202020202020202044
:1009200020202020202020202020200020204D4F8B
:100930004E45542035306772203A20002020202078
:1009400020202020202020202020202020202020A7
:100950000020204D4F4E455420317A6C20203A2003
:1009600000202020202020202020202020202020A7
:1009700020202020200020204D4F4E455420357A45
:100980006C20203A20002020202020202020202021
:100990002020202020202020202000202020202077
:1009A0004B4F535A54202031307A6C2020202000A5
:1009B000202020204B4F535A542020392C35307A98
:1009C0006C202020200020202020204B4F535A5400
:1009D0002020397A6C202020202000202020204B4D
:1009E0004F535A542020382C35307A6C2020202048
:1009F0000020202020204B4F535A542020387A6C5E
:100A0000202020202000202020204B4F535A54200B
:100A100020372C35307A6C20202020002020202008
:100A2000204B4F535A542020377A6C20202020200E
:100A300000202020204B4F535A542020362C353094
:100A40007A6C202020200020202020204B4F535A59
:100A5000542020367A6C20202020200020202020C6
:100A60004B4F535A542020352C35307A6C2020209F
:100A7000200020202020204B4F535A542020357A2C
:100A80006C202020202000202020204B4F535A543F
:100A90002020342C35307A6C20202020002020208B
:100AA00020204B4F535A542020347A6C2020202091
:100AB0002000202020204B4F535A542020332C3527
:100AC000307A6C202020200020202020204B4F5303
:100AD0005A542020337A6C2020202020002020200F
:100AE000204B4F535A542020322C35307A6C202022
:100AF00020200020202020204B4F535A5420203209
:100B00007A6C202020202000202020204B4F535A98
:100B1000542020312C35307A6C20202000202020D9
:100B200020204B4F535A542020317A6C2020202013
:100B30002000202020204B4F535A5420203530676E
:100B40007220202020200020203530677220317A4A
:100B50006C20327A6C20357A6C20200020202031E5
:100B6000307A6C2032307A6C2035307A6C2020203C
:100B700000204155544F4D41542050525A594A4D2E
:100B8000554A45202000204D4F4E455459204C5584
:100B9000422042414E4B4E4F542000202020202026
:100BA000205750524F5741445A20202020202000E7
:100BB0002020204F42534C554749204B4C49454E2D
:100BC00054412020004155544F4D415459435A4EF1
:100BD000592053595354454D200020202020505275
:100BE0004F535A4520435A454B4143202020002073
:100BF00054525741205552554348414D49414E4961
:100C00004520200020202053544143594A4B412085
:100C100041444D494E202020002020205354414380
:100C2000594A4B4120534552574953202020000038
:100C300011241FBECFEFD8E0DEBFCDBF11E0A0E092
:100C4000B1E001C01D92A933B107E1F70E94132062
:100C50000C945A210C940000DF93CF9300D000D065
:100C6000CDB7DEB719828DE260E04EEF9E012F5FB7
:100C70003F4F0E94381984EF91E02CEC31E0F901EC
:100C80003197F1F70197D9F78FEF8B838C838DE242
:100C900062E047EE9E012D5F3F4F0E94381984EFBE
:100CA00091E02CEC31E0F9013197F1F70197D9F798
:100CB00081E08A838DE261E044EE9E012E5F3F4F2A
:100CC0000E94381984EF91E02CEC31E0F901319762
:100CD000F1F70197D9F70F900F900F900F90CF91E8
:100CE000DF9108950F931F93DF93CF93CDB7DEB7B6
:100CF0006B970FB6F894DEBF0FBECDBF8E01085FB5
:100D00001F4F84E1F80111928A95E9F719828DE26B
:100D100060E04FE99E012F5F3F4F0E943819C801E4
:100D20006DE20E94D91A882309F4C2C09C85809183
:100D30001001981709F4BCC0909310018E85813082
:100D400009F58D858130F1F48A838DE261E04AE90D
:100D50009E012E5F3F4F0E94381984EF91E02CECEA
:100D600031E0F9013197F1F70197D9F78091090145
:100D700090910A018C599F4F90930A018093090129
:100D800010921D019E85913009F58D858230F1F418
:100D90009B838DE261E04AE99E012D5F3F4F0E94F7
:100DA000381984EF91E02CEC31E0F9013197F1F73B
:100DB0000197D9F78091090190910A0188539F4FBB
:100DC00090930A018093090110921D019E85913034
:100DD00009F58D858330F1F49C838DE261E04AE969
:100DE0009E012C5F3F4F0E94381984EF91E02CEC5C
:100DF00031E0F9013197F1F70197D9F780910901B5
:100E000090910A018C509E4F90930A0180930901A2
:100E100010921D018E858130B9F48D858430A1F446
:100E20001D828DE261E04AE99E012B5F3F4F0E94E7
:100E3000381984EF91E02CEC31E0F9013197F1F7AA
:100E40000197D9F710921D018E858130B9F48D85F7
:100E50008530A1F41E828DE261E04AE99E012A5F9D
:100E60003F4F0E94381984EF91E02CEC31E0F901FA
:100E70003197F1F70197D9F710921D018E858130D6
:100E8000B9F48D858630A1F41F828DE261E04AE9D4
:100E90009E01295F3F4F0E94381984EF91E02CECAE
:100EA00031E0F9013197F1F70197D9F710921D015F
:100EB0000E9430196B960FB6F894DEBF0FBECDBFFF
:100EC000CF91DF911F910F9108950F931F93DF939F
:100ED000CF93CDB7DEB765970FB6F894DEBF0FBEE0
:100EE000CDBF8E010E5F1F4F84E1F80111928A95EC
:100EF000E9F719828DE260E04FE99E012F5F3F4FD5
:100F00000E943819C8016DE20E94D91A882339F06D
:100F10009E8180911001981711F0909310010E940A
:100F2000301965960FB6F894DEBF0FBECDBFCF91D6
:100F3000DF911F910F9108950F931F93DF93CF932C
:100F4000CDB7DEB765970FB6F894DEBF0FBECDBF45
:100F5000FE01329684E1DF011D928A95E9F78AE06D
:100F600091E063E00E941C1585EF90E064E00E9430
:100F70001C1580E197E22CEC31E0F9013197F1F793
:100F80000197D9F719828DE260E042EF9E012F5F51
:100F90003F4F0E943819CE0102966DE20E94D91A85
:100FA000882309F465C08E818823C1F48F8182343F
:100FB000A9F488858B3091F489858A3A79F480EE9A
:100FC00090E064E00E941C1580E197E22CEC31E097
:100FD000F9013197F1F70197D9F750C08CEC90E007
:100FE00064E00E941C150CEC11E087EB90E063E0DC
:100FF0000E941C1583EA90E064E00E941C1588E9B9
:101000009AE3F8013197F1F70197D9F78FE890E06B
:1010100063E00E941C158DE890E063E00E941C15BF
:101020008E8190E00E94ED1489E890E00E94FF0C10
:101030008F8190E00E94ED1485E890E00E94FF0C03
:10104000888590E00E94ED1481E890E00E94FF0CFA
:10105000898590E00E94ED148DE790E00E94FF0CDE
:1010600088E99AE3F8013197F1F70197D9F7BDCFF5
:1010700088E690E064E00E941C15FFCF65960FB6ED
:10108000F894DEBF0FBECDBFCF91DF911F910F91BE
:101090000895DF93CF93CDB7DEB76E970FB6F89470
:1010A000DEBF0FBECDBF198282E060E04EEF9E0131
:1010B0002F5F3F4F0E9438198EEE92E02CEC31E00A
:1010C000F9013197F1F70197D9F71A8282E060E0D0
:1010D00045EF9E012E5F3F4F0E9438198EEE92E041
:1010E0002CEC31E0F9013197F1F70197D9F71B8228
:1010F00082E060E044EF9E012D5F3F4F0E9438196F
:101100008EEE92E02CEC31E0F9013197F1F7019786
:10111000D9F781E0898B8A8B82E062E042ED9E0103
:101120002F5E3F4F0E9438198EEE92E02CEC31E09A
:10113000F9013197F1F70197D9F782E08B8B81E0C4
:101140008C8B82E062E042ED9E012D5E3F4F0E945B
:1011500038198EEE92E02CEC31E0F9013197F1F77D
:101160000197D9F783E08D8B82E08E8B62E042EDB0
:101170009E012B5E3F4F0E9438198EEE92E02CECC0
:1011800031E0F9013197F1F70197D9F784E08F8BBE
:1011900083E0888F82E062E042ED9E01295E3F4F4E
:1011A0000E9438198EEE92E02CEC31E0F901319773
:1011B000F1F70197D9F785E0898F81E08A8F82E086
:1011C00062E042ED9E01275E3F4F0E9438198EEE8D
:1011D00092E02CEC31E0F9013197F1F70197D9F762
:1011E00086E08B8F85E08C8F82E062E042ED9E018D
:1011F000255E3F4F0E9438198EEE92E02CEC31E0D4
:10120000F9013197F1F70197D9F71C8282E060E08C
:1012100040EC9E012C5F3F4F0E9438198EEE92E009
:101220002CEC31E0F9013197F1F70197D9F71D82E4
:1012300082E060E046EF9E012B5F3F4F0E9438192D
:101240008EEE92E02CEC31E0F9013197F1F7019745
:10125000D9F71E8282E060E042EF9E012A5F3F4F95
:101260000E9438198EEE92E02CEC31E0F9013197B2
:10127000F1F70197D9F71F8282E060E041EF9E010C
:10128000295F3F4F0E9438198EEE92E02CEC31E03E
:10129000F9013197F1F70197D9F7188682E060E0FC
:1012A00044E09E01285F3F4F0E9438198EEE92E085
:1012B0002CEC31E0F9013197F1F70197D9F781E092
:1012C000898782E061E048EB9E01275F3F4F0E94E3
:1012D00038198EEE92E02CEC31E0F9013197F1F7FC
:1012E0000197D9F782E08A8761E048EB9E01265F8B
:1012F0003F4F0E9438198EEE92E02CEC31E0F9015C
:101300003197F1F70197D9F783E08B8782E061E0AD
:1013100048EB9E01255F3F4F0E9438198EEE92E008
:101320002CEC31E0F9013197F1F70197D9F784E01E
:101330008C8782E061E048EB9E01245F3F4F0E9472
:1013400038198EEE92E02CEC31E0F9013197F1F78B
:101350000197D9F785E08D8782E061E048EB9E0137
:10136000235F3F4F0E9438198EEE92E02CEC31E063
:10137000F9013197F1F70197D9F786E08E8782E07E
:1013800061E048EB9E01225F3F4F0E9438198EEECC
:1013900092E02CEC31E0F9013197F1F70197D9F7A0
:1013A00087E08F8782E061E048EB9E01215F3F4F3D
:1013B0000E9438198EEE92E02CEC31E0F901319761
:1013C000F1F70197D9F788E0888B82E061E048EB7C
:1013D0009E01205F3F4F0E9438198EEE92E02CEC68
:1013E00031E0F9013197F1F70197D9F78CEF8D8F43
:1013F0001E8E82E062E047EE9E01235E3F4F0E9418
:1014000038198EEE92E02CEC31E0F9013197F1F7CA
:101410000197D9F76E960FB6F894DEBF0FBECDBF19
:10142000CF91DF910895DF93CF93CDB7DEB72C979F
:101430000FB6F894DEBF0FBECDBF809103018823A5
:10144000B1F486E0898381E08A8382E062E042ED44
:101450009E012F5F3F4F0E94381984EF91E02CECE2
:1014600031E0F9013197F1F70197D9F715C086E01E
:101470008B8385E08C8382E062E042ED9E012D5FEC
:101480003F4F0E94381984EF91E02CEC31E0F901D4
:101490003197F1F70197D9F780912D018823B1F4A5
:1014A00084E08D8381E08E8382E062E042ED9E01E4
:1014B0002B5F3F4F0E94381984EF91E02CEC31E014
:1014C000F9013197F1F70197D9F715C084E08F83BF
:1014D00083E0888782E062E042ED9E01295F3F4F12
:1014E0000E94381984EF91E02CEC31E0F90131973A
:1014F000F1F70197D9F7809111018823B1F483E0C6
:10150000898781E08A8782E062E042ED9E01275F61
:101510003F4F0E94381984EF91E02CEC31E0F90143
:101520003197F1F70197D9F714C083E08B8782E0F8
:101530008C8762E042ED9E01255F3F4F0E94381983
:1015400084EF91E02CEC31E0F9013197F1F701974C
:10155000D9F72C960FB6F894DEBF0FBECDBFCF9152
:10156000DF9108951F93DF93CF93CDB7DEB76797D1
:101570000FB6F894DEBF0FBECDBF80910301882364
:1015800011F41FED01C01FEF80912D01882309F494
:10159000185080911101882309F41450FE013496EB
:1015A00084E1DF011D928A95E9F783E00E94291505
:1015B0001A831B8282E062E047EE9E012E5F3F4F5E
:1015C0000E9438198EEE92E02CEC31E0F90131974F
:1015D000F1F70197D9F7198282E060E045EE9E01AC
:1015E0002F5F3F4F0E943819CE01049662E00E949F
:1015F000D91A8823A1F1988580913001981779F143
:10160000909330018A85823069F48985833039F579
:101610008091260190912701019690932701809354
:1016200026011DC0833069F489858430C1F480911E
:101630002101909122010196909322018093210132
:101640000EC0853061F48985863049F48091190196
:1016500090911A01019690931A01809319010E94AA
:10166000E60D0E94130A0E94301967960FB6F8948F
:10167000DEBF0FBECDBFCF91DF911F9108950F93B5
:101680001F93DF93CF93CDB7DEB765970FB6F8946E
:10169000DEBF0FBECDBF8E010E5F1F4F84E1F8018C
:1016A00011928A95E9F7198282E060E045EE9E0189
:1016B0002F5F3F4F0E943819C80162E00E94D91A7B
:1016C000882309F482C09E8180913001981709F423
:1016D0007CC09093300128852130A9F48F8181301E
:1016E00009F080C08091090190910A01019605C01E
:1016F0008091090190910A01029690930A018093CA
:10170000090110921D01822F81508230B8F48F811F
:101710008330A1F48091090190910A01059690937C
:101720000A01809309018091260190912701019679
:10173000909327018093260110921D01233011F010
:10174000213041F53F813430A1F48091090190911D
:101750000A010A9690930A01809309018091210160
:101760009091220101969093220180932101109281
:101770001D01233011F0213069F4353059F4809186
:10178000090190910A01449690930A0180930901FE
:1017900010921D01253011F02130B9F48F8186306F
:1017A000A1F48091090190910A01C29690930A01D7
:1017B000809309018091190190911A0101969093EB
:1017C0001A018093190110921D010E94301965962B
:1017D0000FB6F894DEBF0FBECDBFCF91DF911F9142
:1017E0000F910895823009F08ECF82CF0F931F930F
:1017F000DF93CF93CDB7DEB765970FB6F894DEBF12
:101800000FBECDBF8E010E5F1F4F84E1F801119214
:101810008A95E9F7198282E060E045EE9E012F5F2C
:101820003F4F0E943819C80162E00E94D91A8823EC
:1018300039F09E8180913001981711F0909330011A
:101840000E94301965960FB6F894DEBF0FBECDBF6B
:10185000CF91DF911F910F9108950F931F93DF9305
:10186000CF93CDB7DEB765970FB6F894DEBF0FBE46
:10187000CDBFFE01329684E1DF011D928A95E9F722
:101880008CEB91E063E00E941C1587EA91E064E034
:101890000E941C1580E197E22CEC31E0F9013197B0
:1018A000F1F70197D9F7198282E060E042EF9E01DB
:1018B0002F5F3F4F0E943819CE01029662E00E94CE
:1018C000D91A882309F45AC08E81813AA9F48F81EC
:1018D0008D3791F48885863279F482E991E064E06D
:1018E0000E941C1580E197E22CEC31E0F901319760
:1018F000F1F70197D9F748C08FE791E064E00E94C3
:101900001C150CEC11E08AE691E063E00E941C15C6
:1019100087E591E064E00E941C1588E99AE3F801EC
:101920003197F1F70197D9F783E491E063E00E94E2
:101930001C1580E491E063E00E941C158E8190E00C
:101940000E94ED148CE391E00E94FF0C8F8190E0E7
:101950000E94ED1488E391E00E94FF0C888590E0DE
:101960000E94ED1484E391E00E94FF0C88E99AE361
:10197000F8013197F1F70197D9F7C5CF8FE191E0E1
:1019800064E00E941C15FFCF65960FB6F894DEBF89
:101990000FBECDBFCF91DF911F910F91089580FFB2
:1019A00002C0449A01C0449881FF02C0459A01C018
:1019B000459882FF02C0429A01C0429883FF02C04C
:1019C000439A0895439808951F93182F5B9A829520
:1019D0008F700E94CF0C5B985B9A812F0E94CF0C76
:1019E0005B9886EE90E00197F1F71F9108955C985F
:1019F0000E94E40C08955C9A0E94E40C0895CF9331
:101A0000DF93EC0105C02196F90184910E94FB0C43
:101A10009E01FE0184918823B1F7DF91CF91089553
:101A2000CF93DF93EC0103C021960E94FB0C8881C9
:101A30008823D1F7DF91CF910895813049F081302B
:101A400028F0823039F0833061F408C080E803C0A8
:101A500080EC01C084E90E94F70C089584ED0E9497
:101A6000F70C089581E00E94F70C80E094E2019762
:101A7000F1F7089582E00E94F70C80E094E201976C
:101A8000F1F708951F93CF93DF933C9A3D9A3A9ACA
:101A90003B9A539A549A86E990E02CEC31E0F90194
:101AA0003197F1F70197D9F75C985B9810E0C0E0A7
:101AB000DAE55B9A83E00E94CF0C5B98CE01019738
:101AC000F1F71F5F1330A9F75B9A82E00E94CF0CF9
:101AD0005B9880E092E10197F1F788E20E94F70CB1
:101AE00088E00E94F70C81E00E94F70C80E094E20D
:101AF0000197F1F786E00E94F70C8CE00E94F70C4A
:101B0000DF91CF911F91089580911101833081F46D
:101B10008091240180FF08C0809124018B5F809315
:101B2000240181E080930B0188EF809329010EC08E
:101B30008CEF8093290180910B01882339F08091EB
:101B4000240185508093240110920B0180912D0176
:101B5000833039F480911101833019F481E080934E
:101B60002F010895FF920F931F93DF93CF93CDB76B
:101B7000DEB765970FB6F894DEBF0FBECDBFF82E67
:101B80008E010E5F1F4F84E1F80111928A95E9F7EB
:101B900019828F2D60E04CEE9E012F5F3F4F0E9417
:101BA0003819C8016F2D0E94D91A882311F483E0D7
:101BB00001C08E8165960FB6F894DEBF0FBECDBF13
:101BC000CF91DF911F910F91FF90089586E00E94C1
:101BD000B20D8093030185E00E94B20D80932D0128
:101BE00084E00E94B20D8093110108950F931F931A
:101BF000DF93CF93CDB7DEB76A970FB6F894DEBF09
:101C00000FBECDBF082F162F882309F442C0FE0156
:101C1000379684E1DF011D928A95E9F785EA898389
:101C2000862F61E044EA9E012F5F3F4F0E943819E2
:101C300084EF91E02CEC31E0F9013197F1F7019755
:101C4000D9F71A82812F60E042EF9E012E5F3F4F4D
:101C50000E943819CE010796612F0E94D91A882355
:101C6000C1F08C852D859B859B838C832D830E8372
:101C7000812F64E047EA9E012D5F3F4F0E94381993
:101C800080E991E02CEC31E0F9013197F1F701970F
:101C9000D9F76A960FB6F894DEBF0FBECDBFCF91CD
:101CA000DF911F910F9108958130E9F4809119011E
:101CB00090911A01069770F085E066E00E94F60D9B
:101CC0008091190190911A01059790931A018093C0
:101CD0001901089589E166E00E94F60D10921A013B
:101CE0001092190108958230E9F4809121019091B8
:101CF0002201069770F085E065E00E94F60D809164
:101D00002101909122010597909322018093210156
:101D1000089589E165E00E94F60D1092220110926B
:101D2000210108958330E1F48091260190912701EB
:101D3000069770F085E064E00E94F60D8091260120
:101D4000909127010597909327018093260108958C
:101D500089E164E00E94F60D10922701109226019D
:101D6000089586B190E0827090700E948F1388234E
:101D700081F080912B01882361F084EF91E02CECBD
:101D800031E0F9013197F1F70197D9F781E00E942D
:101D9000540E80912B01882359F486B190E0827013
:101DA00090700E948F13882319F481E080932B0197
:101DB00086B190E0817090700E948F13882381F02B
:101DC00080911C01882361F084EF91E02CEC31E0DC
:101DD000F9013197F1F70197D9F782E00E94540E8B
:101DE00080911C01882359F486B190E08170907035
:101DF0000E948F13882319F481E080931C0183B122
:101E000090E0887090700E948F13882381F08091F9
:101E10000001882361F084EF91E02CEC31E0F901BE
:101E20003197F1F70197D9F783E00E94540E809122
:101E30000001882359F483B190E0887090700E946B
:101E40008F13882319F481E0809300010895FF9295
:101E50000F931F93DF93CF93CDB7DEB765970FB680
:101E6000F894DEBF0FBECDBFF82E8E010E5F1F4F60
:101E700084E1F80111928A95E9F719828F2D60E0CB
:101E800046EA9E012F5F3F4F0E943819C8016F2D0F
:101E90000E94001A81118F8165960FB6F894DEBFFB
:101EA0000FBECDBFCF91DF911F910F91FF9008958D
:101EB000FF920F931F93DF93CF93CDB7DEB7659754
:101EC0000FB6F894DEBF0FBECDBFF82E8E010E5FA9
:101ED0001F4F84E1F80111928A95E9F719828F2D3D
:101EE00060E04CEA9E012F5F3F4F0E943819C80105
:101EF0006F2D0E94001A81118E8165960FB6F8949D
:101F0000DEBF0FBECDBFCF91DF911F910F91FF902C
:101F10000895BF92CF92DF92EF92FF920F931F939B
:101F2000B82ED62EC42E0E947419BB2019F186E05B
:101F30000E94270F8093020110E000E017C086E0A6
:101F40000E94270F8093020180910201081719F067
:101F50000091020110E01F5F0E947419183230F0E6
:101F600086E00E94580FE82EB81A05C08091020141
:101F7000882329F7EE24DD2019F185E00E94270F40
:101F80008093020110E000E017C085E00E94270F57
:101F90008093020180910201081719F0009102015B
:101FA00010E01F5F0E9474191F3030F085E00E941E
:101FB000580F082FD81A05C080910201882329F7ED
:101FC00000E0CC2019F184E00E94270F80930201E9
:101FD00010E0FF2417C084E00E94270F80930201C5
:101FE00080910201F81619F0F090020110E01F5FD5
:101FF0000E9474191F3030F084E00E94580FF82EB0
:10200000C81A05C080910201882329F7FF24EE2019
:1020100039F4002309F060C0FF2009F089C0ADC089
:10202000002309F002C185E0E89EC0011124D80E0A
:1020300065E00E94F60D85E00E94270F8093020163
:1020400010E0EE241AC085E00E94270F8093020161
:1020500080910201E81619F0E090020110E01F5F84
:102060000E947419123348F085E00E94580F082F1F
:10207000D81A882309F45BC02EC0809102018823FE
:1020800011F755C080E064E00E94F60D84E00E94E4
:10209000270F8093020110E0EE2417C084E00E9415
:1020A000270F8093020180910201E81619F0E09059
:1020B000020110E01F5F0E947419123330F084E0B7
:1020C0000E94580FF82EC81A06C08091020188237A
:1020D00029F7EE2403C0EE24FF2051F580E064E0F0
:1020E0000E94F60D84E00E94270F8093020110E009
:1020F00000E017C084E00E94270F809302018091C6
:102100000201081719F00091020110E01F5F0E9400
:102110007419123330F084E00E94580FF82EC81A58
:1021200004C080910201882329F700E001C0EE2459
:102130002AE0029F9001112482E3E89EC00111244D
:10214000280F391F85E0F89EC0011124280F391F80
:1021500030930D0120930C0180910C0190910D01A1
:10216000892B59F081E080931501809109019091AC
:102170000A0190931301809312012B2D30E080917E
:10218000190190911A012817390758F48091190103
:1021900090911A01821B930B90931A01809319015D
:1021A00004C010921A01109219016D2D70E08091F7
:1021B0002101909122016817790758F4809121013B
:1021C00090912201861B970B90932201809321010D
:1021D00004C010922201109221014C2D50E08091F8
:1021E0002601909127014817590758F4809126013C
:1021F00090912701841B950B9093270180932601D2
:1022000004C010922701109226010E94061E10920F
:102210000A0110920901109208011F910F91FF907D
:10222000EF90DF90CF90BF900895FF2009F054CF3A
:1022300029CFAF92BF92CF92DF92EF92FF920F938E
:102240001F93CF93DF93C0910901D0910A01809130
:102250002401C81BD109CE0162E370E00E94CD20A9
:102260009E01281B390BC90162E370E00E94CD205A
:10227000C62ECE016AE070E00E94CD20AE01481B60
:10228000590BCA016AE070E00E94CD20062F2C2D68
:1022900030E08BEF9FEFAC01249FC001259F900D94
:1022A000349F900D1124080FCE0165E070E00E946C
:1022B000CD20162F86EF9FEFAC01249FC001259FF4
:1022C000900D349F900D1124180F802F90E0880FEF
:1022D000991F181B809103018330D1F480912D0147
:1022E000833061F4C90153E0880F991F5A95E1F7D3
:1022F000220F331F820F931F180FCC2480911101DE
:10230000833031F485E0C89EC0011124080FCC242D
:1023100080912D01833019F4000F100F00E080919F
:102320001101833061F4812F90E010FD04C0880F0B
:10233000991F080F03C01550110F010F10E0809175
:102340000301833009F44FC080912D01833009F4DB
:102350004AC080911101833009F445C0BC2CE02EA5
:10236000FF240BC00E94BD1B8A3118F0805B8931AD
:1023700018F455E0E50EBA94F394FC1498F3AE2CDF
:10238000D12EFF240BC00E94BD1B853118F0855B48
:10239000843118F4EA9482E0D80EF394FA1498F396
:1023A00085E0D89EC00111242AE0E29E900111240C
:1023B000820F931F22E3B29E90011124820F931F7C
:1023C0008C179D0781F48B2D66E00E94F60D8E2DF3
:1023D00065E00E94F60D8D2D64E00E94F60D8B2DB8
:1023E0006E2D4D2D0FC08C2D66E00E94F60D802FB6
:1023F00065E00E94F60D812F64E00E94F60D8C2DA1
:10240000602F412F0E94890F0E941E14DF91CF91EF
:102410001F910F91FF90EF90DF90CF90BF90AF9002
:1024200008950F931F93DF93CF93CDB7DEB76497D3
:102430000FB6F894DEBF0FBECDBFFE01319684E12A
:10244000DF011D928A95E9F784E893E063E00E943A
:102450001C158FE693E064E00E941C1580E197E272
:102460002CEC31E0F9013197F1F70197D9F786E0CB
:1024700060E042EF20E030E00E943819CE01019682
:1024800066E00E94D91A882309F469C08D818E36CE
:1024900021F58E81853309F58F818A31F1F48AE542
:1024A00093E064E00E941C1580E197E22CEC31E09F
:1024B000F9013197F1F70197D9F785E060E042EF34
:1024C00020E030E00E943819CE01019665E00E94BC
:1024D000D91A882309F049C0B1C086E493E064E0CA
:1024E0000E941C150CEC11E081E393E063E00E9474
:1024F0001C158DE193E064E00E941C1588E99AE3C5
:10250000F8013197F1F70197D9F789E093E063E09B
:102510000E941C1586E093E063E00E941C158D81EB
:1025200090E00E94ED1482E093E00E94FF0C8E8107
:1025300090E00E94ED148EEF92E00E94FF0C8F81DC
:1025400090E00E94ED148AEF92E00E94FF0C88E96F
:102550009AE3F8013197F1F70197D9F7C5CF85EEE6
:1025600092E064E00E941C15FFCF8D81883621F532
:102570008E81853309F58F818A31F1F480ED92E007
:1025800064E00E941C1580E197E22CEC31E0F90137
:102590003197F1F70197D9F784E060E042EF20E04E
:1025A00030E00E943819CE01019664E00E94D91AE9
:1025B000882309F049C0A2C08CEB92E064E00E943D
:1025C0001C150CEC11E087EA92E063E00E941C15F8
:1025D00083E992E064E00E941C1588E99AE3F8011F
:1025E0003197F1F70197D9F78FE792E063E00E9406
:1025F0001C158CE792E063E00E941C158D8190E031
:102600000E94ED1488E792E00E94FF0C8E8190E01A
:102610000E94ED1484E792E00E94FF0C8F8190E00D
:102620000E94ED1480E792E00E94FF0C88E99AE393
:10263000F8013197F1F70197D9F7C5CF8BE592E013
:1026400064E00E941C15FFCF8D818736A9F48E812E
:10265000853391F48F818A3179F486E492E064E0E5
:102660000E941C1580E197E22CEC31E0F9013197D2
:10267000F1F70197D9F748C082E392E064E00E9445
:102680001C150CEC11E08DE192E063E00E941C153A
:1026900089E092E064E00E941C1588E99AE3F80161
:1026A0003197F1F70197D9F785EF91E063E00E9448
:1026B0001C1582EF91E063E00E941C158D8190E073
:1026C0000E94ED148EEE91E00E94FF0C8E8190E04E
:1026D0000E94ED148AEE91E00E94FF0C8F8190E041
:1026E0000E94ED1486EE91E00E94FF0C88E99AE3C7
:1026F000F8013197F1F70197D9F7C5CF81ED91E056
:1027000064E00E941C15FFCF64960FB6F894DEBFFC
:102710000FBECDBFCF91DF911F910F91089520E0A3
:10272000892B09F421E0822F0895CF93DF93EB01E9
:10273000892B81F480E094E20197F1F781E08093A6
:102740001F0104C0CE0164E00E941C1580911F018E
:102750008823C1F7DF91CF9108958CE294E063E084
:102760000E941C1587E194E064E00E941C1580E142
:1027700097E22CEC31E0F9013197F1F70197D9F7A5
:1027800086B190E08270907062E074E00E949513D0
:1027900086B190E0817090706DEE73E00E949513A9
:1027A00083B190E08870907068ED73E00E9495139B
:1027B00083B190E08071907063EC73E00E94951398
:1027C00083B190E0807290706EEA73E00E9495137E
:1027D00089E993E064E00E941C1580E197E22CEC0B
:1027E00031E0F9013197F1F70197D9F70895DF93B7
:1027F000CF930F92CDB7DEB7809101018823D1F43A
:10280000809104018823B1F480912F01882391F4F1
:10281000198280E561E047E49E012F5F3F4F0E94EF
:10282000381984EF91E02CEC31E0F9013197F1F7A0
:102830000197D9F70F90CF91DF910895DF93CF9350
:1028400000D0CDB7DEB781E0898380E561E046E462
:102850009E012F5F3F4F0E94381984EF91E02CECCE
:1028600031E0F9013197F1F70197D9F71A8280E544
:1028700060E047E49E012E5F3F4F0E94381984EFCD
:1028800091E02CEC31E0F9013197F1F70197D9F79C
:102890000F900F90CF91DF9108950F931F93DF93C7
:1028A000CF93CDB7DEB764970FB6F894DEBF0FBEF7
:1028B000CDBFFE01319684E1DF011D928A95E9F7D3
:1028C0008BED94E063E00E941C1586EC94E064E0DC
:1028D0000E941C1580E197E22CEC31E0F901319760
:1028E000F1F70197D9F780E560E042EF20E030E0B2
:1028F0000E943819CE01019660E50E94001A8823D3
:1029000009F45AC08D818823A9F48E81882391F41B
:102910008F81882379F486EB94E064E00E941C1593
:1029200080E197E22CEC31E0F9013197F1F7019762
:10293000D9F748C082EA94E064E00E941C150CECD0
:1029400011E08DE894E063E00E941C1589E794E0B3
:1029500064E00E941C1588E99AE3F8013197F1F7C9
:102960000197D9F785E694E063E00E941C1582E6A2
:1029700094E063E00E941C158D8190E00E94ED14AC
:102980008EE594E00E94FF0C8E8190E00E94ED1491
:102990008AE594E00E94FF0C8F8190E00E94ED1484
:1029A00086E594E00E94FF0C88E99AE3F8013197EC
:1029B000F1F70197D9F7C5CF81E494E064E00E9474
:1029C0001C15FFCF64960FB6F894DEBF0FBECDBFC7
:1029D000CF91DF911F910F9108950F931F93DF9374
:1029E000CF93CDB7DEB72A970FB6F894DEBF0FBEF0
:1029F000CDBF8E010F5F1F4FB8014AE050E00E942B
:102A00000321C8010E94100D2A960FB6F894DEBF6C
:102A10000FBECDBFCF91DF911F910F9108950F93FE
:102A20001F938C01862F81500E941D0DC8010E94AA
:102A3000100D1F910F9108950F931F938C01862FF6
:102A400081500E941D0DC8010E94FF0C1F910F9123
:102A500008951F93873009F438C2883090F483308A
:102A600009F4D0C0843030F4813009F1823009F0AB
:102A7000DEC32FC0853009F4F3C1863008F013C2DD
:102A800034C18B3009F469C28C3038F4893009F4D0
:102A900040C28A3008F04FC22AC28D3009F40DC3FB
:102AA0008D3008F46CC28E3009F0C1C31BC385ECB5
:102AB0009BE061E00E941C1580EB9BE062E00E94BD
:102AC0001C158BE99BE063E00E941C1586E89BE0E7
:102AD00005C381E79BE061E00E941C158CE59BE04B
:102AE00062E00E941C1587E49BE063E00E941C15D5
:102AF00080912401823309F464C0833318F589314D
:102B000009F450C08A3178F48A3009F442C08B301D
:102B100020F4853009F08BC339C08F30E9F184315E
:102B200009F085C33CC0833209F442C0843220F4EA
:102B30008E3109F07CC339C08832E9F18D3209F059
:102B400076C33CC08B3409F44BC08C3470F48C33A6
:102B5000F1F18D3320F4873309F069C335C0813436
:102B6000C9F1863409F063C338C08A3509F441C01D
:102B70008B3530F48035B9F1853509F058C336C04E
:102B80008F35D1F1843609F052C339C082E39BE01E
:102B9000A5C28DE19BE0A2C288E09BE09FC283EFCB
:102BA0009AE09CC28DED9AE099C288EC9AE096C2B8
:102BB00082EB9AE093C28DE99AE090C287E89AE0AE
:102BC0008DC282E79AE08AC28CE59AE087C287E4E8
:102BD0009AE084C281E39AE081C28CE19AE07EC2ED
:102BE00086E09AE07BC281EF99E078C28BED99E0B4
:102BF00075C286EC99E072C280EB99E06FC28BE9F6
:102C000099E06CC2809137018F5F8093370180918A
:102C10003701863080F586E899E062E00E941C1555
:102C200086E799E062E00E941C158091190190915D
:102C30001A010E94ED1481E699E063E00E941C15E0
:102C400081E599E063E00E941C158091210190913B
:102C500022010E94ED148CE399E064E00E941C15AF
:102C60008CE299E064E00E941C158091260190910D
:102C700027010E94ED1480913701863070F1809118
:102C800037018B3050F580910301882351F487E19F
:102C900099E062E00E941C1582E099E062E00E94E7
:102CA0001C1580912D01882351F48DEE98E063E08E
:102CB0000E941C1588ED98E063E00E941C1580912D
:102CC0001101882351F483EC98E064E00E941C1504
:102CD0008EEA98E064E00E941C15809137018B30E9
:102CE00008F4A5C210923701A2C280910901909107
:102CF0000A01809320018091240180930601209194
:102D000024018091090190910A01281B2093070159
:102D10001092160110922A0110922C0190E020E0EE
:102D200030E02F5F3F4F809120018A3050F08A5071
:102D300080932001809116018F5F8093160120E01F
:102D400030E0809120018150893048F48093200147
:102D500080912A018F5F80932A0120E030E08091EA
:102D600007018A3030F08A50809307019F5F20E08E
:102D700030E0809107018150893048F48093070149
:102D800080912C018F5F80932C0120E030E08091B6
:102D90000701882339F480912001882319F4909346
:102DA0000E010DC08AEF2030380708F4BACF109218
:102DB000160110922A0110920E0110922C0110920D
:102DC00018011092170189E998E061E00E941C1532
:102DD00083E998E062E00E941C158091160190E062
:102DE0000E94ED148CE898E00E94FF0C80912A016B
:102DF0001AE0819FC00111240E94ED1484E898E03C
:102E00000E94FF0C8FE698E063E00E941C1589E6A3
:102E100098E064E00E941C1580910E01882389F0DF
:102E200090E00E94ED1482E698E00E94FF0C8091F1
:102E30002C01819FC00111240E94ED148AE598E0C5
:102E4000F4C181E598E064E00E941C1580912C019A
:102E5000819FC00111240E94ED1485E498E0E5C132
:102E600080E398E061E00E941C158BE198E062E04D
:102E70000E941C1586E098E063E00E941C158EEF0E
:102E800097E063E00E941C15909124018AE0989FCE
:102E9000C00111240E94ED1489EF97E00E94FF0CFD
:102EA00084EE97E01BC18FEC97E061E00E941C1557
:102EB0008AEB97E062E00E941C1585EA97E063E0E8
:102EC0000E941C1580E997E009C18BE797E061E05B
:102ED0000E941C1586E697E062E00E941C1581E5C1
:102EE00097E063E00E941C158CE397E0F7C087E24F
:102EF00097E061E00E941C1582E197E062E00E9489
:102F00001C158DEF96E063E00E941C1588EE96E09C
:102F1000E5C083ED96E061E00E941C158EEB96E023
:102F200062E00E941C1589EA96E063E00E941C158D
:102F300084E996E0D3C08FE796E061E00E941C151B
:102F40008AE696E062E00E941C1585E596E063E063
:102F50000E941C1580E496E0C1C08BE296E061E01F
:102F60000E941C1586E196E062E00E941C1581E03B
:102F700096E063E00E941C158CEE95E0AFC01092C5
:102F8000160110922A0110920E0110922C0120912C
:102F900012013091130160910C0170910D0180912B
:102FA000170190911801A0E001962A30310548F0F0
:102FB0002A503040809116018F5F8093160180E087
:102FC00090E0F9013197E930F10510F0F90107C0FF
:102FD00080912A018F5F80932A0180E090E06A301F
:102FE000710528F06A507040AF5F80E090E0AB015F
:102FF000415050404930510510F0AB0107C080915D
:103000002C018F5F80932C0180E090E041155105E9
:1030100029F4309719F4A0930E010FC02AEF8030E5
:10302000920718F49F01BA01BFCF109216011092B7
:103030002A0110920E0110922C0110921801109288
:10304000170187ED95E061E00E941C1581ED95E088
:1030500062E00E941C158091160190E00E94ED1420
:103060008AEC95E00E94FF0C80912A011AE0819F72
:10307000C00111240E94ED1482EC95E00E94FF0C27
:103080008DEA95E063E00E941C1587EA95E064E014
:103090000E941C1580910E0190E00E94ED1480EAC0
:1030A00095E00E94FF0C80912C01819FC0011124AA
:1030B0000E94ED1488E995E0B8C083E895E061E0EE
:1030C0000E941C158EE695E062E00E941C1589E5C1
:1030D00095E063E00E941C1584E495E064E00E94A2
:1030E0001C15A5C01092160110922A0110920E0113
:1030F00010922C01109218011092170140910901B1
:1031000050910A012091090130910A018091240116
:10311000281B3109A0E080E090E001964A3051057B
:1031200048F04A505040809116018F5F80931601FD
:1031300080E090E0FA013197E930F10510F0FA01F2
:1031400007C080912A018F5F80932A0180E090E080
:103150002A30310528F02A503040AF5F80E090E0FF
:10316000B901615070406930710510F0B90107C0B4
:1031700080912C018F5F80932C0180E090E061159D
:10318000710529F4309719F4A0930E010FC02AEFAE
:103190008030920718F4AF019B01BFCF1092160147
:1031A00010922A0110920E0110922C011092180117
:1031B000109217018FE295E061E00E941C1589E2F0
:1031C00095E062E00E941C158091160190E00E943B
:1031D000ED1482E295E00E94FF0C80912A011AE032
:1031E000819FC00111240E94ED148AE195E00E94A4
:1031F000FF0C85E095E063E00E941C158FEF94E0E2
:1032000064E00E941C1580910E0190E00E94ED1474
:1032100088EF94E00E94FF0C80912C01819FC001F7
:1032200011240E94ED1480EF94E00E94FF0C1F9186
:1032300008959093C5008093C40088E18093C100F5
:1032400086E08093C2000895982F8091C00085FF8A
:10325000FCCF9093C60008958091C00080780895B7
:1032600002C08091C6008091C00087FDFACF08950A
:10327000982F02C08091C6008091C00087FDFACFD0
:103280008091C00085FFFCCF9093C6008091C00064
:1032900085FFFCCF6093C6008091C00085FFFCCF06
:1032A00081E08093C6008091C00085FFFCCF4093F1
:1032B000C600592F5F5F560F540FF90190E00AC006
:1032C00020818091C00085FFFCCF2093C600520F63
:1032D0009F5F31969617A0F38091C00085FFFCCFC9
:1032E00051955093C6000895DF93CF93CDB7DEB7C5
:1032F00028970FB6F894DEBF0FBECDBF80910801AE
:10330000882321F480912F01882371F119821A8278
:103310008DE262E047EE9E012F5F3F4F0E94381919
:1033200084EF91E02CEC31E0F9013197F1F701974E
:10333000D9F71B821C8282E062E047EE9E012D5F7E
:103340003F4F0E94381984EF91E02CEC31E0F901F5
:103350003197F1F70197D9F702C08091C6008091AB
:10336000C00087FDFACF30C0809129018D831E8275
:1033700082E062E047EE9E012B5F3F4F0E943819CA
:1033800084EF91E02CEC31E0F9013197F1F70197EE
:10339000D9F78FEF8F8388878DE262E047EE9E0139
:1033A000295F3F4F0E94381984EF91E02CEC31E007
:1033B000F9013197F1F70197D9F702C08091C60062
:1033C0008091C00087FDFACF28960FB6F894DEBF33
:1033D0000FBECDBFCF91DF91089520E838E341E0E3
:1033E00050E007C0215030404040504011F480E090
:1033F00008958091C00087FFF5CF8091C6000895A1
:103400002F923F924F925F926F927F928F929F92F4
:10341000AF92BF92CF92DF92EF92FF920F931F93E2
:10342000DF93CF93CDB7DEB7A1970FB6F894DEBF89
:103430000FBECDBF5C016F8FFE0131968EE1DF01C3
:103440001D928A95E9F7EE24E8A3F9A34BE0C42E78
:10345000D12CCC0EDD1E37E0232E312C2C0E3D1E40
:1034600026E0422E512C4C0E5D1E98E0692E712CE8
:103470006C0E7D1E8CEC882E81E0982E63C00E941D
:10348000ED19F80181938F01EC15FD05C1F7FF24BB
:1034900007C00E94ED190C0D1D1DD8018C93F394EB
:1034A0000F2D10E08A81282F30E0F101E20FF31F89
:1034B0008081682F70E0CB01820F931F08171907D6
:1034C00044F3F201E20FF31F8081813081F5F301B3
:1034D000E20FF31F8081BF8D8B1749F540E06C5FD1
:1034E0007F4F8E010F5F1F4F0BC0F501EA0FFB1FCF
:1034F000A00FB11FA20FB31F15968C9180834F5F51
:10350000A42FB0E06A177B0784F788E592E02CECE3
:1035100031E0F9013197F1F70197D9F702C08091B5
:10352000C6008091C00087FDFACF81E01AC088E50F
:1035300092E0F4013197F1F70197D9F7E394E5E0D0
:10354000EE1621F088A199A18C0199CF81E080939A
:103550001B0102C08091C6008091C00087FDFACF98
:1035600080E0A1960FB6F894DEBF0FBECDBFCF911D
:10357000DF911F910F91FF90EF90DF90CF90BF9060
:10358000AF909F908F907F906F905F904F903F9003
:103590002F90089528EC3FEA05C02150304011F4E7
:1035A00080E008958091C00087FFF7CF8091C6002A
:1035B00008952F923F924F925F926F927F928F92D7
:1035C0009F92AF92BF92CF92DF92EF92FF920F93B2
:1035D0001F93DF93CF93CDB7DEB7A1970FB6F894C3
:1035E000DEBF0FBECDBF5C016F8FFE0131968EE155
:1035F000DF011D928A95E9F7EE24E8A3F9A3FBE029
:10360000CF2ED12CCC0EDD1EE7E02E2E312C2C0E31
:103610003D1E76E0472E512C4C0E5D1E68E0662E56
:10362000712C6C0E7D1E5CEC852E51E0952E6AC0CF
:103630000E94CA1AF80181938F01EC15FD05C1F7AC
:10364000FF2407C00E94CA1A0C0D1D1DD8018C93BF
:10365000F3940F2D10E08A81282F30E0F101E20F62
:10366000F31F8081682F70E0CB01820F931F081732
:10367000190744F3F201E20FF31F8081813081F5D5
:10368000F301E20FF31F8081BF8D8B1749F540E0F6
:103690006C5F7F4F8E010F5F1F4F0BC0F501EA0F6C
:1036A000FB1FA00FB11FA20FB31F15968C91808333
:1036B0004F5FA42FB0E06A177B0784F784EF91E097
:1036C0002CEC31E0F9013197F1F70197D9F702C0FD
:1036D0008091C6008091C00087FDFACF81E01AC0BA
:1036E00084EF91E0F4013197F1F70197D9F702C027
:1036F0008091C6008091C00087FDFACFE394E5E099
:10370000EE1621F088A199A18C0192CF81E08093DF
:103710001B0180E0A1960FB6F894DEBF0FBECDBFAF
:10372000CF91DF911F910F91FF90EF90DF90CF909D
:10373000BF90AF909F908F907F906F905F904F90D1
:103740003F902F9008953998389823982498259879
:10375000209A219A229A419A409A2B9A2C9A2D9A31
:10376000289829982A9884EF91E02CEC31E0F9010F
:103770003197F1F70197D9F708956091320170916F
:103780003301809134019091350125E33EE44AE50F
:1037900051E00E94AE206F5F7F4F8F4F9F4F60932D
:1037A000320170933301809334019093350160911D
:1037B000320170913301809134019091350121E003
:1037C00031E040E050E00E94E120862F0895109201
:1037D00004011092010181E08093370110920801E9
:1037E0001092100110921F0110920A01109209010B
:1037F0001092240110920D0110920C0110922B01D5
:1038000010921C011092000110921D0110921B01D8
:10381000109202018CEF809329018AE090E0A0E0F1
:10382000B0E08093320190933301A0933401B093C0
:10383000350110921A011092190110922201109272
:10384000210110922701109226011092300110924E
:103850000F0110923801109225011092140110925C
:10386000280110922F011092150110920B0183E094
:103870008093030180932D01809311011092050123
:10388000089583B190E0807290700E948F13882316
:1038900001F183B190E0807190700E948F138823B2
:1038A000C1F480E094E20197F1F783B190E0807277
:1038B00090700E948F13882371F083B190E0807123
:1038C00090700E948F13882331F481E0809304016B
:1038D00002C01092040183B190E0807290700E9447
:1038E0008F13882301F583B190E0807190700E945E
:1038F0008F138823C1F080E094E20197F1F783B140
:1039000090E0807290700E948F13882371F483B1CD
:1039100090E0807190700E948F13882331F081E0D5
:10392000809301010895109201010895809104018E
:10393000882309F04CC080910101882309F047C019
:103940008091090190910A01892BF9F48091250158
:103950008823E9F5809114018823C9F58091280115
:103960008823A9F5809137018F5F8093370180917B
:103970003701883010F481E024C080913701813113
:1039800010F01092370182E01CC0209109013091A3
:103990000A018091240190E028173907A8F080914E
:1039A00037018F5F8093370180913701883010F4A1
:1039B00087E007C080913701813110F01092370104
:1039C0008EE00E942915089584E00E94291508952B
:1039D000CF93DF9380911501882311F527C08BE0E9
:1039E0000E94291588E99AE3FE013197F1F70197C2
:1039F000D9F78CE00E94291588E99AE3FE013197F6
:103A0000F1F70197D9F70E94411C809101018823A9
:103A100021F480910401882329F01092150102C03D
:103A2000CCECD1E0809115018823C9F6DF91CF91CC
:103A30000895809125018823A1F0809138018F5F3E
:103A400080933801289A88E00E94291580913801D6
:103A50008B3038F0109238011092250128980E947E
:103A6000E81C809114018823A1F0809138018F5FB8
:103A700080933801299A89E00E94291580913801A4
:103A80008B3038F0109238011092140129980E945E
:103A9000E81C809128018823A1F0809138018F5F74
:103AA000809338012A9A8AE00E9429158091380172
:103AB0008B3038F010923801109228012A980E9419
:103AC000E81C0895FF920F931F93CF93DF9383B168
:103AD00090E0807190700E948F13882309F490C049
:103AE00081E080930F0189E1809324010E94320DCF
:103AF00085E00E942915FF24F394C1E0D0E000E0A6
:103B000014E273C086B190E0827090700E948F13AF
:103B1000882391F080912B01882371F080912401FA
:103B2000803650F4809124018B5F809324011092A1
:103B30002B0185E00E94291586B190E0827090707B
:103B40000E948F13882331F480912B01882311F474
:103B5000F0922B0183B190E0887090700E948F13D7
:103B6000882391F080910001882371F080912401D5
:103B7000863050F08091240185508093240110926A
:103B8000000185E00E94291583B190E08870907053
:103B90000E948F13882331F480910001882311F44F
:103BA000F092000183B190E0B4E096958795BA95C4
:103BB000E1F78C279D27817090700E948F138823D6
:103BC000A1F0C8010197F1F783B190E0A4E09695C8
:103BD0008795AA95E1F78C279D27817090700E94A8
:103BE0008F13882311F010920F0180910F01882309
:103BF00009F088CF6091240181E090E00E942721A4
:103C0000DF91CF911F910F91FF900895609119015D
:103C100070911A0182E090E00E94352160912101AB
:103C20007091220184E090E00E943521609126018C
:103C30007091270186E090E00E943521089510924E
:103C40001A01109219011092220110922101109272
:103C50002701109226011092240110920D0110925A
:103C60000C0110922E0180E090E00E9419218093B7
:103C70002E0180912E018230B1F182E080932E01DD
:103C800060912E0180E090E00E94272110921A019D
:103C90001092190110922201109221011092270115
:103CA0001092260189E1809324016091190170919D
:103CB0001A0182E090E00E9435216091210170910B
:103CC000220184E090E00E943521609126017091EC
:103CD000270186E090E00E9435216091240181E077
:103CE00090E00E94272181E090E00E9419218093BA
:103CF000240182E090E00E94212190931A01809398
:103D0000190184E090E00E94212190932201809388
:103D1000210186E090E00E94212190932701809369
:103D200026018091190190911A018F5F9F4F49F4EC
:103D30008091190190911A01019690931A01809334
:103D4000190180912101909122018F5F9F4F49F4C9
:103D500080912101909122010196909322018093FC
:103D6000210180912601909127018F5F9F4F49F497
:103D700080912601909127010196909327018093CD
:103D800026010E94061E08950E94AD130E949C0702
:103D90000E942D0C0E9411120E944D1408958091D2
:103DA000090190910A01892B99F080911D018F5F83
:103DB00080931D0180911D018C3D50F010921D01DA
:103DC00010920A01109209010E94061E0E941E1400
:103DD00008950E941E140E94E60D0E943F0B0E944F
:103DE000F60B0E9465070E9449080E942C06089560
:103DF0000E94E71B0E94320D8FEE9BE061E00E9463
:103E00001C158AED9BE062E00E941C1580E29EE496
:103E10002CEC31E0F9013197F1F70197D9F70E94C5
:103E2000C41E0E94E91E0E941F1E02C08091C6008F
:103E30008091C00087FDFACF0E94320D08950E9444
:103E400072060E943F0B2091090130910A01809176
:103E5000240190E02817390720F081E080930801C1
:103E600008951092080108958091090190910A0126
:103E7000892B09F081C086B190E0827090700E9419
:103E80008F138823A1F080913101882381F080E095
:103E900092E10197F1F786B190E0827090700E94F4
:103EA0008F13882321F0109231010E94F71386B1FD
:103EB00090E0827090700E948F13882339F4809173
:103EC0003101882319F481E08093310186B190E0BB
:103ED000817090700E948F138823A1F08091360129
:103EE000882381F080E092E10197F1F786B190E0BC
:103EF000817090700E948F13882321F010923601F8
:103F00000E94F71386B190E0817090700E948F1329
:103F1000882339F480913601882319F481E0809355
:103F2000360183B190E0887090700E948F138823CF
:103F3000A1F080911E01882381F080E092E1019739
:103F4000F1F783B190E0887090700E948F138823FE
:103F500021F010921E010E94F71383B190E0887047
:103F600090700E948F13882339F480911E0188235A
:103F700019F481E080931E012091090130910A011A
:103F80008091240190E02817390708F44BC086B1CE
:103F900090E0827090700E948F13882389F080E0F7
:103FA00092E10197F1F786B190E0827090700E94E3
:103FB0008F13882329F00E94191181E08093250135
:103FC00086B190E0817090700E948F13882389F0F1
:103FD00080E092E10197F1F786B190E081709070F6
:103FE0000E948F13882329F00E94191181E0809389
:103FF000140183B190E0887090700E948F13882321
:1040000089F080E092E10197F1F783B190E0887048
:1040100090700E948F13882329F00E94191181E06B
:104020008093280108950E94420D1092C50087E7F1
:104030008093C40088E18093C10086E08093C20031
:104040000E94A31B0E94E71B88E893E12CEC31E05F
:10405000F9013197F1F70197D9F70E94621D0E948B
:10406000F81E0E94341F0E9474190E94E60D0E94DF
:10407000130A0E94840D0E94341F0E94411C0E945A
:10408000CF1E0E94191D0E94341F80911B0188239E
:1040900021F08DE00E942915FCCF80910401882336
:1040A000B9F480910101882399F480912F0188232C
:1040B00079F080912501882359F480911401882397
:1040C00039F480912801882319F486E00E9429158B
:1040D00080910401882351F089E19CE061E00E9415
:1040E0001C150E94B20A81E08093050180910401B1
:1040F000882381F480910101882361F480912F014C
:10410000882341F40E941F1F0E94341F0E94961CA6
:104110000E94840D80910501813071F4809101012C
:10412000882351F480910401882331F41092050111
:104130000E94061E0E94F81E80910101882309F446
:1041400090CF84E09CE061E00E941C150E94B20ABE
:104150000E94B10E81E08093050183CF629FD00160
:10416000739FF001829FE00DF11D649FE00DF11D32
:10417000929FF00D839FF00D749FF00D659FF00DE1
:104180009927729FB00DE11DF91F639FB00DE11DCE
:10419000F91FBD01CF0111240895AA1BBB1B51E1DA
:1041A00007C0AA1FBB1FA617B70710F0A61BB70BA7
:1041B000881F991F5A95A9F780959095BC01CD014C
:1041C0000895A1E21A2EAA1BBB1BFD010DC0AA1F58
:1041D000BB1FEE1FFF1FA217B307E407F50720F070
:1041E000A21BB30BE40BF50B661F771F881F991FEB
:1041F0001A9469F760957095809590959B01AC0134
:10420000BD01CF010895FB019F01423074F045329A
:1042100064F4642F77270E94CD20805D8A330CF0F0
:10422000895D8193CB010097A1F71082C9010C949D
:104230003A21F999FECF92BD81BDF89A992780B5B0
:104240000895A8E1B0E042E050E00C944C21262F04
:10425000F999FECF1FBA92BD81BD20BD0FB6F8946B
:10426000FA9AF99A0FBE019608950E942721272FE6
:104270000C942821DC01FC01672F71917723E1F771
:10428000329704C07C916D9370836291AE17BF0723
:10429000C8F30895DC01CB01FC01F999FECF06C0FB
:1042A000F2BDE1BDF89A319600B40D9241505040F4
:0842B000B8F70895F894FFCF60
:00000001FF
