:1000000012C02CC02BC02AC029C028C027C026C0BF
:1000100025C024C023C022C021C020C01FC01EC0D4
:100020001DC01CC01BC011241FBECFE5D4E0DEBF25
:10003000CDBF10E0A0E6B0E0E8EBF0E002C0059034
:100040000D92A236B107D9F710E0A2E6B0E001C0E8
:100050001D92A836B107E1F71BD02CC0D1CFA898CC
:10006000AD98919884EF91E028EC30E0F901319758
:10007000F1F70197D9F7AD9AA89A919A84EF91E098
:1000800028EC30E0F9013197F1F70197D9F708959D
:100090008D988E988F98B898B998A09AA59A899AB1
:1000A000959A969A979AC09AC19AAD9AA89A919A57
:0800B000D6DFFECFF894FFCF6C
:0200B800010144
:00000001FF
