:1000000012C02CC02BC02AC029C028C027C026C0BF
:1000100025C024C023C022C021C020C01FC01EC0D4
:100020001DC01CC01BC011241FBECFE5D4E0DEBF25
:10003000CDBF10E0A0E6B0E0E0E6FCE002C0059035
:100040000D92A43BB107D9F710E0A4EBB0E001C0DA
:100050001D92A33EB107E1F748D000C6D1CF8091F1
:100060006000882339F5849B04C081E08093B70049
:10007000AB98849919C08091B7008823A9F088E0D3
:100080008A95F1F7849910C0AB9A1092B90010923A
:10009000B8008091B4008F5F8093B4001092B700D5
:1000A0001092B600959AAA98849B04C081E0809330
:1000B000B700AB98089590BD89B988E18AB986EAFE
:1000C00080BD08951F93182FCADF5D9BFECF1CB91A
:1000D0001F910895C4DF8BB180780895C0DFFADFE7
:1000E0008823E1F3BCDF8CB10895FF920F931F9337
:1000F000CF93DF938C98949A8D9A959AA29AAA9806
:10010000A39AAB9810BC83E389B988E18AB986EADF
:1001100080BD80E29EE428EC30E0F9013197F1F7F0
:100120000197D9F72AC2DADF8093BB008091BB0028
:100130008C3F09F024C2D2DF8093BC001093BA0038
:100140000DC08091BA00C82FD0E0C8DFC554DF4F82
:1001500088838091BA008F5F8093BA009091BA0033
:100160008091BC00981768F38091BC008530B1F491
:100170008091BD00803491F48091BE008B3271F487
:100180008091BF00853151F48CEF9CDF85E09ADFD0
:1001900080E598DF8AEA96DF85E094DF8091BC00F5
:1001A0008530F1F58091BD008131D1F58091BE009F
:1001B0008732B1F58091BF00863591F58091B50009
:1001C0008823F9F01092BA000CC0E091BA00F0E078
:1001D000E554FF4F808176DF8091BA008F5F809376
:1001E000BA008091BA00853080F38091B5008330E9
:1001F00011F4109260008091B5008F5F8093B5007C
:100200000FC08091B5008F5F8093B5008CEF5ADFEF
:1002100085E058DF8BE156DF8DE754DF89EF52DF51
:100220008091BC00853009F58091BD008838E9F4E3
:100230008091BE008F36C9F48091BF008F35A9F43C
:100240008CEF40DF1092BA000CC0E091BA00F0E0F1
:10025000EF59FF4F808136DF8091BA008F5F809326
:10026000BA008091BA008D3280F38091BC00853055
:1002700009F58091BD008A38E9F48091BE008D3780
:10028000C9F48091BF008C37A9F48CEF1BDF10926A
:10029000BA000CC0E091BA00F0E0E157FF4F808156
:1002A00011DF8091BA008F5F8093BA008091BA000D
:1002B000843280F38091BC00873039F58091BD0095
:1002C000803C19F58091BE00803EF9F48091BF001A
:1002D0008F3FD9F48091C0008C3CB9F48091C1006B
:1002E000833599F41092BA000CC0E091BA00F0E0A6
:1002F000E554FF4F8081E6DE8091BA008F5F8093E6
:10030000BA008091BA00873080F38091BC008730BA
:1003100039F58091BD00813C19F58091BE0088239C
:10032000F9F48091BF008823D9F48091C000813F07
:10033000B9F48091C1008F3E99F41092BA000CC0BC
:10034000E091BA00F0E0E554FF4F8081BBDE809180
:10035000BA008F5F8093BA008091BA00873080F333
:100360008091BC00873039F58091BD00853C19F53E
:100370008091BE008330F9F48091BF008823D9F4C6
:100380008091C000883FB9F48091C100863A99F409
:100390001092BA000CC0E091BA00F0E0E554FF4FB3
:1003A000808190DE8091BA008F5F8093BA00809147
:1003B000BA00873080F38091BC00863019F58091B7
:1003C000BD00823CF9F48091BE008823D9F480916D
:1003D000BF008C3DB9F48091C0008F3C99F410921D
:1003E000BA000CC0E091BA00F0E0E554FF4F808104
:1003F00069DE8091BA008F5F8093BA008091BA0065
:10040000863080F38091BC00873039F58091BD0043
:10041000863C19F58091BE008130F9F48091BF00CF
:100420008231D9F48091C0008F3BB9F48091C10032
:10043000893499F41092BA000CC0E091BA00F0E04F
:10044000E554FF4F80813EDE8091BA008F5F80933C
:10045000BA008091BA00873080F38091BC0086306A
:1004600019F58091BD00873CF9F48091BE008C3F66
:10047000D9F48091BF008738B9F48091C0008C38DE
:1004800099F41092BA000CC0E091BA00F0E0E55483
:10049000FF4F808117DE8091BA008F5F8093BA0092
:1004A0008091BA00863080F38091BC00863039F5A7
:1004B0008091BD00833C19F58091BE008130F9F434
:1004C0008091BF008D38D9F48091C000873CB9F489
:1004D0001092BA000CC0E091BA00F0E0E554FF4F72
:1004E0008081F0DD8091BA008F5F8093BA008091A7
:1004F000BA00863080F31092B600959AAA9880913F
:10050000BC00863039F58091BD00833C19F580919F
:10051000BE008823F9F48091BF008430D9F4809123
:10052000C000863DB9F41092BA000CC0E091BA0048
:10053000F0E0E554FF4F8081C5DD8091BA008F5F08
:100540008093BA008091BA00863080F30093B600A1
:100550009598AA9A1092BA000BC0E091BA00F0E008
:10056000E554FF4F10828091BA008F5F8093BA00EC
:100570008091BA00883218F4F0CF12E001E0809147
:100580006000882309F0CFCD82E0F82E01E067DD1E
:10059000A5DD8093BB0063DD8091BB008C3F09F03B
:1005A0005BC39CDD8093BC00F092BA000DC08091CB
:1005B000BA00C82FD0E092DDC554DF4F8883809108
:1005C000BA008F5F8093BA009091BA008091BC000E
:1005D000981768F38091BC00863041F58091BD008A
:1005E000833C21F58091BE00813001F58091BF00F0
:1005F0008D38E1F48091C000873CC1F41092BA00BC
:100600000CC0E091BA00F0E0E554FF4F80815ADD64
:100610008091BA008F5F8093BA008091BA008630D3
:1006200080F31DDD1092B600959AAA9818DD80918E
:10063000BC00863041F58091BD00833C21F580915E
:10064000BE00882301F58091BF008430E1F48091E1
:10065000C000863DC1F41092BA000CC0E091BA000F
:10066000F0E0E554FF4F80812DDD8091BA008F5F6F
:100670008093BA008091BA00863080F3F0DC00935A
:10068000B6009598AA9AEBDC8091BC008530C9F53C
:100690008091BD008131A9F58091BE00873289F536
:1006A0008091BF00863569F5DADC8091B40088233B
:1006B00039F5D5DC8091B600882361F0D0DC8CEF71
:1006C00001DD85E0FFDC8AE1FDDC84EFFBDC88EE08
:1006D000F9DC14C0C4DC1092BA000CC0E091BA007E
:1006E000F0E0E554FF4F8081EDDC8091BA008F5F30
:1006F0008093BA008091BA00853080F3B0DCAFDC23
:10070000AEDCADDC8091B8009091B9000196909379
:10071000B9008093B8008091B400882309F49BC28B
:100720008091B8009091B900069740F598DC8091CF
:10073000B600882361F093DC8CEFC4DC85E0C2DC7A
:100740008AE1C0DC84EFBEDC88EEBCDC14C087DC50
:100750001092BA000CC0E091BA00F0E0E554FF4FEF
:100760008081B0DC8091BA008F5F8093BA00809165
:10077000BA00853080F373DC72DC6DC21092B90070
:100780001092B8006CDC8091BC00853009F05EC22C
:100790008091BD00813109F059C28091BE0087323D
:1007A00009F054C28091BF00863509F04FC257DC72
:1007B0008CEF88DC85E086DC82E184DC8CEB82DCFB
:1007C00084E680DC4CDC10E01092BA000EC0809110
:1007D000BA00C82FD0E082DCC554DF4F88833FDCED
:1007E0008091BA008F5F8093BA008091BA00853003
:1007F00070F335DC8CEF66DC85E064DC82E162DC82
:100800008CEB60DC84E65EDC2ADC1F5F1430E1F6F2
:1008100026DC1092BA000EC08091BA00C82FD0E03A
:100820005DDCC554DF4F88831ADC8091BA008F5F8E
:100830008093BA008091BA00853070F310DC80910B
:10084000B400843188F08CEF3DDC86E03BDC83E152
:1008500039DC85E637DC84E935DC8DEB33DCFFDB26
:100860008091B400845153C08091B4008A3088F0E4
:100870008CEF28DC86E026DC83E124DC84E622DCC5
:100880008DE120DC8CEA1EDCEADB8091B4008A502A
:100890003EC08091B400853088F08CEF13DC86E098
:1008A00011DC83E10FDC83E60DDC82EA0BDC88EDF2
:1008B00009DCD5DB8091B400855029C08091B4005B
:1008C000823088F08CEFFEDB86E0FCDB83E1FADB34
:1008D00082E6F8DB8BE2F6DB89ECF4DBC0DB8091AF
:1008E000B400825014C08091B400882391F08CEF42
:1008F000E9DB86E0E7DB83E1E5DB81E6E3DB80EB58
:10090000E1DB8BEFDFDBABDB8091B40081508093C8
:10091000B4001092BA000EC08091BA00C82FD0E087
:10092000DDDBC554DF4F88839ADB8091BA008F5F8F
:100930008093BA008091BA00853070F390DB8CEF21
:10094000C1DB85E0BFDB80E5BDDB8AEABBDB85E0A0
:10095000B9DB85DB1092BA000EC08091BA00C82FB7
:10096000D0E0BCDBC554DF4F888379DB8091BA00CF
:100970008F5F8093BA008091BA00853070F36FDB8F
:100980008CEFA0DB85E09EDB84E19CDB8AE89ADBD0
:1009900081E098DB64DB1092BA000EC08091BA004F
:1009A000C82FD0E09BDBC554DF4F888358DB809194
:1009B000BA008F5F8093BA008091BA00853070F3DF
:1009C0004EDB8CEF7FDB85E07DDB84E17BDB8AE83F
:1009D00079DB81E077DB43DB1092BA000EC08091B7
:1009E000BA00C82FD0E07ADBC554DF4F888337DBED
:1009F0008091BA008F5F8093BA008091BA008530F1
:100A000070F32DDB8CEF5EDB85E05CDB84E15ADB91
:100A10008AE858DB81E056DB22DB1092BA000EC078
:100A20008091BA00C82FD0E059DBC554DF4F8883CE
:100A300016DB8091BA008F5F8093BA008091BA0074
:100A4000853070F30CDB8CEF3DDB85E03BDB84E134
:100A500039DB8AE837DB81E035DB01DB1092BA0055
:100A60000EC08091BA00C82FD0E038DBC554DF4FEC
:100A70008883F5DA8091BA008F5F8093BA00809105
:100A8000BA00853070F3EBDA8CEF1CDB85E01ADB03
:100A900084E118DB8AE816DB81E014DBE0DA1092EF
:100AA000BA000EC08091BA00C82FD0E017DBC55441
:100AB000DF4F8883D4DA8091BA008F5F8093BA00C9
:100AC0008091BA00853070F3CADA8CEFFBDA85E0EA
:100AD000F9DA84E1F7DA8AE8F5DA81E0F3DABFDA05
:100AE0001092BA000EC08091BA00C82FD0E0F6DA9A
:100AF000C554DF4F8883B3DA8091BA008F5F80934B
:100B0000BA008091BA00853070F3A9DA8CEFDADA96
:100B100085E0D8DA85E1D6DA83E0D4DA80E1D2DA8A
:100B20009EDA1092BA000EC08091BA00C82FD0E0B1
:100B3000D5DAC554DF4F888392DA8091BA008F5F8F
:100B40008093BA008091BA00853070F388DA8CEF18
:100B5000B9DA85E0B7DA86E1B5DA88E9B3DA82E2B4
:100B6000B1DA7DDA1092BA000EC08091BA00C82FB7
:100B7000D0E0B4DAC554DF4F888371DA8091BA00CF
:100B80008F5F8093BA008091BA00853070F367DA86
:100B90008CEF98DA85E096DA86E194DA88E992DAE1
:100BA00082E290DA5CDA1092BA000EC08091BA004C
:100BB000C82FD0E093DAC554DF4F888350DA809194
:100BC000BA008F5F8093BA008091BA00853070F3CD
:100BD0008091BC008530C9F58091BD008131A9F5B7
:100BE0008091BE00873289F58091BF00863569F516
:100BF00036DA8091B400882339F531DA8091B60075
:100C0000882361F02CDA8CEF5DDA85E05BDA8AE12B
:100C100059DA84EF57DA88EE55DA14C020DA1092E8
:100C2000BA000CC0E091BA00F0E0E554FF4F8081BB
:100C300049DA8091BA008F5F8093BA008091BA0040
:100C4000853080F30CDA0BDA0ADA09DA08DA009375
:100C5000B6009598AA9A03DA02DA99CCF894FFCFF5
:100C6000012E885528504F4C292D31302D535320BB
:100C700049443030332D3035563237372D35312019
:100C800031314A414E3136203344443518FA00257B
:100C90008A611A0101621A0201631A0501641A0AC3
:100CA00001651A140166000000670000006800007A
:040CB000006C1A00BA
:00000001FF
