:1000000012C02CC02BC02AC029C028C027C026C0BF
:1000100025C024C023C022C021C020C01FC01EC0D4
:100020001DC01CC01BC011241FBECFE5D4E0DEBF25
:10003000CDBF10E0A0E6B0E0E6E7F8E002C0059032
:100040000D92AA36B107D9F710E0AAE6B0E001C0D8
:100050001D92A237B107E1F79ED20BC4D1CFB2995E
:1000600004C010926000AD9A089581E08093600012
:10007000AD980895582F80ED97E00197F1F701C0F2
:100080008CB15F99FDCF5D9BFECF5CB95D9BFECFD0
:100090006CB95D9BFECF81E08CB95D9BFECF4CB906
:1000A0005F5F560F540FF90190E007C080815D9BA0
:1000B000FECF8CB9580F9F5F31969617B8F35D9BB2
:1000C000FECF51955CB9089501C08CB15F99FDCF09
:1000D000089590BD89B988E18AB986E880BD089500
:1000E0005D9BFECF8CB908958BB18078089580E038
:1000F0009AEF05C0019719F4AB9880E008955F9BD3
:10010000F9CFAB9A8CB108952F923F924F925F92A4
:100110006F927F928F929F92AF92BF92CF92DF9217
:10012000EF92FF920F931F93DF93CF93CDB7DEB77C
:10013000A1970FB6F894DEBF0FBECDBF5C016F8FE5
:10014000FE0131968EE1DF011D928A95E9F7EE24DA
:10015000E8A3F9A34BE0C42ED12CCC0EDD1E37E072
:10016000232E312C2C0E3D1E26E0422E512C4C0EFF
:100170005D1E98E0692E712C6C0E7D1E88EC882E19
:10018000912C63C0B4DFF80181938F01EC15FD055C
:10019000C9F7FF2406C0ABDF0C0D1D1DD8018C93E1
:1001A000F3940F2D10E08A81282F30E0F101E20F47
:1001B000F31F8081682F70E0CB01820F931F081717
:1001C00019074CF3F201E20FF31F8081813061F5D2
:1001D000F301E20FF31F8081BF8D8B1729F540E0FB
:1001E0006C5F7F4F8E010F5F1F4F0BC0F501EA0F51
:1001F000FB1FA00FB11FA20FB31F15968C91808318
:100200004F5FA42FB0E06A177B0784F784EF91E07B
:1002100028EC30E0F9013197F1F70197D9F701C0E7
:100220008CB15F99FDCF15C084EF91E0F401319757
:10023000F1F70197D9F701C08CB15F99FDCFE39435
:10024000E5E0EE1611F480E005C088A199A18C01CB
:1002500099CF81E0A1960FB6F894DEBF0FBECDBF57
:10026000CF91DF911F910F91FF90EF90DF90CF9092
:10027000BF90AF909F908F907F906F905F904F90C6
:100280003F902F9008950F931F935D9BFECF8CB9E5
:100290005D9BFECF6CB95D9BFECF4CB95D9BFECFE5
:1002A0002CB9860F840F820F20E030E070E00AC086
:1002B000F801E20FF31FE0815D9BFECFECB98E0FDA
:1002C0002F5F3F4F261737079CF35D9BFECF81952D
:1002D0008CB91F910F9108950F931F93DF93CF93C4
:1002E0000F92CDB7DEB781E0898388E261E041E01B
:1002F00024EE8E010F5F1F4FC6DF0F90CF91DF916D
:100300001F910F9108950F931F93DF93CF930F9237
:10031000CDB7DEB7198288E261E041E024EE8E01BC
:100320000F5F1F4FB0DF0F90CF91DF911F910F91A3
:10033000089580916000813021F080916A008823C7
:1003400011F0E1DF01C0C8DF84EF91E028EC30E07C
:10035000F9013197F1F70197D9F708951F93CF93DA
:10036000DF93D1DF969A88EE93E028EC30E0F90134
:100370003197F1F70197D9F79698C5DF10E0C8ECEF
:10038000D0E0C1DF88EE93E0FE013197F1F70197ED
:10039000D9F71F5F1131A9F7B6DF969A88EE93E07F
:1003A00028EC30E0F9013197F1F70197D9F79698E9
:1003B000AADF10E0C8ECD0E0A6DF88EE93E0FE01F3
:1003C0003197F1F70197D9F71F5F1131A9F7DF9145
:1003D000CF911F9108951F93CF93DF9394DF969A47
:1003E00088EE93E028EC30E0F9013197F1F70197BE
:1003F000D9F7969888DF10E0C8ECD0E084DF88EE6B
:1004000093E0FE013197F1F70197D9F71F5F1131A2
:10041000A9F7DF91CF911F9108951F93CF93DF9399
:1004200072DF979A88EE93E028EC30E0F90131977B
:10043000F1F70197D9F7979866DF10E0C8ECD0E0A4
:1004400062DF88EE93E0FE013197F1F70197D9F76B
:100450001F5F1131A9F757DF979A88EE93E028ECD8
:1004600030E0F9013197F1F70197D9F797984BDF11
:1004700010E0C8ECD0E047DF88EE93E0FE01319752
:10048000F1F70197D9F71F5F1131A9F73CDFC09A47
:1004900088EE93E028EC30E0F9013197F1F701970D
:1004A000D9F7C09830DF10E0C8ECD0E02CDF88EE40
:1004B00093E0FE013197F1F70197D9F71F5F1131F2
:1004C000A9F7DF91CF911F9108951F93CF93DF93E9
:1004D0001ADF979A88EE93E028EC30E0F901319723
:1004E000F1F70197D9F797980EDF10E0C8ECD0E04C
:1004F0000ADF88EE93E0FE013197F1F70197D9F713
:100500001F5F1131A9F7DF91CF911F9108951F93BC
:10051000CF93DF93F8DEC09A88EE93E028EC30E0CA
:10052000F9013197F1F70197D9F7C098ECDE10E0A7
:10053000C8ECD0E0E8DE88EE93E0FE013197F1F7F9
:100540000197D9F71F5F1131A9F7DF91CF911F9163
:1005500008951F93CF93DF93D6DEC19A88EE93E080
:1005600028EC30E0F9013197F1F70197D9F7C198FC
:10057000CADE10E0C8ECD0E0C6DE88EE93E0FE01F3
:100580003197F1F70197D9F71F5F1131A9F7DF9183
:10059000CF911F9108952F923F924F925F926F9249
:1005A0007F928F929F92AF92BF92CF92DF92EF9203
:1005B000FF920F931F93DF93CF93CDB7DEB7A7972B
:1005C0000FB6F894DEBF0FBECDBFBA98C29A8D9A0F
:1005D0008E9A8F9AB89AB99AA59AA39A959896984E
:1005E0009798C098C198AD98AB9810BC83E389B92F
:1005F00088E18AB986E880BD80E197E228EC30E0A6
:10060000F9013197F1F70197D9F78FEF8A878B8737
:1006100088E262E041E027EE8E01065F1F4F33DE85
:1006200088EE93E028EC30E0F9013197F1F701977B
:10063000D9F7DE011C96E1E6F0E088E001900D922A
:100640008150E1F788E268E041E027EE8E01045F27
:100650001F4F19DE84EF91E028EC30E0F90131976B
:10066000F1F70197D9F781E0898388E261E041E001
:1006700024EE8E010F5F1F4F06DE8CED95E028EC17
:1006800030E0F9013197F1F70197D9F704E1B4E1CE
:10069000EB2EF12CEC0EFD1EA8E02A2E312C2C0E98
:1006A0003D1EF7E06F2E712C6C0E7D1EE6E04E2E87
:1006B000512C4C0E5D1E75E0872E912C8C0E9D1ECC
:1006C00064E0A62EB12CAC0EBD1E53E0C52ED12C7D
:1006D000CC0EDD1EC4DC2DDE01C08CB15F99FDCFD8
:1006E000F701802F11928A95E9F71A8288E260E07B
:1006F0004FE99E012E5F3F4FBDDCC70168E204DD7C
:10070000882309F4B0C0988D80916B00981709F484
:10071000AAC090936B008A8D813069F4198D1130D5
:1007200051F41B8388E261E04AE99601A3DC10934F
:100730006C0010936A001A8D113069F4898D823033
:1007400051F41C8388E261E04AE9950193DC10933F
:100750006A0010936D001A8D113069F4898D833011
:1007600051F41D8388E261E04AE9940183DC10932F
:100770006A0010936E001A8D113069F4898D8430EF
:1007800051F41E8388E261E04AE9920173DC109320
:100790006A0010936F001A8D113069F4898D8530CD
:1007A00051F41F8388E261E04AE9930163DC10930E
:1007B0006A00109370001A8D113069F4898D8630AB
:1007C00051F4188788E261E04AE9910153DC109303
:1007D000710010936A008A8D813009F044C0898DC0
:1007E000873009F040C0198688E261E04AE99E013D
:1007F000275F3F4F3FDC37C086DD80916C00813042
:1008000029F4A7DE10926A0010926C0080916D00AE
:10081000813029F47CDE10926A0010926D00809184
:100820006E00813029F451DE10926A0010926E0041
:1008300080916F00813029F4F0DD10926A001092EF
:100840006F0080917000813029F4C5DD10926A003C
:100850001092700080917100813029F47FDD109238
:100860006A001092710080916A00882309F432CFE7
:06087000C3CFF894FFCF96
:0A08760001FFFFFFFFFFFFFFFF007F
:00000001FF
