:1000000012C02CC02BC02AC029C028C027C026C0BF
:1000100025C024C023C022C021C020C01FC01EC0D4
:100020001DC01CC01BC011241FBECFE5D4E0DEBF25
:10003000CDBF10E0A0E6B0E0E6EBF0E002C0059036
:100040000D92A236B107D9F710E0A2E6B0E001C0E8
:100050001D92AA36B107E1F702D02BC0D1CFA09AEA
:10006000A89A30E048EC50E00EC0FA013197F1F761
:100070000197D9F72F5F2E3119F088EE93E0F5CF75
:100080003F5F3E3111F020E0F8CFA89820E048EC27
:1000900050E008C0FA013197F1F70197D9F72F5FC7
:1000A0002A3019F088EE93E0F5CFA89A80E090E02E
:0600B0000895F894FFCF53
:0200B600010047
:00000001FF
