:100000000C942A000C9447000C9447000C94470071
:100010000C9447000C9447000C9447000C94470044
:100020000C9447000C9447000C9447000C94470034
:100030000C9447000C9447000C9447000C94470024
:100040000C9447000C9447000C9447000C94470014
:100050000C94470011241FBECFE5D4E0DEBFCDBF16
:1000600011E0A0E6B0E0EAECFFE102C005900D92DD
:10007000AC36B107D9F711E0ACE6B1E001C01D9292
:10008000AA3EB107E1F70E941C0E0C94E30F0C94FA
:100090000000EF92FF920F931F937B018C0120E0F1
:1000A00030E040E05FE40E94490388238CF0C801FF
:1000B000B70120E030E040E05FE40E94C1010E940F
:1000C000A9039B01AC01205030404040504806C07D
:1000D000C801B7010E94A9039B01AC01B901CA0183
:1000E0001F910F91FF90EF900895A0E0B0E0EBE733
:1000F000F0E00C94AC0FDC012B01FA019C919230E2
:1001000008F439C1EB018881823008F433C194309E
:1001100069F4843009F02FC111969C91119789815F
:10012000981709F428C1A0E6B0E025C1843009F48D
:1001300021C18230A9F4923009F01DC19A01AD01AC
:1001400088E0EA010990AE01E90109929E0181501F
:10015000C1F7E201898111969C918923818308C1AD
:10016000923009F407C112962D903C901397EB0141
:100170008A819B811496AD90BD90CD90DC901797AD
:10018000EC80FD800E811F819101281B390BB90184
:1001900037FF04C066277727621B730B6032710537
:1001A0000CF061C0121613066CF537014801062EDB
:1001B00004C096948794779467940A94D2F721E0C8
:1001C00030E040E050E004C0220F331F441F551FB1
:1001D0006A95D2F721503040404050402E213F21B7
:1001E00040235123211531054105510521F021E01E
:1001F00030E040E050E079018A01E628F72808293C
:1002000019293CC0232BD1F1260E371E350146019A
:10021000062E04C096948794779467940A94D2F734
:1002200021E030E040E050E004C0220F331F441FC3
:10023000551F6A95D2F721503040404050402A2146
:100240003B214C215D21211531054105510521F04E
:1002500021E030E040E050E059016A01A628B728CB
:10026000C828D9280BC0821593052CF01C01AA249C
:10027000BB24650103C0EE24FF24870111969C91E5
:10028000D20111968C91981709F445C0992339F041
:10029000A80197012A193B094C095D0906C0A6016E
:1002A00095012E193F09400B510B57FD08C01182D3
:1002B0003382228224833583468357831DC081E0A5
:1002C00081833382228288279927DC01821B930B4A
:1002D000A40BB50B84839583A683B7830DC0220F2F
:1002E000331F441F551F24833583468357838281E0
:1002F000938101979383828324813581468157813D
:10030000DA01C9010197A109B1098F5F9F4FAF4F72
:10031000BF4328F30BC0918333822282EA0CFB1C7B
:100320000C1D1D1DE482F5820683178383E0808304
:10033000248135814681578157FF1AC0C901AA27F8
:1003400097FDA095BA2F81709070A070B0705695EF
:10035000479537952795822B932BA42BB52B848318
:100360009583A683B7838281938101969383828349
:10037000DF0101C0D201CD01CDB7DEB7E2E10C94BF
:10038000C80FA0E2B0E0E7ECF1E00C94B80F69838D
:100390007A838B839C832D833E834F835887E9E048
:1003A000EE2EF12CEC0EFD1ECE010196B7010E943F
:1003B0009A058E010F5E1F4FCE010596B8010E946F
:1003C0009A058A8991E089278A8BC701B801AE0115
:1003D000475E5F4F0E9475000E94C504A096E6E04C
:1003E0000C94D40FA0E2B0E0E8EFF1E00C94B80F69
:1003F00069837A838B839C832D833E834F835887C5
:10040000F9E0EF2EF12CEC0EFD1ECE010196B701A6
:100410000E949A058E010F5E1F4FCE010596B8010E
:100420000E949A05C701B801AE01475E5F4F0E9466
:1004300075000E94C504A096E6E00C94D40FA0E2DB
:10044000B0E0E5E2F2E00C94AC0F69837A838B8331
:100450009C832D833E834F835887CE010196BE0136
:10046000675F7F4F0E949A05CE010596BE016F5EC1
:100470007F4F0E949A059985923088F08989823051
:10048000C8F0943019F4823051F404C0843029F457
:10049000923081F480E690E0C6C0923049F420E0CA
:1004A0009A858A89981321E02A87CE010996BBC0D4
:1004B000823049F420E09A858A89981321E02A8BBA
:1004C000CE014196B0C02D843E844F8458886D88FB
:1004D0007E888F88988CEE24FF248701AA24BB2471
:1004E000650140E050E060E070E0E0E0F0E0C10174
:1004F00081709070892BE9F0E60CF71C081D191D1E
:100500009A01AB012A0D3B1D4C1D5D1D80E090E062
:10051000A0E0B0E0E614F7040805190520F481E036
:1005200090E0A0E0B0E0BA01A901480F591F6A1F8E
:100530007B1FAA0CBB1CCC1CDD1C97FE08C081E0F5
:1005400090E0A0E0B0E0A82AB92ACA2ADB2A3196B6
:10055000E032F10549F0660C771C881C991C569412
:10056000479437942794C3CFFA85EA892B893C892D
:100570008B859C85280F391F2E5F3F4F17C0CA01FE
:1005800081709070892B61F016950795F794E79428
:1005900080E090E0A0E0B0E8E82AF92A0A2B1B2BC3
:1005A00076956795579547952F5F3F4F77FDE7CF36
:1005B0000CC0440F551F661F771F17FD4160EE0CDE
:1005C000FF1C001F111F21503040403090E05907A0
:1005D00090E0690790E4790760F32B8F3C8FDB0193
:1005E000CA018F779070A070B07080349105A1051A
:1005F000B10561F447FD0AC0E114F10401051105DC
:1006000029F0405C5F4F6F4F7F4F40781A8EFE1786
:1006100011F081E08A8F4D8F5E8F6F8F78A383E01A
:10062000898FCE0149960E94C504A096E2E10C9400
:10063000C80FA8E1B0E0EFE1F3E00C94B80F6983D4
:100640007A838B839C832D833E834F83588789E0F5
:10065000E82EF12CEC0EFD1ECE010196B7010E9492
:100660009A058E010F5E1F4FCE010596B8010E94BC
:100670009A058985823040F08989823028F0C70147
:10068000B8010E94120601C08FEF6896E6E00C9454
:10069000D40FA8E1B0E0EFE4F3E00C94B80F698365
:1006A0007A838B839C832D833E834F83588789E095
:1006B000E82EF12CEC0EFD1ECE010196B7010E9432
:1006C0009A058E010F5E1F4FCE010596B8010E945C
:1006D0009A058985823040F08989823028F0C701E7
:1006E000B8010E94120601C08FEF6896E6E00C94F4
:1006F000D40FA8E1B0E0EFE7F3E00C94B80F698302
:100700007A838B839C832D833E834F83588789E034
:10071000E82EF12CEC0EFD1ECE010196B7010E94D1
:100720009A058E010F5E1F4FCE010596B8010E94FB
:100730009A058985823040F08989823028F0C70186
:10074000B8010E94120601C081E06896E6E00C94B0
:10075000D40FACE0B0E0EFEAF3E00C94BC0F698397
:100760007A838B839C83CE010196BE016B5F7F4FA2
:100770000E949A058D81823061F1823050F184307F
:1007800021F48E81882351F12EC02F81388537FDC9
:1007900020C06E812F3131051CF06623F9F023C093
:1007A0008EE190E0821B930B29853A854B855C8511
:1007B00004C056954795379527958A95D2F76623B5
:1007C000B1F050954095309521953F4F4F4F5F4F79
:1007D0000EC020E030E040E050E009C02FEF3FEFD6
:1007E0004FEF5FE704C020E030E040E050E8B9019F
:1007F000CA012C96E2E00C94D80FA8E0B0E0E3E048
:10080000F4E00C94B40F7B018C0161157105810536
:10081000910519F482E0898360C083E089838EE1C9
:10082000C82ED12CDC82CB82ED82FE820F8318870A
:10083000C801B7010E947604FC013197F7FF3BC065
:10084000222733272E1B3F0B57016801022E04C0BD
:10085000D694C794B794A7940A94D2F740E050E096
:1008600060E070E081E090E0A0E0B0E004C0880FBC
:10087000991FAA1FBB1F2A95D2F70197A109B10999
:100880008E219F21A023B1230097A105B10521F05E
:1008900041E050E060E070E04A295B296C297D2945
:1008A0004D835E836F8378878EE190E08E1B9F0B74
:1008B0009C838B8312C0309781F00E2E04C0EE0C07
:1008C000FF1C001F111F0A94D2F7ED82FE820F83D6
:1008D0001887CE1ADF0ADC82CB821A82CE010196FB
:1008E0000E94C5042896EAE00C94D00FEF92FF9284
:1008F0000F931F937B018C0180E0E81680E0F806DF
:1009000081E0080780E0180788F48FEFE816F1040B
:100910000105110531F028F088E090E0A0E0B0E09A
:1009200017C080E090E0A0E0B0E012C080E0E816E0
:1009300080E0F80680E0080781E0180728F088E1E9
:1009400090E0A0E0B0E004C080E190E0A0E0B0E082
:1009500020E230E040E050E0281B390B4A0B5B0BF3
:1009600004C016950795F794E7948A95D2F7F70196
:10097000E859FF4F8081281B310941095109C901FC
:100980001F910F91FF90EF900895DF92EF92FF92E9
:100990000F931F93FC01E480F58006811781D180BD
:1009A0008081823048F480E090E0A0E1B0E0E82A65
:1009B000F92A0A2B1B2BA5C0843009F49FC0823072
:1009C00021F4EE24FF24870105C0E114F1040105A0
:1009D000110519F4E0E0F0E096C0628173819FEFA9
:1009E000623879070CF05BC022E83FEF261B370B1B
:1009F0002A3131052CF020E030E040E050E02AC000
:100A0000B801A701022E04C07695679557954795C2
:100A10000A94D2F781E090E0A0E0B0E004C0880F33
:100A2000991FAA1FBB1F2A95D2F70197A109B109E7
:100A30008E219F21A023B1230097A105B10521F0AC
:100A400081E090E0A0E0B0E09A01AB01282B392BC7
:100A50004A2B5B2BDA01C9018F779070A070B070C0
:100A600080349105A105B10539F427FF09C0205C48
:100A70003F4F4F4F5F4F04C0215C3F4F4F4F5F4F81
:100A8000E0E0F0E02030A0E03A07A0E04A07A0E470
:100A90005A0710F0E1E0F0E079018A0127C06038E0
:100AA000710564F5FB01E158FF4FD801C7018F774D
:100AB0009070A070B07080349105A105B10539F433
:100AC000E7FE0DC080E490E0A0E0B0E004C08FE35A
:100AD00090E0A0E0B0E0E80EF91E0A1F1B1F17FF10
:100AE00005C016950795F794E794319687E016951B
:100AF0000795F794E7948A95D1F705C0EE24FF2473
:100B00008701EFEFF0E06E2F679566276795902FCE
:100B10009F77D794DD24D7948E2F8695492F462B27
:100B2000582F5D29B701CA011F910F91FF90EF90D7
:100B3000DF900895FC01DB01408151812281622F09
:100B40006F7770E0221F2227221F9381892F880F41
:100B5000822B282F30E0991F9927991F11969C937B
:100B6000119721153105A9F541155105610571054B
:100B700011F482E037C082E89FEF13969C938E9326
:100B800012979A01AB0167E0220F331F441F551FD4
:100B90006A95D1F783E08C930DC0220F331F441F59
:100BA000551F12968D919C911397019713969C93C4
:100BB0008E931297203080E0380780E0480780E469
:100BC000580758F314962D933D934D935C931797C4
:100BD00008952F3F310579F44115510561057105DF
:100BE00019F484E08C93089564FF03C081E08C9332
:100BF00012C01C9210C02F57304013963C932E9376
:100C0000129783E08C9387E0440F551F661F771F70
:100C10008A95D1F7706414964D935D936D937C9390
:100C2000179708951F93DC01FB019C91923008F403
:100C300047C08081823008F443C0943051F411964B
:100C40001C91843099F58181682F70E0611B7109D6
:100C50003FC0843021F0923031F48230B9F181818B
:100C6000882389F12DC011961C9111978230F1F0E3
:100C700081811817D9F412962D913C911397828196
:100C800093818217930794F028173907BCF01496C4
:100C90008D919D910D90BC91A02D2481358146812F
:100CA0005781281739074A075B0718F4112341F0C9
:100CB0000AC082179307A407B50740F4112319F05F
:100CC00061E070E005C06FEF7FEF02C060E070E0B0
:100CD000CB011F9108958091D001882309F40EC1A2
:100CE000C9994DC080916A01882309F448C080EAFF
:100CF0009FE00197F1F7C99942C010926A0181E023
:100D000090E09093BE018093BD018091BF019091CE
:100D1000C00101969093C0018093BF018091BF01F3
:100D20009091C0018436910550F120E030E019C067
:100D3000F901EF57FE4F8081882389F48091D40117
:100D400080838091BF019091C00184569040909320
:100D5000C0018093BF018091DB01282F30E02F5F1D
:100D60003F4F8091DB0190E0281739070CF3109278
:100D70006A0181E090E09093BE018093BD01C99B20
:100D8000BDC08091BD019091BE01892B49F0809139
:100D9000BD019091BE0101969093BE018093BD016B
:100DA0002091BD013091BE018091E2019091E3015B
:100DB0002817390709F09FC020E030E084C0F9010E
:100DC000EF57FE4F80818823A1F480917F0190919D
:100DD0008001C29770F08091760180838091BF017D
:100DE0009091C001C2979093C0018093BF012F5F83
:100DF0003F4FF901EF57FE4F80818823A1F4809186
:100E0000BF019091C001499770F08091C401808327
:100E10008091BF019091C00149979093C001809348
:100E2000BF012F5F3F4FF901EF57FE4F80818823AD
:100E3000A1F48091BF019091C0010A9770F0809158
:100E4000C30180838091BF019091C0010A97909364
:100E5000C0018093BF012F5F3F4FF901EF57FE4F55
:100E600080818823A1F48091BF019091C0010597F2
:100E700070F08091740180838091BF019091C001D6
:100E800005979093C0018093BF012F5F3F4FF901F9
:100E9000EF57FE4F80818823A1F48091BF0190918C
:100EA000C001892B71F08091CD0180838091BF01B9
:100EB0009091C00101979093C0018093BF012F5F73
:100EC0003F4F2F5F3F4F8091DB0190E0281739079C
:100ED0000CF475CF8091BF019091C001892B29F44A
:100EE0001092BE011092BD0106C081E090E0909387
:100EF000BE018093BD0181E080936A0108958091D5
:100F0000D001882309F441C1CC997CC0809169014A
:100F1000882309F477C080EA9FE00197F1F7CC9924
:100F200071C01092D50181E08093DC0190E006C091
:100F3000E92FF0E0EF57FE4F10829F5F8091DB01B9
:100F40009817B0F3809168018130D1F420E030E04F
:100F50000FC0F901EF57FE4F8081882339F480914B
:100F6000D10180838091DB01282F30E02F5F3F4F3C
:100F70008091DB0190E0281739075CF3109268013B
:100F80001092690181E090E09093C2018093C101C9
:100F900080917F01909180010196909380018093D0
:100FA0007F0180917F01909180018436910550F1FD
:100FB00020E030E019C0F901EF57FE4F808188230F
:100FC00089F48091B201808380917F0190918001AA
:100FD000845690409093800180937F018091DB0143
:100FE000282F30E02F5F3F4F8091DB0190E02817E2
:100FF00039070CF31092690181E090E09093C201EF
:101000008093C101CC9BC1C08091C1019091C2016C
:10101000892B49F08091C1019091C2010196909372
:10102000C2018093C1012091C1013091C201809120
:10103000E2019091E3012817390709F0A3C081E08C
:1010400080936801C59820E030E084C0F901EF5733
:10105000FE4F80818823A1F480917F0190918001CF
:10106000C29770F08091B401808380917F0190914C
:101070008001C2979093800180937F012F5F3F4F43
:10108000F901EF57FE4F80818823A1F480917F0101
:1010900090918001449770F08091C8018083809185
:1010A0007F019091800144979093800180937F010C
:1010B0002F5F3F4FF901EF57FE4F80818823A1F446
:1010C00080917F01909180010A9770F08091B60124
:1010D000808380917F01909180010A979093800195
:1010E00080937F012F5F3F4FF901EF57FE4F8081C3
:1010F0008823A1F480917F0190918001059770F081
:101100008091BC01808380917F019091800105973F
:101110009093800180937F012F5F3F4FF901EF573C
:10112000FE4F80818823A1F480917F0190918001FE
:10113000892B71F08091B801808380917F0190911B
:10114000800101979093800180937F012F5F3F4F33
:101150002F5F3F4F8091DB0190E0281739070CF497
:1011600075CF80917F0190918001892B29F4109295
:10117000C2011092C10106C081E090E09093C201CB
:101180008093C10181E0809369010895CA9909C0E3
:101190008091B001882329F0A89881E080937301A1
:1011A00005C09C9902C0A89A01C0A898CA9B1FC0FC
:1011B000809173018823D9F010927301979A20E0EF
:1011C00030E00FC0F901EF57FE4F8081882339F4DA
:1011D0008091D80180838091DB01282F30E02F5F40
:1011E0003F4F8091DB0190E0281739075CF30895A9
:1011F000CA9909C08091B001882329F0A99881E09B
:101200008093730105C09D9902C0A99A01C0A99855
:10121000CA9B1FC0809173018823D9F0109273017B
:10122000979A20E030E00FC0F901EF57FE4F808120
:10123000882339F48091D80180838091DB01282FA5
:1012400030E02F5F3F4F8091DB0190E02817390796
:101250005CF308959091DA018091D601981729F4F2
:1012600081E08093D5011092DA019091DA018091AA
:10127000D301981721F41092D5011092DA018091D0
:10128000D501882351F19F9925C080EA9FE00197FD
:10129000F1F79F9923C08091E5018823F9F481E05B
:1012A0008093E50120E030E042E10DC0F901EF5705
:1012B000FE4F8081882329F440838091DB01282F11
:1012C00030E02F5F3F4F8091DB0190E02817390716
:1012D0006CF308951092E5010895AB9808951F935B
:1012E000CF93DF939091DA018091D7019817A9F4F9
:1012F0001092DA011092CF011092CE01AA9A10E05A
:10130000C0EADFE00E946B060E947F07CE010197D2
:10131000F1F71F5F1B34B1F7AA98DF91CF911F91AE
:101320000895CD991EC08091C7018823D1F01092F5
:10133000C70120E030E048E00DC0F901EF57FE4F53
:101340008081882329F440838091DB01282F30E0BD
:101350002F5F3F4F8091DB0190E0281739076CF336
:101360000895CD9B03C081E08093C7010895809BC1
:1013700004C0B09902C082990CC0809904C0B09B8F
:1013800002C0829B06C0809B2DC0B09B2BC082995F
:1013900029C01092790110927A0110927B0110926B
:1013A0007C011092D2018091B5018823D9F480EAA2
:1013B0009FE00197F1F7809B04C0B09902C0829929
:1013C0000CC0809904C0B09B02C0829B06C0809B69
:1013D00009C0B09B07C0829905C081E08093B50128
:1013E0001092BB018091D201882371F1D89A80912B
:1013F000790190917A01A0917B01B0917C010196D5
:10140000A11DB11D8093790190937A01A0937B0176
:10141000B0937C018091790190917A01A0917B0138
:10142000B0917C01805E9242A240B04070F0109278
:10143000B5011092790110927A0110927B011092FD
:101440007C011092D20101C0D898809B14C0B09B3F
:1014500012C0829B10C02091B501213061F480EA56
:101460009FE00197F1F7809B06C0B09B04C0829B70
:1014700002C02093D2018091B501882331F580917B
:10148000BB01882311F581E08093BB0110927901A3
:1014900010927A0110927B0110927C0120E030E0E2
:1014A00042E10DC0F901EF57FE4F8081882329F4F6
:1014B00040838091DB01282F30E02F5F3F4F8091E8
:1014C000DB0190E0281739076CF308950E94C608E5
:1014D0000E94F8080E942A090E947F070E946B065A
:1014E0000E946F090E9491090E94B709089588E837
:1014F00093E120E931E0F9013197F1F70197D9F74C
:10150000A498A598A698A798D598D4988898B8989C
:101510008A98D298B998D398D198DB9AAC9AAD9A18
:10152000AE9AAF9ADD9ADC9A909AC09A929AC19A32
:10153000DA9AD99AD09AA09AA19AA39AA29ABD9A15
:10154000BC9ABA9A8F9ABB9AA898A998AB98AA986D
:10155000C598C498C29A9798C398D89888E893E198
:1015600020E931E0F9013197F1F70197D9F70895B2
:10157000CB994CC08091C601882309F447C080E212
:101580009EE40197F1F7CB9941C01092C60181E02A
:101590008093D001C49AC59A20E931E00CC080E163
:1015A00097E2F9013197F1F70197D9F78091AF01EF
:1015B00081508093AF018091AF01882381F780E251
:1015C0009EE420E931E0F9013197F1F70197D9F76D
:1015D00020E030E046E00DC0F901EF57FE4F80817A
:1015E000882329F440838091DB01282F30E02F5F8E
:1015F0003F4F8091DB0190E0281739076CF3109280
:10160000DA011092C90181E08093AE0108958091C2
:10161000DA01833009F03DC081E08093D001C49AA3
:10162000C59A40E951E076E061E02FC080E197E2A1
:10163000FA013197F1F70197D9F78091AF01815005
:101640008093AF0180E29EE4FA013197F1F70197B0
:10165000D9F720E030E00DC0F901EF57FE4F80814F
:10166000882329F470838091DB01282F30E02F5FDD
:101670003F4F8091DB0190E0281739076CF31092FF
:10168000DA011092C9016093AE018091AF01882305
:1016900069F608958091D001882309F456C080919D
:1016A000CA019091CB0183709070892B49F480918D
:1016B000770190917801019690937801809377015A
:1016C0008091CA019091CB0101969093CB018093B8
:1016D000CA01809177019091780180549C4958F01B
:1016E0008091DC01813039F4C59810927801109214
:1016F000770180937D019E9910C080917701909130
:101700007801895E934048F080917D01813029F411
:10171000C59A10927801109277019E9916C0809117
:10172000DC01882391F480EE9EE20197F1F79E9907
:101730000CC08091DC01882341F4C5981092780197
:101740001092770181E08093DC010895DF93CF93BD
:10175000CDB7DEB760970FB6F894DEBF0FBECDBF32
:10176000682FC398FE01319620E830E041E050E058
:10177000A1E0B0E0862F90E08217930724F0B183B8
:10178000A083621B02C011821082359527954F5F9E
:101790005F4F32964930510569F7B19929C0C29817
:1017A00081E080937E0180EA91E00197F1F7FE01EC
:1017B0003F9640EA51E09E01215030408081918166
:1017C000019711F4C29A01C0C298CA010197F1F7BA
:1017D0003297E217F30791F7C29A80EE9EE20197E3
:1017E000F1F7B19B05C0C29AC39A21E030E002C074
:1017F00020E030E0C90160960FB6F894DEBF0FBE5E
:10180000CDBFCF91DF9108950F931F93CF93DF93B7
:101810000E94C6080E94F8080E946B060E947F077B
:10182000B19943C088E99FE00197F1F7B1993DC0B4
:10183000C39810E0C8E9DFE0CE010197F1F70E94FC
:10184000C6080E94F8081F5F1531B1F700E048E0B4
:1018500050E020E030E060E27EE4B199040FCB017B
:101860000197F1F7559547952F5F3F4F243031058C
:10187000A1F70E94C6080E94F80810E048E050E076
:1018800020E030E060E27EE4B199140FCB010197D3
:10189000F1F7559547952F5F3F4F24303105A1F75C
:1018A0000E94C6080E94F80802C000E010E00E94F2
:1018B0006B060E947F07011711F000E010C00023A3
:1018C00071F0C39A10E0C8E9DFE0CE010197F1F7AB
:1018D0000E94C6080E94F8081F5F1431B1F7802FDC
:1018E000DF91CF911F910F9108951F93C39A11E03B
:1018F0003CC00E94040C8093DA018091DA018530AB
:1019000011F41093C5018091DA01843021F4109311
:10191000E9011093C9018091DA01873011F4109325
:10192000B0018091C501813041F48091E90181309D
:1019300021F48091E8018093B3018091C501813049
:1019400041F48091E901882321F48091DE018093A4
:10195000B3018091C501882341F48091E901813070
:1019600021F48091E8018093B3018091DA018930FC
:1019700009F0BFCF81E08093DD011092DA011F9161
:101980000895AF92BF92CF92DF92EF92FF920F93A2
:101990001F93CF93DF93CD995CC08091D0018823B2
:1019A00009F443C056C06091750170E080E090E09A
:1019B0000E94FD035B016C0120E030E04AE755E442
:1019C0000E941F027B018C0120E030E040E85FE3D1
:1019D0000E94790388231CF461E070E022C0C801F2
:1019E000B70120E03FEF4FE757E40E9419031816B4
:1019F000A4F4C601B50120E030E040E251E40E94C9
:101A00001F020E94490005C0CE010197F1F7615005
:101A1000704061157105C1F70AC0C801B7010E9485
:101A20004900CB010197F1F702C0C0E9D1E08091F4
:101A3000CC010E94A60B892B09F4B5CF04C00E94EB
:101A4000040C8093DA018091DA018823C1F30E94AB
:101A5000750CDF91CF911F910F91FF90EF90DF9068
:101A6000CF90BF90AF90089588E28093DB0120E093
:101A700030E006C0F901EF57FE4F10822F5F3F4F55
:101A80008091DB0190E028173907A4F321E020932F
:101A9000B7013DE03093D8018EE08093CC0187E020
:101AA0008093E80183E08093D10196E09093DE017A
:101AB0008BE08093D7014CE04093D3013093D60163
:101AC0009093DE018093E4011092800110927F01D7
:101AD00080E197E29093E3018093E20180E69AEE41
:101AE0009093E7018093E6011092780110927701BC
:101AF0001092E9011092C5011092B0012093C90122
:101B00001092AE012093AF011092E1011092E0011A
:101B10002093DF011092D0011092B30134E1309391
:101B200075011092DA012093C70110927D01109285
:101B3000DD011092CF011092CE0180EA9FE09093D8
:101B4000BA018093B9011092730188EE93E09093EB
:101B5000CB018093CA012093C6012093B10110925A
:101B6000DC011092C2011092C10110927E0110920C
:101B7000E5011092BE011092BD011092C0011092B9
:101B8000BF011092B5012093BB0110927901109210
:101B90007A0110927B0110927C011092D201109276
:101BA000D9012093B80182E08093BC013093B60143
:101BB00084E08093C80185E08093B40189E080933C
:101BC000B2018AE08093CD01409374018FE080934D
:101BD000C30180E18093C40183E18093760185E1B4
:101BE0008093D4010E94750C0E94C10C88EE93E092
:101BF00020E931E0F9013197F1F70197D9F708951C
:101C00001F93CF93DF938091DA01873089F410928C
:101C1000DA01AB9A10E0C0EADFE00E946B060E9496
:101C20007F07CE010197F1F71F5F1D37B1F7AB9822
:101C3000DF91CF911F9108950E94770A0E94340D81
:101C40008091B7018823A1F08091DB01282F30E03B
:101C5000F901EF57FE4F8081882331F08081809316
:101C6000B30110822FEF3FEF2150304037FFF0CF0C
:101C70008091B301882361F08091B3010E94A60B8B
:101C80008093B7018091B701813011F41092B301B4
:101C90000E94040C8093DA018091C901882311F01D
:101CA0000E94A30F8091AE01882339F00E94660A3A
:101CB0000E944A0B0E94000E06C08091C501882335
:101CC00011F00E94660A0E94070B0E94B80AB8CF62
:101CD0008091B001882309F450C0CA9B44C0809110
:101CE0007101882379F49C990DC080E49FE10197EC
:101CF000F1F780917101882329F49C9903C081E058
:101D00008093710180917101882369F09C9B0BC0C5
:101D100080916C0190916D01059690936D01809377
:101D20006C011092710180917201882309F449C0FD
:101D300020E030E00FC0F901EF57FE4F808188238B
:101D400039F48091D80180838091DB01282F30E025
:101D50002F5F3F4F8091DB0190E0281739075CF33C
:101D600010927201089580E49FE10197F1F7CA99FA
:101D700028C081E0809372010895809171018823C9
:101D800079F49C990DC080E49FE10197F1F780916F
:101D90007101882329F49C9903C081E0809371012B
:101DA00080917101882369F09C9B0BC080916C012C
:101DB00090916D01059690936D0180936C01109246
:101DC000710108958091B001882309F450C0CA9B25
:101DD00044C080916F01882379F49D990DC080E4FF
:101DE0009FE10197F1F780916F01882329F49D9974
:101DF00003C081E080936F0180916F01882369F0B7
:101E00009D9B0BC080916C0190916D010A969093FF
:101E10006D0180936C0110926F0180917001882395
:101E200009F440C020E030E00FC0F901EF57FE4F49
:101E30008081882339F48091D80180838091DB01EF
:101E4000282F30E02F5F3F4F8091DB0190E0281773
:101E500039075CF310927001089580E49FE10197C7
:101E6000F1F7CA991FC081E08093700108958091B5
:101E70006F01882379F49D990DC080E49FE101975B
:101E8000F1F780916F01882329F49D9903C081E0C7
:101E900080936F0180916F01882321F09D9B02C088
:101EA00010926F01089580916C0190916D01892BC2
:101EB00009F440C020E030E00FC0F901EF57FE4FB9
:101EC0008081882339F48091E40180838091DB0153
:101ED000282F30E02F5F3F4F8091DB0190E02817E3
:101EE00039075CF380916C0190916D010597909397
:101EF0006D0180936C0180916E018823D9F420E0FC
:101F000030E00FC0F901EF57FE4F8081882339F48C
:101F10008091D10180838091DB01282F30E02F5FF9
:101F20003F4F8091DB0190E0281739075CF381E097
:101F300080936E0180916C0190916D01892B11F459
:101F400010926E0108950E94680E0E94E20E0E9497
:101F5000530F0E94910908952F923F924F925F92E2
:101F60006F927F928F929F92AF92BF92CF92DF92A9
:101F7000EF92FF920F931F93CF93DF93CDB7DEB70E
:101F8000CA1BDB0B0FB6F894DEBF0FBECDBF0994A2
:101F90002A88398848885F846E847D848C849B84F9
:101FA000AA84B984C884DF80EE80FD800C811B8107
:101FB000AA81B981CE0FD11D0FB6F894DEBF0FBE36
:0A1FC000CDBFED010895F894FFCFA6
:101FCA0000000000000000000001020203030303F6
:101FDA0004040404040404040505050505050505AF
:101FEA00050505050505050506060606060606068F
:101FFA000606060606060606060606060606060677
:10200A00060606060606060607070707070707075E
:10201A000707070707070707070707070707070746
:10202A000707070707070707070707070707070736
:10203A000707070707070707070707070707070726
:10204A00070707070707070708080808080808080E
:10205A0008080808080808080808080808080808F6
:10206A0008080808080808080808080808080808E6
:10207A0008080808080808080808080808080808D6
:10208A0008080808080808080808080808080808C6
:10209A0008080808080808080808080808080808B6
:1020AA0008080808080808080808080808080808A6
:1020BA000808080808080808080808080808080896
:0C20CA00080808080808080801010100C7
:00000001FF
