:1000000012C02CC02BC02AC029C028C027C026C0BF
:1000100025C024C023C022C021C020C01FC01EC0D4
:100020001DC01CC01BC011241FBECFE5D4E0DEBF25
:10003000CDBF11E0A0E6B0E0EAEAFCE102C0059025
:100040000D92AC39B107D9F712E0ACE9B1E001C0CB
:100050001D92A434B107E1F772D225CED1CF80FF33
:1000600002C0AB9A01C0AB9881FF02C0AA9A01C03E
:10007000AA9882FF02C0AD9A01C0AD9883FF02C06A
:10008000AC9A0895AC9808951F93182FA99A829559
:100090008F70E5DFA998A99A812FE1DFA99885E8FB
:1000A0008A95F1F71F910895A898EEDF0895A89A10
:1000B000EBDF0895CF93DF93EC0102C02196F7DFC9
:1000C00088818823D9F7DF91CF9108956295660FD3
:1000D000660F607C680F862F8068E6DF089581E0F8
:1000E000E3DF80EA9FE00197F1F7089582E0DCDF2B
:1000F00080EA9FE00197F1F708951F93CF93DF9374
:10010000A39AA29AA59AA49AA19AA09A80E395E7A5
:100110000197F1F7A898A99810E0C0E1D7E2A99A51
:1001200083E09DDFA998CE010197F1F71F5F13309F
:10013000B1F7A99A82E093DFA99880ED97E0019743
:10014000F1F788E2B1DF88E0AFDF81E0ADDF80EA80
:100150009FE00197F1F786E0A7DF8CE0A5DFDF9154
:10016000CF911F91089590BD89B988E18AB984EA39
:1001700080BD08955D9BFECF8CB908958BB18078CA
:1001800008955F9BFECF8CB108950F931F935D9BE5
:10019000FECF8CB95D9BFECF6CB95D9BFECF4CB999
:1001A0005D9BFECF2CB980E090E070E06450704021
:1001B00008C0F801E80FF91FE0815D9BFECFECB9A4
:1001C000019686179707ACF31F910F9108958F92B0
:1001D000AF92CF92EF920F93DF93CF93CDB7DEB76D
:1001E0005D9BFECF8CB95D9BFECF6CB95D9BFECF56
:1001F0004CB95D9BFECF2CB95D9BFECF0CB95D9BCE
:10020000FECFECB85D9BFECFCCB85D9BFECFACB80B
:100210005D9BFECF8CB85D9BFECF8A858CB95D9BC4
:10022000FECF8B858CB95D9BFECF8C858CB95D9B99
:10023000FECF8D858CB95D9BFECF8E858CB95D9B85
:10024000FECF8F858CB95D9BFECF88898CB95D9B75
:10025000FECF89898CB95D9BFECF8A898CB95D9B65
:10026000FECF8B898CB95D9BFECF8C898CB95D9B51
:10027000FECF8D898CB95D9BFECF8E898CB95D9B3D
:10028000FECF8F898CB95D9BFECF888D8CB95D9B2D
:10029000FECF898D8CB95D9BFECF8A8D8CB95D9B1D
:1002A000FECF8B8D8CB95D9BFECF8C8D8CB95D9B09
:1002B000FECF8D8D8CB95D9BFECF8E8D8CB9CF918D
:1002C000DF910F91EF90CF90AF908F900895AB9802
:1002D000EEECF0E03197F1F720E030E040E050E064
:1002E000682F70E0EEECF0E0CB01022E02C0959595
:1002F00087950A94E2F780FF07C0AB9ACF01019778
:10030000F1F74F5F5F4F04C0AB98CF010197F1F752
:100310002F5F3F4F2730310539F740FD02C0AB98C2
:1003200001C0AB9A8EEC90E00197F1F7AB9A8EEC9E
:1003300090E00197F1F70895CF92DF92EF92FF924C
:100340000F931F93CF93DF93C82EF62EE42ED22E59
:10035000BEDF8F2DBCDF8E2DBADF8D2DB8DFCF0C29
:10036000CE0CCD0CE80100E010E0EF2CFF2406C01D
:100370008881ADDF8991C80E0F5F1F4F0E151F05D5
:10038000BCF38C2D8195A3DFDF91CF911F910F914D
:10039000FF90EF90DF90CF90089524EF3FEF45E07E
:1003A0000EC02B30310558F49A9B09C08091C401CE
:1003B0009091C50101969093C5018093C401C90134
:1003C0000C970A9758F49A9B09C08091C6019091A6
:1003D000C70101969093C7018093C601C901479751
:1003E0000A9758F49A9B09C08091C8019091C9015D
:1003F00001969093C9018093C801C90182970A9719
:1004000058F49A9B09C08091CA019091CB01019642
:100410009093CB018093CA01C9018D970A9758F434
:100420009A9B09C08091CC019091CD010196909347
:10043000CD018093CC01C901C8970A9758F49A9BC3
:1004400009C08091CE019091CF0101969093CF0188
:100450008093CE01C901835490400A9758F49A9B27
:1004600009C08091D0019091D10101969093D10162
:100470008093D001842F8A95F1F72F5F3F4F2B3562
:10048000310509F08ECF8091C4019091C50120E023
:1004900030E0069710F021E030E08091C6019091A5
:1004A000C701069710F02E5F3F4F8091C8019091D1
:1004B000C901069710F02C5F3F4F8091CA019091BF
:1004C000CB01069710F0285F3F4F8091CC019091AF
:1004D000CD01069710F0205F3F4F8091CE019091A3
:1004E000CF01069710F0205E3F4F8091D001909190
:1004F000D101069710F0205C3F4F1092C501109279
:10050000C4011092C7011092C6011092C901109245
:10051000C8011092CB011092CA011092CD01109225
:10052000CC011092CF011092CE011092D101109205
:10053000D0011092D3011092D201C90108952F92D7
:100540003F924F925F926F927F928F92AF92CF9233
:10055000EF920F931F93DF93CF93CDB7DEB7C457BE
:10056000D1400FB6F894DEBF0FBECDBFA298AA9AB5
:10057000A39AAB9ABD98C59A10BC83E389B988E168
:100580008AB984EA80BD80E29EE428EC30E0F9017B
:100590003197F1F70197D9F782E099DE88E097DE8D
:1005A00081E695DE8FE793DE8FE791DE8FE78FDEC2
:1005B00083E08DDE86E18BDE84ED98E028EC30E090
:1005C000F9013197F1F70197D9F782E080DE88E0F1
:1005D0007EDE80E17CDE80E07ADE8CE178DE84E025
:1005E00076DE83E074DE80E072DE88EE9CE128EC4B
:1005F00030E0F9013197F1F70197D9F782E067DE32
:1006000088E065DE81E163DE80E061DE8CE15FDE53
:1006100084E05DDE83E05BDE81E059DE84ED98E01E
:1006200028EC30E0F9013197F1F70197D9F782E032
:100630004EDE88E04CDE80E14ADE80E048DE8CE180
:1006400046DE84E044DE83E042DE80E040DE84ED8E
:1006500098E028EC30E0F9013197F1F70197D9F7EC
:1006600082E035DE88E033DE81E131DE80E02FDEBE
:100670008CE12DDE84E02BDE83E029DE81E027DEC5
:1006800084ED98E028EC30E0F9013197F1F701971B
:10069000D9F782E01CDE88E01ADE80E118DE80E017
:1006A00016DE8CE114DE84E012DE83E010DE80E0F2
:1006B0000EDE84ED98E028EC30E0F9013197F1F797
:1006C0000197D9F782E003DE88E001DE81E1FFDDFA
:1006D00080E0FDDD8CE1FBDD84E0F9DD83E0F7DD2A
:1006E00081E0F5DD84ED98E028EC30E0F901319708
:1006F000F1F70197D9F782E0EADD88E0E8DD80E1F3
:10070000E6DD8FE7E4DD8CE1E2DD84E0E0DD83E03F
:10071000DEDD8FE7DCDD84ED98E028EC30E0F901E8
:100720003197F1F70197D9F782E0D1DD88E0CFDD8D
:1007300081E1CDDD8FE7CBDD8CE1C9DD84E0C7DD74
:1007400083E0C5DD8EE7C3DD84ED98E028EC30E082
:10075000F9013197F1F70197D9F782E0B8DD81E12E
:10076000B6DD80E7B4DD88E0B2DD8FE7B0DD8CE593
:10077000AEDD84E0ACDD80E0AADD80E0A8DD80E0D5
:10078000A6DD80E0A4DD80E0A2DD8EE0A0DD86E5D0
:100790009EDD8AE19CDD83E09ADD8CE098DD84EDCE
:1007A00098E028EC30E0F9013197F1F70197D9F79B
:1007B00099E1492E91E0592E4C0E5D1E8FEF282EA7
:1007C000312C2C0E3D1E04E5602E01E0702E6C0EC7
:1007D0007D1EB59915C080ED97E00197F1F7B599A9
:1007E0000FC08091EE019091EF0101969093EF017F
:1007F0008093EE0181E090E09093E3018093E20129
:100800008091DA019091DB01892BD1F4B5990CC06C
:1008100080EA9FE00197F1F7B59906C081E090E08A
:100820009093E3018093E2018091E2019091E301D2
:10083000892B31F081E090E09093DB018093DA0125
:10084000E091A201F091A3015F9BFECF8CB190E0FB
:10085000EE0FFF1FE65EFD4F918380838091DA01EA
:100860009091DB01892B09F4F7C5E091A201F09189
:10087000A301EE0FFF1FE65EFD4F80819181893657
:10088000910539F58091E0019091E101459708F1DA
:1008900080E797E1FC013197F1F70197F1F7DE016D
:1008A0001196E5E9F1E087E001900D928150E1F7C2
:1008B00082E06BE040E222E08E010F5F1F4F65DCBB
:1008C0008091E0019091E10101969093E101809384
:1008D000E001E091A201F091A301EE0FFF1FE65E9F
:1008E000FD4F808191818836910509F0DFC18091AB
:1008F000E0019091E101459708F4D8C180E797E1C4
:10090000FC013197F1F70197F1F78091E0019091A7
:10091000E101499739F08091E0019091E1014A9716
:1009200009F0AAC18091E2019091E301019709F0D9
:1009300071C05D9BFECF82E08CB95D9BFECF8EE1E6
:100940008CB95D9BFECF80E78CB95D9BFECF82E0CA
:100950008CB95D9BFECF81E18CB95D9BFECF80E1C0
:100960008CB95D9BFECF1CB85D9BFECF1CB85D9B18
:10097000FECF84E58CB95D9BFECF8EE18CB95D9B8B
:10098000FECF1CB85D9BFECF83E48CB95D9BFECF90
:100990008AE58CB95D9BFECF8BE48CB95D9BFECF65
:1009A00080E38CB95D9BFECF80E38CB95D9BFECF6D
:1009B00081E38CB95D9BFECF8BE28CB95D9BFECF52
:1009C00080E38CB95D9BFECF82E38CB95D9BFECF4B
:1009D0001CB85D9BFECF83E48CB95D9BFECF81E4A8
:1009E0008CB95D9BFECF82E48CB95D9BFECF81E428
:1009F0008CB95D9BFECF1CB85D9BFECF1CB85D9B88
:100A0000FECF1CB85D9BFECF83E08CB95D9BFECF13
:100A10008CE68CB98091E2019091E301029709F094
:100A200043C08DB79EB745970FB6F8949EBF0FBED3
:100A30008DBFEDB7FEB731968EE1ADB7BEB711965B
:100A40008C93118283E482838AE583838BE484839D
:100A500090E39583968322E327838BE280879187B7
:100A6000228781E0838792E4948781E48587968753
:100A70008787108A118A128A83E0838B8EE6848BA3
:100A800082E06EE141E722E001E1F0E1EF2ECC24CB
:100A9000AA24E4E58E2E9BDBEDB7FEB775960FB664
:100AA000F894FEBF0FBEEDBF8091E2019091E3018B
:100AB000039709F043C08DB79EB745970FB6F894DA
:100AC0009EBF0FBE8DBFEDB7FEB731968EE1ADB7BD
:100AD000BEB711968C93118223E422838AE5838327
:100AE0008BE4848390E39583968381E387838BE211
:100AF0008087918783E382871386248781E48587B3
:100B000082E486878787108A118A128A83E0838B22
:100B10008EE6848B82E06EE140E722E001E170E145
:100B2000E72ECC24AA2454E5852E51DBEDB7FEB781
:100B300075960FB6F894FEBF0FBEEDBF8091E2012F
:100B40009091E301049709F044C08DB79EB7459793
:100B50000FB6F8949EBF0FBE8DBFEDB7FEB73196AE
:100B60008EE1ADB7BEB711968C93118283E4828378
:100B70008AE583838BE4848390E39583968385E37E
:100B800087838BE28087918782E3828793E09387D4
:100B900084E4848781E4858782E486878787108A56
:100BA000118A128A938B8FE6848B82E06EE140E794
:100BB00022E001E130E1E32ECC24AA2494E5892E41
:100BC00006DBEDB7FEB775960FB6F894FEBF0FBE05
:100BD000EDBF8091E2019091E301059709F043C0D8
:100BE0008DB79EB745970FB6F8949EBF0FBE8DBFC9
:100BF000EDB7FEB731968EE1ADB7BEB711968C93C7
:100C0000118283E482838AE583838BE4848390E387
:100C10009583968382E387838BE28087918783E342
:100C20008287138681E48487858782E48687878725
:100C3000108A118A128A83E0838B80E7848B82E09A
:100C40006EE140E722E001E110E1E12ECC24AA248C
:100C5000B4E58B2EBCDAEDB7FEB775960FB6F894F7
:100C6000FEBF0FBEEDBF1092E3011092E2011092A1
:100C7000DB011092DA011AC0DE011896EEE8F1E00D
:100C800087E001900D928150E1F782E06BE041E254
:100C900022E08E01085F1F4F78DA8091E001909189
:100CA000E10101969093E1018093E001E091A201BE
:100CB000F091A301EE0FFF1FE65EFD4F8081918151
:100CC0008836910509F08EC18091E0019091E10193
:100CD000099708F487C18091E0019091E10145975F
:100CE00008F080C180E797E1FC013197F1F70197A7
:100CF000F1F78091E2019091E301019709F043C07F
:100D00008DB79EB745970FB6F8949EBF0FBE8DBFA7
:100D1000EDB7FEB731968EE1ADB7BEB711968C93A5
:100D2000118223E422838AE583838BE4848390E326
:100D30009583968381E387838BE28087918782E323
:100D400082871386248791E4958782E48687978734
:100D5000108A118A128A83E0838B88E7848B82E071
:100D60006EE141E722E004E0E0E1EE2ECC24AA248B
:100D700074E5872E2CDAEDB7FEB775960FB6F894AA
:100D8000FEBF0FBEEDBF8091E2019091E30102979B
:100D900009F043C08DB79EB745970FB6F8949EBF34
:100DA0000FBE8DBFEDB7FEB731968EE1ADB7BEB7C2
:100DB00011968C93118283E482838AE583838BE48A
:100DC000848390E39583968322E327838BE2808755
:100DD0009187228781E0838792E4948781E48587E5
:100DE00096878787108A118A128A83E0838B8AE725
:100DF000848B82E06EE140E722E004E050E1E52EE2
:100E0000CC24AA2434E5832EE2D9EDB7FEB775963B
:100E10000FB6F894FEBF0FBEEDBF8091E201909136
:100E2000E301039709F043C08DB79EB745970FB60E
:100E3000F8949EBF0FBE8DBFEDB7FEB731968EE121
:100E4000ADB7BEB711968C93118223E422838AE555
:100E500083838BE4848390E39583968381E3878304
:100E60008BE28087918783E382871386248781E4DE
:100E7000858782E486878787108A118A128A83E0B1
:100E8000838B8AE7848B82E06EE141E722E004E015
:100E900090E1E92ECC24AA2414E5812E98D9EDB74F
:100EA000FEB775960FB6F894FEBF0FBEEDBF8091EA
:100EB000E2019091E301049709F044C08DB79EB719
:100EC00045970FB6F8949EBF0FBE8DBFEDB7FEB726
:100ED00031968EE1ADB7BEB711968C93118283E443
:100EE00082838AE583838BE4848390E3958396836E
:100EF00085E387838BE28087918782E3828793E013
:100F0000938784E4848781E4858782E48687878762
:100F1000108A118A128A938B8BE7848B82E06EE1B0
:100F200041E722E004E0B0E1EB2ECC24AA24A4E5C2
:100F30008A2E4DD9EDB7FEB775960FB6F894FEBF61
:100F40000FBEEDBF8091E2019091E301059709F09A
:100F500043C08DB79EB745970FB6F8949EBF0FBE9E
:100F60008DBFEDB7FEB731968EE1ADB7BEB7119626
:100F70008C93118283E482838AE583838BE4848368
:100F800090E39583968382E387838BE280879187C2
:100F900083E38287138681E48487858782E486875A
:100FA0008787108A118A128A83E0838B8BE7848B70
:100FB00082E06EE141E722E004E0F0E1EF2ECC2494
:100FC000AA24E4E58E2E03D9EDB7FEB775960FB6C9
:100FD000F894FEBF0FBEEDBF85E190E09093E10174
:100FE0008093E001E091A201F091A301EE0FFF1FB9
:100FF000E65EFD4F808191818936910509F040C000
:101000008091E0019091E1010F97D0F580E797E1A1
:10101000FC013197F1F70197F1F75D9BFECF82E07C
:101020008CB95D9BFECF8BE08CB95D9BFECF80E2DF
:101030008CB95D9BFECF82E08CB95D9BFECF80E1D9
:101040008CB95D9BFECF1CB85D9BFECF1CB85D9B31
:10105000FECF84E58CB95D9BFECF8EE18CB95D9BA4
:10106000FECF83E08CB95D9BFECF83E78CB9809186
:10107000E0019091E10101969093E1018093E001FC
:10108000E091A201F091A301EE0FFF1FE65EFD4F7C
:10109000808191818836910509F040C08091E001FE
:1010A0009091E1010F97D0F580E797E1FC0131972E
:1010B000F1F70197F1F75D9BFECF82E08CB95D9B64
:1010C000FECF8BE08CB95D9BFECF81E28CB95D9B3E
:1010D000FECF82E08CB95D9BFECF80E18CB95D9B39
:1010E000FECF1CB85D9BFECF1CB85D9BFECF84E598
:1010F0008CB95D9BFECF8EE18CB95D9BFECF83E00A
:101100008CB95D9BFECF82E78CB98091E001909114
:10111000E10101969093E1018093E001E091A20149
:10112000F091A301EE0FFF1FE65EFD4F80819181DC
:101130008934910571F0E091A201F091A301EE0FC5
:10114000FF1FE65EFD4F808191818834910509F093
:1011500077C180E797E10197F1F78091E2019091E3
:10116000E301019709F043C08DB79EB745970FB6CD
:10117000F8949EBF0FBE8DBFEDB7FEB731968EE1DE
:10118000ADB7BEB711968C93118223E422838AE512
:1011900083838BE4848390E39583968381E38783C1
:1011A0008BE28087918782E382871386248791E48C
:1011B000958782E486879787108A118A128A83E04E
:1011C000838B89E7848B82E06EE140E722E004E0D4
:1011D00030E1E32ECC24AA2494E5892EF8D7EDB78C
:1011E000FEB775960FB6F894FEBF0FBEEDBF8091A7
:1011F000E2019091E301029709F043C08DB79EB7D9
:1012000045970FB6F8949EBF0FBE8DBFEDB7FEB7E2
:1012100031968EE1ADB7BEB711968C93118283E4FF
:1012200082838AE583838BE4848390E3958396832A
:1012300022E327838BE280879187228781E083875F
:1012400092E4948781E4858796878787108A118A3C
:10125000128A83E0838B8BE7848B82E06EE141E727
:1012600022E004E010E1E12ECC24AA24B4E58B2E88
:10127000AED7EDB7FEB775960FB6F894FEBF0FBEAA
:10128000EDBF8091E2019091E301039709F043C023
:101290008DB79EB745970FB6F8949EBF0FBE8DBF12
:1012A000EDB7FEB731968EE1ADB7BEB711968C9310
:1012B000118223E422838AE583838BE4848390E391
:1012C0009583968381E387838BE28087918783E38D
:1012D00082871386248781E4858782E486878787CF
:1012E000108A118A128A83E0838B8BE7848B82E0D9
:1012F0006EE140E722E004E0A0E1EA2ECC24AA243B
:10130000F4E58F2E64D7EDB7FEB775960FB6F89457
:10131000FEBF0FBEEDBF8091E2019091E301049703
:1013200009F044C08DB79EB745970FB6F8949EBF9D
:101330000FBE8DBFEDB7FEB731968EE1ADB7BEB72C
:1013400011968C93118283E482838AE583838BE4F4
:10135000848390E39583968385E387838BE28087FC
:10136000918782E3828793E0938784E4848781E492
:10137000858782E486878787108A118A128A938BF1
:101380008BE7848B82E06EE141E722E004E0E0E15C
:10139000EE2ECC24AA2474E5872E19D7EDB7FEB71C
:1013A00075960FB6F894FEBF0FBEEDBF8091E201B7
:1013B0009091E301059709F043C08DB79EB745971B
:1013C0000FB6F8949EBF0FBE8DBFEDB7FEB7319636
:1013D0008EE1ADB7BEB711968C93118283E4828300
:1013E0008AE583838BE4848390E39583968382E309
:1013F00087838BE28087918783E38287138681E4EA
:101400008487858782E486878787108A118A128A73
:1014100083E0838B8CE7848B82E06EE140E722E0FF
:1014200004E050E1E52ECC24AA2434E5832ECFD667
:10143000EDB7FEB775960FB6F894FEBF0FBEEDBFC1
:101440008091DA019091DB01892B09F0C2C91092D9
:10145000E1011092E001BDC98091D6019091D701C0
:10146000019709F0A1C1E091A201F091A301EE0F53
:10147000FF1FE65EFD4F808191818936910541F520
:1014800080E797E1FC013197F1F70197F1F7DE0171
:101490001F96E7E8F1E087E001900D928150E1F7B7
:1014A00082E06BE040E221E08E01015F1F4F6DD6CC
:1014B00082E00DD788E00BD781E109D78FE707D706
:1014C0008CE105D784E003D783E001D78EE7FFD610
:1014D000E091A201F091A301EE0FFF1FE65EFD4F28
:1014E000808191818836910509F084C080E797E179
:1014F000FC013197F1F70197F1F7DE015696E0E82C
:10150000F1E087E001900D928150E1F782E06BE01D
:1015100041E221E08E010A5E1F4F37D682E0D7D626
:1015200088E0D5D680E1D3D68FE7D1D68CE1CFD66F
:1015300084E0CDD683E0CBD68FE7C9D62ED7909363
:10154000E5018093E40129D79093E5018093E401BC
:1015500024D79093E5018093E4011FD79093E50190
:101560008093E4011AD790939F0180939E0115D731
:1015700090939F0180939E0180E29EE40197F1F792
:101580008091E4019091E501A2D680919E01909115
:101590009F019DD68091E4019091E501049701F5AA
:1015A00080919E0190919F018897D1F080E69AEEFC
:1015B0000197F1F782E08BD688E089D681E187D662
:1015C0008FE785D68CE383D684E081D683E07FD60F
:1015D0008EE57DD681E090E09093E7018093E6016F
:1015E0008091E6019091E701892B21F01092E701AB
:1015F0001092E601E091A201F091A301EE0FFF1F0E
:10160000E65EFD4F808191818136910501F580E88C
:101610009EE30197F1F7FE01ED5CFE4F81E2DF01F1
:101620001D928A95E9F78AE580838BE4818383E0C4
:10163000878F86E180A382E065E241E623E48F01A3
:10164000A4D581E090E09093E9018093E801E091D6
:10165000A201F091A301EE0FFF1FE65EFD4F808116
:1016600091818036910579F55F9BFECF8CB15F9BB0
:10167000FECF8CB15F9BFECF8CB15F9BFECF8CB158
:1016800080E89EE30197F1F781E2F30111928A95D8
:10169000E9F78AE5D3018C938BE411968C9311972B
:1016A00083E05F968C935F9786E190968C9382E0BF
:1016B00065E241E623E4830168D581E090E0909300
:1016C000E9018093E801E091A201F091A301EE0FFE
:1016D000FF1FE65EFD4F808191818C369105E1F41C
:1016E0008091E8019091E901892BB1F080E89EE3B7
:1016F0000197F1F7DE01A25BBF4FEBE6F1E085E178
:1017000001900D928150E1F782E069E140E623E724
:101710008E01025B1F4F39D5E091A201F091A30128
:10172000EE0FFF1FE65EFD4F808191814497C1F46B
:1017300080E797E1FC013197F1F70197F1F7DE01BE
:101740005D96E4E6F1E087E001900D928150E1F7CB
:1017500082E06BE040E221E08E01035E1F4F15D571
:10176000E091A201F091A301EE0FFF1FE65EFD4F95
:10177000808191814597C1F480E797E1FC01319721
:10178000F1F70197F1F7DE019496EDE5F1E087E0DE
:1017900001900D928150E1F782E06BE041E221E09F
:1017A0008E010C5D1F4FF1D48091D6019091D7012D
:1017B000892B09F00EC8E091A201F091A301EE0F70
:1017C000FF1FE65EFD4F808191814497F1F480E731
:1017D00097E1FC013197F1F70197F1F781E090E093
:1017E0009093D7018093D601DE019B96E6E5F1E068
:1017F00087E001900D928150E1F782E06BE040E2DA
:1018000021E08E01055D1F4FC0D4E091A201F0914F
:10181000A301EE0FFF1FE65EFD4F8081918145978A
:10182000F1F480E797E1FC013197F1F70197F1F7C7
:1018300081E090E09093D7018093D601DE01D296AB
:10184000EFE4F1E087E001900D928150E1F782E052
:101850006BE041E221E08E010E5C1F4F96D4E091D7
:10186000A201F091A301EE0FFF1FE65EFD4F808104
:10187000918189369105C1F480E797E1FC013197A8
:10188000F1F70197F1F7DE01D996E8E4F1E087E09E
:1018900001900D928150E1F782E06BE040E220E0A0
:1018A0008E01075C1F4F71D4E091A201F091A3015A
:1018B000EE0FFF1FE65EFD4F808191818836910516
:1018C000C9F480E797E1FC013197F1F70197F1F74F
:1018D000DE01A05CBF4FE1E4F1E087E001900D92F2
:1018E0008150E1F782E06BE041E220E08E01005C94
:1018F0001F4F4BD4E091A201F091A301EE0FFF1F07
:10190000E65EFD4F80819181409709F062C780912A
:10191000680090916900019709F05BC7E091A2010E
:10192000F091A3015F9BFECF8CB190E0EE0FFF1F03
:10193000E65EFD4F91838083E091A201F091A301C7
:10194000EE0FFF1FE65EFD4F80819181892B09F02C
:1019500059C080E797E1FC013197F1F70197F1F762
:1019600080E29EE40197F1F7DE01A95BBF4FEAE355
:10197000F1E087E001900D928150E1F782E06BE0A9
:1019800040E220E08E01095B1F4FFFD380EA9FE019
:101990000197F1F7E091A201F091A3015F9BFECFC7
:1019A0008CB190E0EE0FFF1FE65EFD4F91838083C8
:1019B000E091A201F091A3015F9BFECF8CB190E07A
:1019C000EE0FFF1FE65EFD4F91838083E091A20141
:1019D000F091A3015F9BFECF8CB190E0EE0FFF1F53
:1019E000E65EFD4F91838083E091A201F091A30117
:1019F0005F9BFECF8CB190E0EE0FFF1FE65EFD4FC8
:101A000091838083E091A201F091A301EE0FFF1F6B
:101A1000E65EFD4F808191810197F1F480E797E1C7
:101A20000197F1F780E29EE40197F1F7DE01AD59ED
:101A3000BF4FE0E2F1E08AE101900D928150E1F7C1
:101A400082E06EE141E722E08E010D591F4F9DD3E8
:101A500080EA9FE00197F1F7E091A201F091A301E4
:101A6000EE0FFF1FE65EFD4F808191810297F1F43A
:101A700080E797E10197F1F780E29EE40197F1F7A3
:101A8000DE01A358BF4FE6E0F1E08AE101900D923C
:101A90008150E1F782E06EE140E722E08E010358D9
:101AA0001F4F73D380EA9FE00197F1F7E091A20105
:101AB000F091A301EE0FFF1FE65EFD4F8081918143
:101AC0000397F1F480E797E10197F1F780E29EE454
:101AD0000197F1F7DE01A956BF4FECEEF0E08AE185
:101AE00001900D928150E1F782E06EE141E722E042
:101AF0008E0109561F4F49D380EA9FE00197F1F705
:101B0000E091A201F091A301EE0FFF1FE65EFD4FF1
:101B1000808191810497F1F480E797E10197F1F7D3
:101B200080E29EE40197F1F7DE01AF54BF4FE2ED92
:101B3000F0E08AE101900D928150E1F782E06EE1E0
:101B400040E722E08E010F541F4F1FD380EA9FE031
:101B50000197F1F7E091A201F091A301EE0FFF1FB1
:101B6000E65EFD4F808191810597F1F480E797E172
:101B70000197F1F780E29EE40197F1F7DE01A553AA
:101B8000BF4FE8EBF0E08AE101900D928150E1F760
:101B900082E06EE141E722E08E0105531F4FF5D24E
:101BA00080EA9FE00197F1F7E091A201F091A30193
:101BB000EE0FFF1FE65EFD4F808191810697F1F4E5
:101BC00080E797E10197F1F780E29EE40197F1F752
:101BD000DE01AB51BF4FEEE9F0E08AE101900D92DA
:101BE0008150E1F782E06EE140E722E08E010B5187
:101BF0001F4FCBD280EA9FE00197F1F7E091A2015D
:101C0000F091A301EE0FFF1FE65EFD4F80819181F1
:101C10000797D1F480E797E10197F1F780E29EE41E
:101C20000197F1F7D101E4E8F0E08AE101900D922B
:101C30008150E1F782E06EE141E722E08101A5D227
:101C400080EA9FE00197F1F7E091A201F091A301F2
:101C5000EE0FFF1FE65EFD4F80819181089709F02E
:101C6000B8C580E797E1FC013197F1F70197F1F7EB
:101C700080E29EE40197F1F7D201EAE6F0E08AE122
:101C800001900D928150E1F782E06EE140E722E0A1
:101C900082017BD280EA9FE00197F1F71092690000
:0A1CA0001092680096C5F894FFCF7B
:101CAA00FFFF010001000100010000100100541EA5
:101CBA00000000000000000000000000000000001A
:101CCA000000033700100100541E07435A4B3030FE
:101CDA00322B30330042414242000000037A0010A6
:101CEA000100541E06435A4B3030322B3033004128
:101CFA00414242000000037900100100541E0543CE
:101D0A005A4B3030312B30330043414242000000FD
:101D1A00037A00100100541E04435A4B3030352B0D
:101D2A0030320044414242000000037800100100B2
:101D3A00541E03435A4B3030352B30320042414255
:101D4A0042000000037800100100541E02435A4B5F
:101D5A003030322B30320042414241000000037CD5
:101D6A0000100100541E01435A4B3030312B3032DF
:101D7A000043414241000000037C100100541E034D
:101D8A0070100100541E0371100100541E037010DC
:101D9A000000541E0371100000541E03701000004E
:101DAA00541E0371100000541E0370633835303717
:101DBA00007F7F7F7F7F7F7F7F7F7F7F7F7F031C87
:101DCA00100000541E0371100000541E037010000E
:0C1DDA0000541E0372100000541E03731E
:04000005008001D6A0
:00000001FF
