:1000000012C02CC02BC02AC029C028C027C026C0BF
:1000100025C024C023C022C021C020C01FC01EC0D4
:100020001DC01CC01BC011241FBECFE5D4E0DEBF25
:10003000CDBF10E0A0E6B0E0EEEDF3E002C0059029
:100040000D92A439B107D9F710E0A4E9B0E001C0DE
:100050001D92A83DB107E1F7F4D0BFC1D1CF90BD4B
:1000600089B988E18AB986EA80BD08955D9BFECF93
:100070008CB908958BB1807808955F9BFECF8CB1C9
:1000800008959298EEECF0E03197F1F720E030E03F
:1000900040E050E0682F70E0EEECF0E0CB01022E83
:1000A00002C0959587950A94E2F780FF07C0929A5F
:1000B000CF010197F1F74F5F5F4F04C09298CF01D6
:1000C0000197F1F72F5F3F4F2830310539F740FD99
:1000D00002C0929801C0929A8EEC90E00197F1F7DD
:1000E000929A8EEC90E00197F1F708958399FECFF4
:1000F00024EF3FEF45E00AC02A30310538F4839BF6
:1001000005C08091CB008F5F8093CB00C9010A9717
:100110000A9738F4839B05C08091CC008F5F809351
:10012000CC00C90144970A9738F4839B05C080919D
:10013000CD008F5F8093CD00C9014E970A9738F4A8
:10014000839B05C08091CE008F5F8093CE00C90154
:1001500088970A9738F4839B05C08091CF008F5F02
:100160008093CF00C901C2970A9738F4839B05C0DA
:100170008091D0008F5F8093D000C901CC970A97FF
:1001800038F4839B05C08091D1008F5F8093D100AC
:10019000C901865490400A9738F4839B05C080912A
:1001A000D2008F5F8093D200842F8A95F1F72F5F62
:1001B0003F4F2936310509F09FCF8091CB0020E0D9
:1001C00030E0853010F021E030E08091CC008530C7
:1001D00010F02E5F3F4F8091CD00853010F02C5FE6
:1001E0003F4F8091CE00853010F0285F3F4F8091C7
:1001F000CF00853010F0205F3F4F8091D0008530D8
:1002000010F0205E3F4F8091D100853010F0205CCF
:100210003F4F8091D200853010F020583F4F109210
:10022000CB001092CC001092CD001092CE00109214
:10023000CF001092D0001092D1001092D200C901CC
:100240000895FF920F931F93CF93DF938B98939A08
:100250008D98959A8A9A929AA59AAD9810BC83E344
:1002600089B988E18AB986EA80BD80E197E228EC05
:1002700030E0F9013197F1F70197D9F7FF24F394B2
:100280005F9BFECF8CB180939900809199008C3F49
:10029000B1F55F9BFECF8CB180939A0022E030E0F5
:1002A00009C05F9BFECF8CB1F901E756FF4F8083F9
:1002B0002F5F3F4F80919A0090E02817390788F30D
:1002C000C0E0D0E014C08E0107561F4FF8018081B6
:1002D000D8DEF8018081883811F4F0929800C1309E
:1002E000D10521F0FE01E756FF4F10822196809143
:1002F0009A0090E0C817D90730F310929A008091C5
:100300009800813081F41092980080E090E0FC0128
:10031000E05AFF4FE0815D9BFECFECB901968E3233
:100320009105A9F7ADCFE2DE8093B200DFDE8093C6
:10033000B300C2E0D0E006C0D9DEFE01EE54FF4FAC
:10034000808321968091B30090E0C817D907A0F36D
:1003500020E030E010C0F901EE54FF4FE0815D9BDA
:10036000FECFECB92130310521F0F901EE54FF4FF9
:1003700010822F5F3F4F8091B30090E0281739071C
:1003800050F31092B3007CCF0F931F935D9BFECF71
:100390008CB95D9BFECF6CB95D9BFECF4CB95D9B6C
:1003A000FECF2CB9860F840F820F20E030E070E082
:1003B0000AC0F801E20FF31FE0815D9BFECFECB9AC
:1003C0008E0F2F5F3F4F261737079CF35D9BFECFA5
:0E03D00081958CB91F910F910895F894FFCF7D
:1003DE00FC2E885528504F4C292D31302D5353204B
:1003EE0049443030332D3033563233302D343320B0
:1003FE0031305345503132203536343826A4012061
:04040E004E0100009B
:00000001FF
