:1000000012C02CC02BC02AC029C028C027C026C0BF
:1000100025C024C023C022C021C020C01FC01EC0D4
:100020001DC01CC01BC011241FBECFE5D4E0DEBF25
:10003000CDBF10E0A0E6B0E0EAE5F9E002C005902F
:100040000D92A639B107D9F710E0A6E9B0E001C0DA
:100050001D92AC3DB107E1F71CD27DC4D1CF809198
:10006000D600882309F449C08091D8009091D90026
:1000700001969093D9008093D80080918F008823B7
:1000800011F0AD9801C0AD9A2091D8003091D900FF
:1000900080919100909192002817390751F4809136
:1000A0008F00813031F410928F001092D90010929D
:1000B000D8002091D8003091D90080919100909182
:1000C000920028173907D1F480918F008823B1F46A
:1000D00081E080938F001092D9001092D800809117
:1000E000D60081508093D60080919100909192002B
:1000F0009093DB008093DA000895AD9A089590BD47
:1001000089B988E18AB986EA80BD08955D9BFECFF2
:100110008CB908958BB1807808955F9BFECF8CB128
:1001200008959298EEECF0E03197F1F720E030E09E
:1001300040E050E0682F70E0EEECF0E0CB01022EE2
:1001400002C0959587950A94E2F780FF07C0929ABE
:10015000CF010197F1F74F5F5F4F04C09298CF0135
:100160000197F1F72F5F3F4F2830310539F740FDF8
:1001700002C0929801C0929A8EEC90E00197F1F73C
:10018000929A8EEC90E00197F1F7089580E090E06C
:1001900008C0019627E28031920719F420E030E090
:1001A000A9C08399F6CF24EF3FEF45E00AC02A307B
:1001B000310538F4839B05C08091CD008F5F80931B
:1001C000CD00C9010A970A9738F4839B05C0809136
:1001D000CE008F5F8093CE00C90144970A9738F410
:1001E000839B05C08091CF008F5F8093CF00C901B2
:1001F0004E970A9738F4839B05C08091D0008F5F9B
:100200008093D000C90188970A9738F4839B05C072
:100210008091D1008F5F8093D100C901C2970A9766
:1002200038F4839B05C08091D2008F5F8093D20009
:10023000C901CC970A9738F4839B05C08091D300FD
:100240008F5F8093D300C901865490400A9738F499
:10025000839B05C08091D4008F5F8093D400842F4E
:100260008A95F1F72F5F3F4F2936310509F09FCF6F
:100270008091CD0020E030E0853010F021E030E0CA
:100280008091CE00853010F02E5F3F4F8091CF00DF
:10029000853010F02C5F3F4F8091D000853010F0FA
:1002A000285F3F4F8091D100853010F0205F3F4F95
:1002B0008091D200853010F0205E3F4F8091D300B6
:1002C000853010F0205C3F4F8091D400853010F0D5
:1002D00020583F4F1092CD001092CE001092CF00C8
:1002E0001092D0001092D1001092D2001092D30040
:1002F0001092D400C90108950F931F935D9BFECF08
:100300008CB95D9BFECF6CB95D9BFECF4CB95D9BFC
:10031000FECF2CB9860F840F820F20E030E070E012
:100320000AC0F801E20FF31FE0815D9BFECFECB93C
:100330008E0F2F5F3F4F261737079CF35D9BFECF35
:1003400081958CB91F910F9108958CEFEADE85E0BD
:10035000E8DE81E1E6DE87E2E4DE86E5E2DE0895BE
:10036000F4DF88EE93E028EC30E0F9013197F1F703
:100370000197D9F7EADF88EE93E028EC30E0F90145
:100380003197F1F70197D9F7E0DF88EE93E028EC99
:1003900030E0F9013197F1F70197D9F78CEFC1DE21
:1003A00085E0BFDE80E4BDDE8BE2BBDE85E1B9DE49
:1003B00088EE93E028EC30E0F9013197F1F70197EE
:1003C000D9F78CEFAEDE86E0ACDE83ECAADE80E00F
:1003D000A8DE84E0A6DE86EDA4DE88EE93E028ECBD
:1003E00030E0F9013197F1F70197D9F78CEF99DEF9
:1003F00086E097DE87EC95DE8CEF93DE87E891DE72
:100400008CE88FDE88EE93E028EC30E0F90131973C
:10041000F1F70197D9F78CEF84DE85E082DE81E188
:1004200080DE87E27EDE86E57CDE88EE93E028ECE7
:1004300030E0F9013197F1F70197D9F78CEF71DED0
:1004400086E06FDE83EC6DDE80E06BDE84E069DEEB
:1004500086ED67DE88EE93E028EC30E0F901319715
:10046000F1F70197D9F78CEF5CDE86E05ADE87EC76
:1004700058DE8CEF56DE87E854DE8CE852DE88EEDC
:1004800093E028EC30E0F9013197F1F70197D9F7C3
:100490000895BF92CF92DF92EF92FF920F931F9336
:1004A000CF93DF938B98939A8D98959A8A9A929A84
:1004B000A59AAD9A1092DB001092DA0010BC83E38B
:1004C00089B988E18AB986EA80BD80E49CE928EC94
:1004D00030E0F9013197F1F70197D9F741DF20E4D6
:1004E000C22E2CE9D22E90E4E92E9CE9F92E11E0DF
:1004F00082E0B82E6BC129DF49DE8093B40046DE6E
:100500008093B500C2E0D0E01EC040DEFE01EC5496
:10051000FF4F80838081883E79F080818B3F61F03E
:100520008081803149F080818C3A31F08081893C32
:1005300019F08081883D31F4FE01EC54FF4F808139
:100540008093D70021968091B50090E0C817D90715
:10055000E0F2C6010197F1F78091D700883E09F4D7
:10056000FFDE8091D7008B3F09F03DC01092D7008D
:100570008CEFD7DD85E0D5DD81E4D3DD82EAD1DD06
:1005800084E0CFDDC6010197F1F700E0DEDEC601B1
:100590000197F1F70F5F0A30C9F78CEFC2DD85E0F4
:1005A000C0DD80E5BEDD8AEABCDD85E0BADDC701DD
:1005B0000197F1F7CADEC7010197F1F71093D60052
:1005C0001093D7008CEFADDD85E0ABDD80E5A9DDD4
:1005D0008AEAA7DD85E0A5DDC7010197F1F7B5DE61
:1005E000C7010197F1F78091D700893C09F03DC020
:1005F0001092D7008CEF95DD85E093DD81E491DDED
:1006000082EA8FDD84E08DDDC6010197F1F700E01D
:100610009CDEC6010197F1F70F5F0A30C9F78CEF36
:1006200080DD85E07EDD80E57CDD8AEA7ADD85E0BF
:1006300078DDC7010197F1F788DEC7010197F1F76F
:10064000B092D6001093D7008CEF6BDD85E069DDAA
:1006500080E567DD8AEA65DD85E063DDC701019736
:10066000F1F773DEC7010197F1F78091D700883D5C
:1006700009F03EC01092D7008CEF53DD85E051DDCC
:1006800081E44FDD82EA4DDD84E04BDDC601019758
:10069000F1F700E05ADEC6010197F1F70F5F0A306B
:1006A000C9F78CEF3EDD85E03CDD80E53ADD8AEA86
:1006B00038DD85E036DDC7010197F1F746DEC70179
:1006C0000197F1F785E08093D6001093D7008CEF67
:1006D00028DD85E026DD80E524DD8AEA22DD85E06F
:1006E00020DDC7010197F1F730DEC7010197F1F76F
:1006F0008091D7008C3A09F03DC01092D7008CEF62
:1007000010DD85E00EDD81E40CDD82EA0ADD84E0A7
:1007100008DDC6010197F1F700E017DEC601019779
:10072000F1F70F5F0A30C9F78CEFFBDC85E0F9DCED
:1007300080E5F7DC8AEAF5DC85E0F3DCC7010197A8
:10074000F1F703DEC7010197F1F70093D60010938C
:10075000D7008CEFE6DC85E0E4DC80E5E2DC8AEAC9
:10076000E0DC85E0DEDCC7010197F1F7EEDDC701D3
:100770000197F1F78091D7008031D1F48CEFD1DC73
:1007800085E0CFDC80E5CDDC8AEACBDC85E0C9DC26
:10079000C6010197F1F78CEFC4DC85E0C2DC81E192
:1007A000C0DC87E2BEDC86E5BCDCC6010197F1F760
:1007B00056DC85990BC08091D5008F5F8093D50062
:1007C0008091D5008A3F11F410928E0080918E00A6
:1007D000882309F090CE1092D600FF24F3945F9BFB
:1007E000FECF8CB180939B0080919B008C3FB1F534
:1007F0005F9BFECF8CB180939C0022E030E009C06B
:100800005F9BFECF8CB1F901E556FF4F80832F5FD0
:100810003F4F80919C0090E02817390788F3C0E093
:10082000D0E014C08E0105561F4FF801808179DC9D
:10083000F8018081883811F4F0929A00C130D10516
:1008400021F0FE01E556FF4F1082219680919C0019
:1008500090E0C817D90730F310929C0080919A005D
:10086000813081F410929A0080E090E0FC01E05A1F
:10087000FF4FE0815D9BFECFECB901968E32910572
:10088000A9F767C083DC8093B40080DC8093B50057
:10089000C2E0D0E006C07ADCFE01EC54FF4F80835A
:1008A00021968091B50090E0C817D907A0F322E007
:1008B00030E02EC0F901EC54FF4F80818C3A29F4CE
:1008C0008091D600865F8093D600F901EC54FF4FEB
:1008D0008081883D29F48091D6008B5F8093D6007B
:1008E000F901EC54FF4F8081893C29F48091D600B6
:1008F0008E5F8093D600F901EC54FF4F80818B3FCF
:1009000029F48091D6008F5F8093D6002F5F3F4FF0
:100910008091B50090E02817390760F220E030E0C0
:1009200010C0F901EC54FF4FE0815D9BFECFECB9A4
:100930002130310521F0F901EC54FF4F10822F5F77
:100940003F4F8091B50090E02817390750F310927F
:0A095000B50085DB44CFF894FFCF1B
:10095A00FC2E885528504F4C292D31302D535320C9
:10096A0049443030332D3033563233302D3433202E
:10097A0031305345503132203536343826A40101FE
:06098A0001010001000064
:00000001FF
