:1000000012C02CC02BC02AC029C028C027C026C0BF
:1000100025C024C023C022C021C020C01FC01EC0D4
:100020001DC01CC01BC011241FBECFE5D4E0DEBF25
:10003000CDBF10E0A0E6B0E0EEE3F8E002C005902E
:100040000D92AC3EB107D9F711E0ACEEB0E001C0C3
:100050001D92AE32B107E1F739D2EFC3D1CF9298FA
:10006000EEECF0E03197F1F720E030E040E050E0D6
:10007000682F70E0EEECF0E0CB01022E02C0959507
:1000800087950A94E2F780FF07C0929ACF01019703
:10009000F1F74F5F5F4F04C09298CF010197F1F7DE
:1000A0002F5F3F4F2830310539F740FD02C092984D
:1000B00001C0929A8EEC90E00197F1F7929A8EEC43
:1000C00090E00197F1F70895CF93DF9380E090E0FF
:1000D000FC01EB55FF4FE0815D9BFECFECB9019633
:1000E00086309105A9F75F9BFECF8CB18093EC0021
:1000F0008091EC008C3FA1F45F9BFECF8CB180938C
:10010000ED0092E009C05F9BFECF8CB1E92FF0E0DB
:10011000E451FF4F80839F5F8091ED00981798F323
:100120008091EE00833409F418C18091EE00813192
:1001300009F013C1C0E0D0E0FE01E756FF4F808117
:100140008EDF2196C630D105B9F780E090E0FC0142
:10015000EB55FF4FE0815D9BFECFECB901968630F9
:100160009105A9F75F9BFECF8CB18093EC00809145
:10017000EC008C3FA1F45F9BFECF8CB18093ED002F
:1001800092E009C05F9BFECF8CB1E92FF0E0E45113
:10019000FF4F80839F5F8091ED00981798F38091C7
:1001A000EE00813409F0D9C080E090E0FC01E95113
:1001B000FF4FE0815D9BFECFECB901968530910544
:1001C000A9F7C0E0D0E0FE01E756FF4F808147DF8E
:1001D0002196C630D105B9F75F9BFECF8CB18093D5
:1001E000EC008091EC008C3FA1F45F9BFECF8CB1C2
:1001F0008093ED0092E009C05F9BFECF8CB1E92FA8
:10020000F0E0E451FF4F80839F5F8091ED009817ED
:1002100098F380E090E0FC01E852FF4FE0815D9BA5
:10022000FECFECB9019685309105A9F75F9BFECF13
:100230008CB18093EC008091EC008C3FA1F45F9B2B
:10024000FECF8CB18093ED0092E009C05F9BFECFA2
:100250008CB1E92FF0E0E451FF4F80839F5F8091E4
:10026000ED00981798F380E090E0FC01E352FF4F17
:10027000E0815D9BFECFECB9019685309105A9F731
:100280005F9BFECF8CB18093EC008091EC008C3FA3
:1002900019F0C0E0D0E015C05F9BFECF8CB1809319
:1002A000ED0092E009C05F9BFECF8CB1E92FF0E03A
:1002B000E451FF4F80839F5F8091ED00981798F382
:1002C000E8CFFE01E756FF4F8081C9DE2196C63098
:1002D000D105B9F784EF91E028EC30E0F9013197CE
:1002E000F1F70197D9F75F9BFECF8CB18093EC00BB
:1002F0008091EC008C3FA1F45F9BFECF8CB180938A
:10030000ED0092E009C05F9BFECF8CB1E92FF0E0D9
:10031000E451FF4F80839F5F8091ED00981798F321
:1003200080E090E0FC01EE51FF4FE0815D9BFECF4D
:10033000ECB9019685309105A9F780912B01815088
:1003400080932B01C0E0D0E0FE01E156FF4F808199
:1003500086DE2196C630D105B9F7DF91CF91089599
:1003600080E090E008C0019627E28031920719F4FE
:1003700020E030E0A9C08399F6CF24EF3FEF45E0BD
:100380000AC02A30310538F4839B05C080912301CF
:100390008F5F80932301C9010A970A9738F4839BE2
:1003A00005C0809124018F5F80932401C901449787
:1003B0000A9738F4839B05C0809125018F5F809355
:1003C0002501C9014E970A9738F4839B05C0809197
:1003D00026018F5F80932601C90188970A9738F418
:1003E000839B05C0809127018F5F80932701C901FE
:1003F000C2970A9738F4839B05C0809128018F5FCC
:1004000080932801C901CC970A9738F4839B05C0D3
:10041000809129018F5F80932901C9018654904002
:100420000A9738F4839B05C080912A018F5F8093DF
:100430002A01842F8A95F1F72F5F3F4F2936310526
:1004400009F09FCF8091230120E030E0853010F04B
:1004500021E030E080912401853010F02E5F3F4F85
:1004600080912501853010F02C5F3F4F809126014F
:10047000853010F0285F3F4F80912701853010F0C4
:10048000205F3F4F80912801853010F0205E3F4F64
:1004900080912901853010F0205C3F4F80912A0126
:1004A000853010F020583F4F109223011092240104
:1004B0001092250110922601109227011092280116
:1004C0001092290110922A01C90108952F923F929A
:1004D0004F925F926F927F928F929F92AF92BF9254
:1004E000CF92DF92EF92FF920F931F93DF93CF9300
:1004F0000F92CDB7DEB78B98939A8A9A929A80E240
:100500009EE428EC30E0F9013197F1F70197D9F733
:1005100010BC83E389B988E18AB986EA80BD80E2AC
:100520009EE428EC30E0F9013197F1F70197D9F713
:10053000EE24E394A8EF5A2EF7E74F2EE1E7CE2EF4
:1005400076E6D72E68E6B62E57E6752E46E8642E78
:100550003EE9A32E2FE0922E9FE8892E5F9BFECFCF
:100560008CB18093EC008091EC008C3FB9F75F9BDD
:10057000FECF8CB18093ED0092E009C05F9BFECF6F
:100580008CB1E92FF0E0E451FF4F80839F5F8091B1
:10059000ED00981798F380912C01813059F48091E7
:1005A000EE00813129F480912D018F5F80932D0120
:1005B00090E034C010922D01FBCF292E332481010D
:1005C00004511F4FF8018081998349DDF801808132
:1005D0009981883811F4E0921F01F101E451FF4F35
:1005E0008081893811F4E0922001F101E451FF4F3C
:1005F00080818F3811F4E0922101F101E451FF4F25
:1006000080818A3811F4E0922201913031F02CEE91
:1006100030E0220E331EF10110829F5F8091ED00C9
:10062000981758F21092ED0080911F01813081F4EB
:1006300010921F0180E090E0FC01E05AFF4FE08142
:100640005D9BFECFECB9019680339105A9F786CF6B
:1006500080912001813081F41092200180E090E0AF
:10066000FC01E057FF4FE0815D9BFECFECB90196A6
:1006700089309105A9F772CF80912101813081F4F1
:100680001092210180E090E0FC01E053FF4FE081F7
:100690005D9BFECFECB9019688309105A9F75ECF3E
:1006A00080912201813081F41092220180E090E05B
:1006B000FC01E555FF4FE0815D9BFECFECB9019653
:1006C00085329105A9F74ACF4BDE8093050148DEBC
:1006D0008093060182E0F82E08C00F2D10E040DE66
:1006E0000B5F1E4FF8018083F39480910601F8168A
:1006F000A0F380912B018823B9F0E0922C01809126
:100700002D01803188F010922C0110922D0100E013
:1007100010E0F801E756FF4F8081A1DC0F5F1F4F0B
:1007200006301105B1F7D0DC80910701833159F40F
:1007300080910801843639F4D09208019092090121
:1007400080920A011DC080910701833159F4809184
:100750000801853639F47092080160920901A0926F
:100760000A010EC080910701833161F48091080174
:10077000863641F4B0920801C092090180930A01C3
:1007800090E042C080910701833161F480910801BB
:10079000873641F480912B018F5F80932B01B092BB
:1007A00008010FC080910701833181F49091080105
:1007B000983661F480912B018D5F80932B0190938B
:1007C0000801C0920901D0920A01DACF8091070195
:1007D0008331B1F680910801893691F68093080142
:1007E0005092090140920A01CBCFA92FB0E0FD0140
:1007F000EB5FFE4FE0815D9BFECFECB9913019F0CD
:10080000AB5FBE4F1C929F5F80910601981768F303
:1008100010920601A3CE90BD89B988E18AB986EA13
:1008200080BD08955D9BFECF8CB908958BB1807813
:0E08300008955F9BFECF8CB10895F894FFCF22
:10083E00FC3088452845555235292D33302D5344EB
:10084E00332049443030332D3035763533322D3226
:10085E00332032374F435431372046323839EA96F7
:10086E00FC0989423034202681FC06C3018DC7FC69
:10087E0006C30004D6FC0613687166FC258A610067
:10088E00000062E0050063E00A0064E0140065E029
:10089E00320066E00A0167E0140168E0320105C12A
:1008AE00FC088F48988A9B08FC05148A01FC0515E4
:0C08BE000310FC05169822FC0550AA054A
:00000001FF
