:100000000C942A000C9447000C9447000C94470071
:100010000C9447000C9447000C9447000C94470044
:100020000C9447000C9447000C9447000C94470034
:100030000C9447000C9447000C9447000C94470024
:100040000C9447000C9447000C9447000C94470014
:100050000C94470011241FBECFE5D4E0DEBFCDBF16
:1000600011E0A8E6B1E001C01D92A23CB107E1F7A2
:1000700011E0A0E6B0E0E4E4F7E102C005900D92E3
:10008000A836B107D9F70E94230B0C94A00B0C944F
:100090000000EF92FF920F931F937B018C0120E0F1
:1000A00030E040E05FE40E94490388238CF0C801FF
:1000B000B70120E030E040E05FE40E94C1010E940F
:1000C000A9039B01AC01205030404040504806C07D
:1000D000C801B7010E94A9039B01AC01B901CA0183
:1000E0001F910F91FF90EF900895A0E0B0E0EBE733
:1000F000F0E00C94690BDC012B01FA019C91923029
:1001000008F439C1EB018881823008F433C194309E
:1001100069F4843009F02FC111969C91119789815F
:10012000981709F428C1A0E6B0E025C1843009F48D
:1001300021C18230A9F4923009F01DC19A01AD01AC
:1001400088E0EA010990AE01E90109929E0181501F
:10015000C1F7E201898111969C918923818308C1AD
:10016000923009F407C112962D903C901397EB0141
:100170008A819B811496AD90BD90CD90DC901797AD
:10018000EC80FD800E811F819101281B390BB90184
:1001900037FF04C066277727621B730B6032710537
:1001A0000CF061C0121613066CF537014801062EDB
:1001B00004C096948794779467940A94D2F721E0C8
:1001C00030E040E050E004C0220F331F441F551FB1
:1001D0006A95D2F721503040404050402E213F21B7
:1001E00040235123211531054105510521F021E01E
:1001F00030E040E050E079018A01E628F72808293C
:1002000019293CC0232BD1F1260E371E350146019A
:10021000062E04C096948794779467940A94D2F734
:1002200021E030E040E050E004C0220F331F441FC3
:10023000551F6A95D2F721503040404050402A2146
:100240003B214C215D21211531054105510521F04E
:1002500021E030E040E050E059016A01A628B728CB
:10026000C828D9280BC0821593052CF01C01AA249C
:10027000BB24650103C0EE24FF24870111969C91E5
:10028000D20111968C91981709F445C0992339F041
:10029000A80197012A193B094C095D0906C0A6016E
:1002A00095012E193F09400B510B57FD08C01182D3
:1002B0003382228224833583468357831DC081E0A5
:1002C00081833382228288279927DC01821B930B4A
:1002D000A40BB50B84839583A683B7830DC0220F2F
:1002E000331F441F551F24833583468357838281E0
:1002F000938101979383828324813581468157813D
:10030000DA01C9010197A109B1098F5F9F4FAF4F72
:10031000BF4328F30BC0918333822282EA0CFB1C7B
:100320000C1D1D1DE482F5820683178383E0808304
:10033000248135814681578157FF1AC0C901AA27F8
:1003400097FDA095BA2F81709070A070B0705695EF
:10035000479537952795822B932BA42BB52B848318
:100360009583A683B7838281938101969383828349
:10037000DF0101C0D201CD01CDB7DEB7E2E10C94BF
:10038000850BA0E2B0E0E7ECF1E00C94750B69831B
:100390007A838B839C832D833E834F835887E9E048
:1003A000EE2EF12CEC0EFD1ECE010196B7010E943F
:1003B0009A058E010F5E1F4FCE010596B8010E946F
:1003C0009A058A8991E089278A8BC701B801AE0115
:1003D000475E5F4F0E9475000E94C504A096E6E04C
:1003E0000C94910BA0E2B0E0E8EFF1E00C94750BF7
:1003F00069837A838B839C832D833E834F835887C5
:10040000F9E0EF2EF12CEC0EFD1ECE010196B701A6
:100410000E949A058E010F5E1F4FCE010596B8010E
:100420000E949A05C701B801AE01475E5F4F0E9466
:1004300075000E94C504A096E6E00C94910BA0E222
:10044000B0E0E5E2F2E00C94690B69837A838B8378
:100450009C832D833E834F835887CE010196BE0136
:10046000675F7F4F0E949A05CE010596BE016F5EC1
:100470007F4F0E949A059985923088F08989823051
:10048000C8F0943019F4823051F404C0843029F457
:10049000923081F480E690E0C6C0923049F420E0CA
:1004A0009A858A89981321E02A87CE010996BBC0D4
:1004B000823049F420E09A858A89981321E02A8BBA
:1004C000CE014196B0C02D843E844F8458886D88FB
:1004D0007E888F88988CEE24FF248701AA24BB2471
:1004E000650140E050E060E070E0E0E0F0E0C10174
:1004F00081709070892BE9F0E60CF71C081D191D1E
:100500009A01AB012A0D3B1D4C1D5D1D80E090E062
:10051000A0E0B0E0E614F7040805190520F481E036
:1005200090E0A0E0B0E0BA01A901480F591F6A1F8E
:100530007B1FAA0CBB1CCC1CDD1C97FE08C081E0F5
:1005400090E0A0E0B0E0A82AB92ACA2ADB2A3196B6
:10055000E032F10549F0660C771C881C991C569412
:10056000479437942794C3CFFA85EA892B893C892D
:100570008B859C85280F391F2E5F3F4F17C0CA01FE
:1005800081709070892B61F016950795F794E79428
:1005900080E090E0A0E0B0E8E82AF92A0A2B1B2BC3
:1005A00076956795579547952F5F3F4F77FDE7CF36
:1005B0000CC0440F551F661F771F17FD4160EE0CDE
:1005C000FF1C001F111F21503040403090E05907A0
:1005D00090E0690790E4790760F32B8F3C8FDB0193
:1005E000CA018F779070A070B07080349105A1051A
:1005F000B10561F447FD0AC0E114F10401051105DC
:1006000029F0405C5F4F6F4F7F4F40781A8EFE1786
:1006100011F081E08A8F4D8F5E8F6F8F78A383E01A
:10062000898FCE0149960E94C504A096E2E10C9400
:10063000850BA8E1B0E0EFE1F3E00C94750B698362
:100640007A838B839C832D833E834F83588789E0F5
:10065000E82EF12CEC0EFD1ECE010196B7010E9492
:100660009A058E010F5E1F4FCE010596B8010E94BC
:100670009A058985823040F08989823028F0C70147
:10068000B8010E94120601C08FEF6896E6E00C9454
:10069000910BA8E1B0E0EFE4F3E00C94750B6983F3
:1006A0007A838B839C832D833E834F83588789E095
:1006B000E82EF12CEC0EFD1ECE010196B7010E9432
:1006C0009A058E010F5E1F4FCE010596B8010E945C
:1006D0009A058985823040F08989823028F0C701E7
:1006E000B8010E94120601C08FEF6896E6E00C94F4
:1006F000910BA8E1B0E0EFE7F3E00C94750B698390
:100700007A838B839C832D833E834F83588789E034
:10071000E82EF12CEC0EFD1ECE010196B7010E94D1
:100720009A058E010F5E1F4FCE010596B8010E94FB
:100730009A058985823040F08989823028F0C70186
:10074000B8010E94120601C081E06896E6E00C94B0
:10075000910BACE0B0E0EFEAF3E00C94790B698325
:100760007A838B839C83CE010196BE016B5F7F4FA2
:100770000E949A058D81823061F1823050F184307F
:1007800021F48E81882351F12EC02F81388537FDC9
:1007900020C06E812F3131051CF06623F9F023C093
:1007A0008EE190E0821B930B29853A854B855C8511
:1007B00004C056954795379527958A95D2F76623B5
:1007C000B1F050954095309521953F4F4F4F5F4F79
:1007D0000EC020E030E040E050E009C02FEF3FEFD6
:1007E0004FEF5FE704C020E030E040E050E8B9019F
:1007F000CA012C96E2E00C94950BA8E0B0E0E3E08F
:10080000F4E00C94710B7B018C016115710581057D
:10081000910519F482E0898360C083E089838EE1C9
:10082000C82ED12CDC82CB82ED82FE820F8318870A
:10083000C801B7010E947604FC013197F7FF3BC065
:10084000222733272E1B3F0B57016801022E04C0BD
:10085000D694C794B794A7940A94D2F740E050E096
:1008600060E070E081E090E0A0E0B0E004C0880FBC
:10087000991FAA1FBB1F2A95D2F70197A109B10999
:100880008E219F21A023B1230097A105B10521F05E
:1008900041E050E060E070E04A295B296C297D2945
:1008A0004D835E836F8378878EE190E08E1B9F0B74
:1008B0009C838B8312C0309781F00E2E04C0EE0C07
:1008C000FF1C001F111F0A94D2F7ED82FE820F83D6
:1008D0001887CE1ADF0ADC82CB821A82CE010196FB
:1008E0000E94C5042896EAE00C948D0BEF92FF92CB
:1008F0000F931F937B018C0180E0E81680E0F806DF
:1009000081E0080780E0180788F48FEFE816F1040B
:100910000105110531F028F088E090E0A0E0B0E09A
:1009200017C080E090E0A0E0B0E012C080E0E816E0
:1009300080E0F80680E0080781E0180728F088E1E9
:1009400090E0A0E0B0E004C080E190E0A0E0B0E082
:1009500020E230E040E050E0281B390B4A0B5B0BF3
:1009600004C016950795F794E7948A95D2F7F70196
:10097000E859FF4F8081281B310941095109C901FC
:100980001F910F91FF90EF900895DF92EF92FF92E9
:100990000F931F93FC01E480F58006811781D180BD
:1009A0008081823048F480E090E0A0E1B0E0E82A65
:1009B000F92A0A2B1B2BA5C0843009F49FC0823072
:1009C00021F4EE24FF24870105C0E114F1040105A0
:1009D000110519F4E0E0F0E096C0628173819FEFA9
:1009E000623879070CF05BC022E83FEF261B370B1B
:1009F0002A3131052CF020E030E040E050E02AC000
:100A0000B801A701022E04C07695679557954795C2
:100A10000A94D2F781E090E0A0E0B0E004C0880F33
:100A2000991FAA1FBB1F2A95D2F70197A109B109E7
:100A30008E219F21A023B1230097A105B10521F0AC
:100A400081E090E0A0E0B0E09A01AB01282B392BC7
:100A50004A2B5B2BDA01C9018F779070A070B070C0
:100A600080349105A105B10539F427FF09C0205C48
:100A70003F4F4F4F5F4F04C0215C3F4F4F4F5F4F81
:100A8000E0E0F0E02030A0E03A07A0E04A07A0E470
:100A90005A0710F0E1E0F0E079018A0127C06038E0
:100AA000710564F5FB01E158FF4FD801C7018F774D
:100AB0009070A070B07080349105A105B10539F433
:100AC000E7FE0DC080E490E0A0E0B0E004C08FE35A
:100AD00090E0A0E0B0E0E80EF91E0A1F1B1F17FF10
:100AE00005C016950795F794E794319687E016951B
:100AF0000795F794E7948A95D1F705C0EE24FF2473
:100B00008701EFEFF0E06E2F679566276795902FCE
:100B10009F77D794DD24D7948E2F8695492F462B27
:100B2000582F5D29B701CA011F910F91FF90EF90D7
:100B3000DF900895FC01DB01408151812281622F09
:100B40006F7770E0221F2227221F9381892F880F41
:100B5000822B282F30E0991F9927991F11969C937B
:100B6000119721153105A9F541155105610571054B
:100B700011F482E037C082E89FEF13969C938E9326
:100B800012979A01AB0167E0220F331F441F551FD4
:100B90006A95D1F783E08C930DC0220F331F441F59
:100BA000551F12968D919C911397019713969C93C4
:100BB0008E931297203080E0380780E0480780E469
:100BC000580758F314962D933D934D935C931797C4
:100BD00008952F3F310579F44115510561057105DF
:100BE00019F484E08C93089564FF03C081E08C9332
:100BF00012C01C9210C02F57304013963C932E9376
:100C0000129783E08C9387E0440F551F661F771F70
:100C10008A95D1F7706414964D935D936D937C9390
:100C2000179708951F93DC01FB019C91923008F403
:100C300047C08081823008F443C0943051F411964B
:100C40001C91843099F58181682F70E0611B7109D6
:100C50003FC0843021F0923031F48230B9F181818B
:100C6000882389F12DC011961C9111978230F1F0E3
:100C700081811817D9F412962D913C911397828196
:100C800093818217930794F028173907BCF01496C4
:100C90008D919D910D90BC91A02D2481358146812F
:100CA0005781281739074A075B0718F4112341F0C9
:100CB0000AC082179307A407B50740F4112319F05F
:100CC00061E070E005C06FEF7FEF02C060E070E0B0
:100CD000CB011F91089580916F0190917001892B34
:100CE00009F4B8C01092B00181E08093B7018091FF
:100CF000BB019091BC0101969093BC018093BB0114
:100D00008091BB019091BC01499708F4A7C090E085
:100D100006C0E92FF0E0EF58FE4F10829F5F8091F0
:100D2000B6019817B0F31092BC011092BB018091EC
:100D30009F018130D1F420E030E00FC0F901EF587D
:100D4000FE4F8081882339F48091AE0180838091A9
:100D5000B601282F30E02F5F3F4F8091B60190E021
:100D6000281739075CF310929F0120E030E06AC039
:100D7000F901EF58FE4F80818823A1F480916F0123
:100D8000909170010A9770F08091A3018083809107
:100D90006F01909170010A979093700180936F0199
:100DA0002F5F3F4FF901EF58FE4F80818823A1F458
:100DB00080916F0190917001059770F08091A7016B
:100DC000808380916F0190917001059790937001DD
:100DD00080936F012F5F3F4FF901EF58FE4F8081E5
:100DE0008823A1F480916F0190917001029770F0B7
:100DF0008091B301808380916F019091700102977F
:100E00009093700180936F012F5F3F4FF901EF586E
:100E1000FE4F80818823A1F480916F019091700131
:100E2000892B71F08091A501808380916F01909151
:100E3000700101979093700180936F012F5F3F4F76
:100E40002F5F3F4F8091B60190E0281739070CF4CF
:100E50008FCF08951092BC011092BB01089520E03D
:100E600030E00FC0F901EF58FE4F8081882339F43C
:100E70008091B40180838091B601282F30E02F5FEC
:100E80003F4F8091B60190E0281739075CF3089531
:100E9000CA9B1CC021E0209368019C9913C0A89AAA
:100EA00080916C018823D9F010926C0180916F01C0
:100EB0009091700101969093700180936F0120933F
:100EC0009F010895A89820936C010895A898809197
:100ED0006801882321F0109268010E942F0708956D
:100EE000CA9B1CC021E0209368019D9913C0A99A58
:100EF00080916C018823D9F010926C0180916F0170
:100F00009091700101969093700180936F012093EE
:100F10009F010895A99820936C010895A998809144
:100F20006801882321F0109268010E942F0708951C
:100F30009091B5018091B101981729F481E08093D7
:100F4000B0011092B5019091B5018091AF01981751
:100F500021F41092B0011092B50108951F93CF9320
:100F6000DF939091B5018091B201981789F41092A6
:100F7000B501AA9A10E0C0EADFE00E9448070E948B
:100F80007007CE010197F1F71F5F1837B1F7AA98E4
:100F9000DF91CF911F910895CD991EC08091A90135
:100FA0008823D1F01092A90120E030E048E00DC084
:100FB000F901EF58FE4F8081882329F44083809106
:100FC000B601282F30E02F5F3F4F8091B60190E0AF
:100FD000281739076CF30895CD9B03C081E08093F7
:100FE000A90108950E9448070E9470070E9498076F
:100FF0000E94AE070E94CC070E946B06089588E805
:1010000093E120E931E0F9013197F1F70197D9F740
:10101000A498A598A698A798D598D49888988A98BF
:10102000B898D298B998D398D198DB9AAC9AAD9ADF
:10103000AE9AAF9ADD9ADC9A909A929AC09AC19A27
:10104000DA9AD99AD09AA09AA19AA39AA29ABD9A0A
:10105000BC9ABA9A8F9ABB9AA898A998AB98AA9862
:10106000C598C498C29A9798C398D89888E893E18D
:1010700020E931E0F9013197F1F70197D9F70895A7
:1010800081E08093AD01C498C59880E197E220E9A2
:1010900031E0F9013197F1F70197D9F780E29EE449
:1010A00020E931E0F9013197F1F70197D9F720E014
:1010B00030E046E00DC0F901EF58FE4F80818823F3
:1010C00029F440838091B601282F30E02F5F3F4FF5
:1010D0008091B60190E0281739076CF31092B501A2
:1010E00081E080939E0108958091B501833099F548
:1010F00081E08093AD01C498C59880E197E220E932
:1011000031E0F9013197F1F70197D9F780E29EE4D8
:1011100020E931E0F9013197F1F70197D9F720E0A3
:1011200030E046E00DC0F901EF58FE4F8081882382
:1011300029F440838091B601282F30E02F5F3F4F84
:101140008091B60190E0281739076CF31092B50131
:1011500081E080939E0108958091B501873069F404
:101160001092B501AB9A82EE94E020E931E0F901EA
:101170003197F1F70197D9F7AB9808958091AD01B8
:10118000882309F456C08091AA019091AB01837025
:101190009070892B49F480916A0190916B010196BE
:1011A00090936B0180936A018091AA019091AB01A9
:1011B00001969093AB018093AA0180916A0190916E
:1011C0006B0180549C4958F08091B701813039F40B
:1011D000C59810926B0110926A0180936D019E99DF
:1011E00010C080916A0190916B01895E934048F034
:1011F00080916D01813029F4C59810926B01109295
:101200006A019E9916C08091B701882391F480EEFF
:101210009EE20197F1F79E990CC08091B701882357
:1012200041F4C59810926B0110926A0181E080939D
:10123000B7010895DF93CF93CDB7DEB760970FB6B0
:10124000F894DEBF0FBECDBF682FC398FE01319664
:1012500020E830E041E050E0A1E0B0E0862F90E0EF
:101260008217930724F0B183A083621B02C011820E
:101270001082359527954F5F5F4F32964930510563
:1012800069F7B19929C0C29881E080936E0180EA24
:1012900091E00197F1F7FE013F9640EA51E09E018F
:1012A0002150304080819181019711F4C29A01C090
:1012B000C298CA010197F1F73297E217F30791F745
:1012C000C29A80EE9EE20197F1F7B19B05C0C29AE7
:1012D000C39A21E030E002C020E030E0C90160960E
:1012E0000FB6F894DEBF0FBECDBFCF91DF9108954A
:1012F0000F931F93CF93DF930E9448070E947007BC
:10130000B19943C088E99FE00197F1F7B1993DC0D9
:10131000C39810E0C8E9DFE0CE010197F1F70E9421
:1013200048070E9470071F5F1531B1F700E048E0E1
:1013300050E020E030E060E27EE4B199040FCB01A0
:101340000197F1F7559547952F5F3F4F24303105B1
:10135000A1F70E9448070E94700710E048E050E0A3
:1013600020E030E060E27EE4B199140FCB010197F8
:10137000F1F7559547952F5F3F4F24303105A1F781
:101380000E9448070E94700702C000E010E00E941F
:101390006B06011711F000E010C0002371F0C39A32
:1013A00010E0C8E9DFE0CE010197F1F70E9448079D
:1013B0000E9470071F5F1431B1F7802FDF91CF912A
:1013C0001F910F9108951F93C39A11E034C00E949A
:1013D00078098093B5018091B501853011F410939F
:1013E000A8018091B501843011F41092C10180915F
:1013F000A801813041F48091C101813021F48091B4
:10140000C0018093A1018091A801813041F48091B5
:10141000C101882321F48091B9018093A1018091B9
:10142000A801882341F48091C101813021F4809189
:10143000C0018093A1018091B5018F3041F681E018
:101440008093B8011092B5011F910895AF92BF9299
:10145000CF92DF92EF92FF920F931F93CF93DF9380
:10146000CD995EC080E29EE40197F1F7CD9B43C029
:1014700057C06091690170E080E090E00E94FD0338
:101480005B016C0120E030E04AE755E40E941F0256
:101490007B018C0120E030E040E85FE30E947903AB
:1014A00088231CF461E070E022C0C801B70120E08D
:1014B0003FEF4FE757E40E9419031816A4F4C60142
:1014C000B50120E030E040E251E40E941F020E949A
:1014D000490005C0CE010197F1F7615070406115D8
:1014E0007105C1F70AC0C801B7010E944900CB01CC
:1014F0000197F1F702C0C0E9D1E08091AC010E94F0
:101500001A09892B09F4B5CF04C00E947809809389
:10151000B5018091B5018823C1F30E94E309FFCF93
:10152000DF91CF911F910F91FF90EF90DF90CF90BF
:10153000BF90AF90089588E28093B60120E030E03C
:1015400006C0F901EF58FE4F10822F5F3F4F809188
:10155000B60190E028173907A4F321E02093A401F5
:101560003DE03093B4018EE08093AC0187E080933E
:10157000C00183E08093AE0196E09093B9018BE0C7
:101580008093B2018CE08093AF013093B1019093CE
:10159000B9011092700110926F0180E197E290936F
:1015A000BE018093BD0110926B0110926A011092EE
:1015B000C1011092A80110929E011092BC011092DC
:1015C000BB012093BA011092AD011092A10184E1F8
:1015D000809369011092B5012093A90110926D01C9
:1015E0001092B8011092680188EE93E09093AB01DD
:1015F0008093AA012093A0011092B70110926E016E
:101600001092BF011092A2012093A60120939F0186
:1016100020936C012093A50182E08093A70184E0D0
:101620008093B30185E08093A3010E94E3090E94A7
:10163000260A88EE93E020E931E0F9013197F1F7CD
:101640000197D9F708950E94FF070E949B0A0E9404
:1016500040088091A4018823A1F08091B601282F31
:1016600030E0F901EF58FE4F8081882331F080810E
:101670008093A10110822FEF3FEF2150304037FFC0
:10168000F0CF8091A101882361F08091A1010E9497
:101690001A098093A4018091A401813011F4109261
:1016A000A1010E9478098093B50180919E01882351
:1016B00039F00E94F2070E94BE080E94AC0806C0E2
:1016C0008091A801882311F00E94F2070E947408FB
:1016D000C0CF2F923F924F925F926F927F928F92E4
:1016E0009F92AF92BF92CF92DF92EF92FF920F93B1
:1016F0001F93CF93DF93CDB7DEB7CA1BDB0B0FB6BB
:10170000F894DEBF0FBECDBF09942A883988488877
:101710005F846E847D848C849B84AA84B984C8840D
:10172000DF80EE80FD800C811B81AA81B981CE0F04
:10173000D11D0FB6F894DEBF0FBECDBFED010895E9
:04174000F894FFCF4B
:101744000000000000000000000102020303030384
:10175400040404040404040405050505050505053D
:10176400050505050505050506060606060606061D
:101774000606060606060606060606060606060605
:1017840006060606060606060707070707070707ED
:1017940007070707070707070707070707070707D5
:1017A40007070707070707070707070707070707C5
:1017B40007070707070707070707070707070707B5
:1017C400070707070707070708080808080808089D
:1017D4000808080808080808080808080808080885
:1017E4000808080808080808080808080808080875
:1017F4000808080808080808080808080808080865
:101804000808080808080808080808080808080854
:101814000808080808080808080808080808080844
:101824000808080808080808080808080808080834
:101834000808080808080808080808080808080824
:0818440008080808080808085C
:00000001FF
