:100000000C942A000C9447000C9447000C94470071
:100010000C9447000C9447000C9447000C94470044
:100020000C9447000C9447000C9447000C94470034
:100030000C9447000C9447000C9447000C94470024
:100040000C9447000C9447000C9447000C94470014
:100050000C94470011241FBECFE5D4E0DEBFCDBF16
:1000600010E0A0E6B0E0E0E9FEE002C005900D92ED
:10007000A236B107D9F710E0A2E6B0E001C01D92A8
:10008000AB3CB107E1F70E94CE060C9446070C94F6
:1000900000008091B300882309F402C1B0995BC0CD
:1000A00080916300882309F456C080EA9FE001979D
:1000B000F1F7B099F5C090E006C0E92FF0E0E559FE
:1000C000FF4F10829F5F8091BD009817B0F3109290
:1000D000630081E090E090939D0080939C0080916C
:1000E0009F009091A00001969093A00080939F00A4
:1000F00080919F009091A0008436910508F4D0C0B3
:1001000020E030E019C0F901E559FF4F80818823D4
:1001100089F480919400808380919F009091A00049
:10012000845690409093A00080939F008091BD00E2
:10013000282F30E02F5F3F4F8091BD0090E02817BF
:1001400039070CF31092630081E090E090939D00DA
:1001500080939C000895B09BA3C080919C009091D7
:100160009D00892B49F080919C0090919D00019603
:1001700090939D0080939C0020919C0030919D0065
:100180008091C4009091C5002817390709F085C0F7
:1001900020E030E06AC0F901E559FF4F80818823F3
:1001A000A1F48091660090916700889770F080912B
:1001B0006800808380919F009091A0008897909321
:1001C000A00080939F002F5F3F4FF901E559FF4F3B
:1001D00080818823A1F480919F009091A0000A97CC
:1001E00070F08091B600808380919F009091A00074
:1001F0000A979093A00080939F002F5F3F4FF901D3
:10020000E559FF4F80818823A1F480919F00909150
:10021000A000059770F08091C300808380919F00BB
:100220009091A00005979093A00080939F002F5F6E
:100230003F4FF901E559FF4F80818823A1F4809158
:100240009F009091A000892B71F0809169008083BC
:1002500080919F009091A00001979093A0008093BF
:100260009F002F5F3F4F2F5F3F4F8091BD0090E079
:10027000281739070CF48FCF80919F009091A00030
:10028000892B29F410929D0010929C0006C081E0F9
:1002900090E090939D0080939C0081E080936300A8
:1002A00008958091B300882309F430C1CC9985C0AA
:1002B00080916200882309F480C080EA9FE0019762
:1002C000F1F7CC9923C110929E001092B1001092C8
:1002D000AE001092B800C49881E08093BF0090E017
:1002E00006C0E92FF0E0E559FF4F10829F5F809133
:1002F000BD009817B0F3809160008130D1F420E008
:1003000030E00FC0F901E559FF4F8081882339F4AF
:100310008091B40080838091BD00282F30E02F5F52
:100320003F4F8091BD0090E0281739075CF3109291
:1003300060001092620081E090E09093A5008093AD
:10034000A4008091660090916700019690936700E9
:1003500080936600809166009091670084369105D5
:1003600008F4D4C020E030E019C0F901E559FF4F8E
:100370008081882389F48091BE008083809166000B
:100380009091670084569040909367008093660038
:100390008091BD00282F30E02F5F3F4F8091BD003E
:1003A00090E0281739070CF31092620081E090E08A
:1003B0009093A5008093A4000895CC9BA7C0809142
:1003C000A4009091A500892B49F08091A400909100
:1003D000A50001969093A5008093A4002091A4000D
:1003E0003091A5008091C4009091C500281739076D
:1003F00009F089C081E080936000C59820E030E07A
:100400006AC0F901E559FF4F80818823A1F48091EA
:10041000660090916700C29770F08091A100808380
:100420008091660090916700C297909367008093D7
:1004300066002F5F3F4FF901E559FF4F8081882308
:10044000A1F48091660090916700449770F08091CC
:10045000B7008083809166009091670044979093E5
:100460006700809366002F5F3F4FF901E559FF4F0A
:1004700080818823A1F480916600909167000597A0
:1004800070F080919A00808380916600909167005F
:10049000059790936700809366002F5F3F4FF901A7
:1004A000E559FF4F80818823A1F4809166009091E7
:1004B0006700892B71F08091A7008083809166008E
:1004C00090916700019790936700809366002F5F7B
:1004D0003F4F2F5F3F4F8091BD0090E028173907B5
:1004E0000CF48FCF8091660090916700892B29F4DE
:1004F0001092A5001092A40006C081E090E09093B5
:10050000A5008093A40081E08093620008959091FB
:10051000BC008091BA00981719F4C49A1092BC00DC
:1005200008959091BC008091A200981719F4109240
:10053000BC00C59808959091BC008091C6009817A2
:1005400029F481E080939E001092BC0080919E006F
:10055000882311F19C991CC0A89A8091AD00882332
:10056000E1F481E08093AD0090E00DC0E92FF0E070
:10057000E559FF4F8081882329F48091960080837C
:100580009091BD009F5F8091BD00981778F308950A
:100590001092AD00A8980895A89808959091BC0075
:1005A0008091B500981729F481E08093B1001092F2
:1005B000BC0082991CC093988091CA008823D1F412
:1005C00081E08093CA0090E00DC0E92FF0E0E5598A
:1005D000FF4F8081882329F48091AC008083909123
:1005E000BD009F5F8091BD00981778F30895109229
:1005F000CA00939A08959091BC0080916400981766
:1006000029F481E08093AE001092BC008091AE008E
:10061000882321F09D9902C0A99A0895A998089568
:100620009091BC008091B900981729F481E08093E3
:10063000B8001092BC008091B800882331F19F99D6
:1006400021C080EA9FE00197F1F79F991FC0809138
:10065000C7008823D9F481E08093C70090E00DC0E3
:10066000E92FF0E0E559FF4F8081882329F480913C
:10067000A90080839091BD009F5F8091BD00981775
:1006800078F308951092C7000895AB98089590915B
:10069000BC008091BB00981751F480919800909114
:1006A00099009093B0008093AF001092BC008091AD
:1006B000AF009091B000892B59F08091AF009091DC
:1006C000B00001979093B0008093AF00AA9A08956C
:1006D000AA980895CD9930C08091AA00882361F12D
:1006E0001092AA009798C49A10929E001092B1009E
:1006F0001092AE001092B80090E006C0E92FF0E032
:10070000E559FF4F10829F5F8091BD009817B0F3AD
:1007100090E00DC0E92FF0E0E559FF4F808188237C
:1007200029F48091B20080839091BD009F5F8091F9
:10073000BD00981778F30895CD9B08C08091AA005A
:10074000882321F4C49881E08093AA0008959091B1
:10075000BC008091A200981719F41092BC00C598B3
:100760000E9410030E9451010E9449000E94470309
:100770000E946A039091BC008091BA00981719F406
:10078000C49A1092BC000E949B020E94CE020E945A
:10079000FB02089588E893E120E931E0F9013197FF
:1007A000F1F70197D9F7A4988A98A698A798B898CE
:1007B000D198D598D498D398B998A598AD9AAC9A71
:1007C000929AAE9AAF9AC09AD99ADD9ADC9ADB9A3D
:1007D000C19AA09A8B9AA39AA29AD09ABD9ABC9ACF
:1007E000BA9A8F9ABB9AA19AA898939AAB98AA980A
:1007F000C598C498C29A9798C398D89AA99888E837
:1008000093E120E931E0F9013197F1F70197D9F748
:100810000895C99B08C080916A00882321F08091C7
:100820009B00882361F4C9996AC080916A0088237B
:1008300009F065C080919B00882309F460C080E4C2
:100840009FE10197F1F7C99B08C080916A00882356
:1008500021F080919B00882361F4C99950C0809158
:100860006A00882309F04BC080919B00882309F41B
:1008700046C010929B00C5981092B3008091C900A9
:10088000882331F41092AB0081E08093930005C07F
:1008900081E08093AB00109293008091C90088237F
:1008A00099F090E00DC0E92FF0E0E559FF4F80810D
:1008B000882329F48091C80080839091BD009F5FB8
:1008C0008091BD00981778F38091C9008823B9F40E
:1008D0008091A600813099F490E00DC0E92FF0E0FE
:1008E000E559FF4F8081882329F48091C2008083DD
:1008F0009091BD009F5F8091BD00981778F3089597
:100900008091BC00833081F581E08093B300C59A6B
:1009100080E197E220E931E0F9013197F1F70197A1
:10092000D9F780E29EE420E931E0F9013197F1F74F
:100930000197D9F790E00DC0E92FF0E0E559FF4F9E
:100940008081882329F48091C20080839091BD002A
:100950009F5F8091BD00981778F31092BC001092B1
:10096000AB0081E08093930008958091BC008730B4
:1009700011F51092BC0090E006C0E92FF0E0E559B7
:10098000FF4F10829F5F8091BD009817B0F31092C7
:100990009E001092B1001092AE001092B800C49860
:1009A000AB9A88EE93E020E931E0F9013197F1F755
:1009B0000197D9F7AB980895CB993DC08091A800D5
:1009C000882309F438C080E29EE40197F1F7CB99BF
:1009D00032C01092A80081E08093B300C59A80E1F4
:1009E00097E220E931E0F9013197F1F70197D9F762
:1009F00080E29EE420E931E0F9013197F1F70197B7
:100A0000D9F790E00DC0E92FF0E0E559FF4F808164
:100A1000882329F48091C20080839091BD009F5F5C
:100A20008091BD00981778F31092BC001092AB0033
:100A300081E0809393000895DF93CF93CDB7DEB725
:100A400060970FB6F894DEBF0FBECDBF682FC39876
:100A5000FE01319620E830E041E050E0A1E0B0E056
:100A6000862F90E08217930724F0B183A083621B46
:100A700002C011821082359527954F5F5F4F3296E5
:100A80004930510569F7B19929C0C29881E0809336
:100A9000650080EA91E00197F1F7FE013F9640EA98
:100AA00051E09E012150304080819181019711F4E5
:100AB000C29A01C0C298CA010197F1F73297E217B2
:100AC000F30791F7C29A80EE9EE20197F1F7B19B8E
:100AD00005C0C29AC39A21E030E002C020E030E0B5
:100AE000C90160960FB6F894DEBF0FBECDBFCF919F
:100AF000DF9108950F931F930E9449000E945101B6
:100B0000B19937C088E99FE00197F1F7B19931C0F9
:100B1000C39820E04CE95FE0CA010197F1F72F5F2D
:100B20002531D1F700E048E050E020E030E060E21D
:100B30007EE4B199040FCB010197F1F755954795E4
:100B40002F5F3F4F24303105A1F710E048E050E01F
:100B500020E030E060E27EE4B199140FCB01019710
:100B6000F1F7559547952F5F3F4F24303105A1F799
:100B700002C000E010E00E9449000E9451010117EC
:100B800011F000E00CC0002351F0C39A20E048E9C6
:100B90005FE0CA010197F1F72F5F2431D1F7802F71
:100BA0001F910F910895CD9913C08091B3008823B0
:100BB00079F487E00E941C05892BD9F304C00E94B8
:100BC0007A058093BC008091BC008823C1F3FFCFDD
:100BD00008951F93C39A11E012C00E947A05809372
:100BE000BC008091BC00853011F41093A600809168
:100BF000BC00843021F41093C9001093AB00909195
:100C0000BC008091A300981741F70E94D30588EE9D
:100C100093E020E931E0F9013197F1F70197D9F735
:100C20008091A600813051F48091C900813031F467
:100C30008091C8000E941C05892BD1F381E080932C
:100C4000C1001092BC001F9108951F9384E180930E
:100C5000BD0090E006C0E92FF0E0E559FF4F10829B
:100C60009F5F8091BD009817B0F311E0109397003B
:100C700084E08093C80063E06093C20086E08093C4
:100C8000AC0087E0809396003AE03093A7004BE0F9
:100C900040939A005CE05093B7002DE02093A100B0
:100CA0008EE08093BE008FE08093690080E18093A6
:100CB000C30081E18093B60082E18093680083E104
:100CC0008093940082E08093B4001093C00089E088
:100CD0008093A90095E09093B2008093BA0060934E
:100CE000A3009093C6003093B50088E08093640021
:100CF0004093BB002093B9005093A20080E197E29B
:100D00009093C5008093C4001092C9001092A60071
:100D10001093AB0010939B00109293001092B300BD
:100D2000109295001092BC001093AA001092C1007E
:100D30001092B0001092AF0080EA9FE0909399006B
:100D4000809398001093A8001092BF001092A50005
:100D50001092A40010929D0010929C0010926A00C4
:100D6000109265001092C70010929E001092AE0083
:100D70001092B1001092AD001092CA001092A00023
:100D800010929F0010926700109266000E94E90581
:100D9000C99902C010936A001F9108950E94CA0366
:100DA0000E942506809197008823A1F08091BD00C4
:100DB000282F30E0F901E559FF4F8081882331F079
:100DC00080818093950010822FEF3FEF21503040BB
:100DD00037FFF0CF80919500882361F080919500D6
:100DE0000E941C058093970080919700813011F438
:100DF000109295008091BC00882321F40E947A050E
:100E00008093BC008091AB00882311F00E946A039C
:100E100080919300882321F00E94A7030E94B504CB
:100E20000E94DC040E9480040E9409048091BC009E
:100E3000833009F4B7CF8091BC00873009F4B2CF7A
:100E40008091BC00893009F4ADCF8091BC008C301A
:100E500009F4A8CF8091BC00853009F4A3CF80911C
:100E6000BC00883009F49ECF8091BC008A3009F420
:100E700099CF8091BC008D3009F494CF8091BC0053
:100E80008B3009F48FCF1092BC008CCFF894FFCF39
:020E900001005F
:00000001FF
