:1000000012C02CC02BC02AC029C028C027C026C0BF
:1000100025C024C023C022C021C020C01FC01EC0D4
:100020001DC01CC01BC011241FBECFE5D4E0DEBF25
:10003000CDBF10E0A0E6B0E0E6E9FAE002C005902E
:100040000D92AA37B107D9F711E0AAE7B0E001C0D5
:100050001D92A134B107E1F70BD11BC5D1CF80FFB1
:1000600002C0AB9A01C0AB9881FF02C0AA9A01C03E
:10007000AA9882FF02C0AD9A01C0AD9883FF02C06A
:10008000AC9A0895AC9808951F93182FA99A829559
:100090008F70E5DFA998A99A812FE1DFA99885E8FB
:1000A0008A95F1F71F910895A898EEDF0895A89A10
:1000B000EBDF0895CF93DF93EC0102C02196F7DFC9
:1000C00088818823D9F7DF91CF9108956295660FD3
:1000D000660F607C680F862F8068E6DF089581E0F8
:1000E000E3DF80EA9FE00197F1F7089582E0DCDF2B
:1000F00080EA9FE00197F1F708951F93CF93DF9374
:10010000A39AA29AA59AA49AA19AA09A80E395E7A5
:100110000197F1F7A898A99810E0C0E1D7E2A99A51
:1001200083E09DDFA998CE010197F1F71F5F13309F
:10013000B1F7A99A82E093DFA99880ED97E0019743
:10014000F1F788E2B1DF88E0AFDF81E0ADDF80EA80
:100150009FE00197F1F786E0A7DF8CE0A5DFDF9154
:10016000CF911F91089590BD89B988E18AB986E839
:1001700080BD08955D9BFECF8CB908958BB18078CA
:1001800008955F9BFECF8CB108950F931F935D9BE5
:10019000FECF8CB95D9BFECF6CB95D9BFECF4CB999
:1001A0005D9BFECF2CB9860F840F820F20E030E0DC
:1001B00070E00AC0F801E20FF31FE0815D9BFECF03
:1001C000ECB98E0F2F5F3F4F261737079CF35D9BCF
:1001D000FECF81958CB91F910F9108958091630096
:1001E000909164000197D9F04AE050E0FA01EE0FD7
:1001F000FF1FE356FF4F20813181FA01EE0FFF1FF1
:10020000E95EFE4F808191812817390719F02FEFA1
:100210003FEF07C04F5F5F4F4231510539F721E093
:1002200030E0C901089580916700909168000197BE
:10023000D9F04AE050E0FA01EE0FFF1FEF50FF4FF8
:1002400020813181FA01EE0FFF1FED53FF4F8081B6
:1002500091812817390719F02FEF3FEF07C04F5F43
:100260005F4F4231510539F721E030E0C90108956F
:100270008F929F92AF92BF92CF92DF92EF92FF92B6
:100280000F931F93DF93CF93CDB7DEB765970FB66C
:10029000F894DEBF0FBECDBFA59AAD9A80E49CE96D
:1002A00028EC30E0F9013197F1F70197D9F710BC4C
:1002B00083E389B988E18AB986E880BD80E197E265
:1002C00028EC30E0F9013197F1F70197D9F782E096
:1002D00060E041E02EEF00E010E057DF88EE93E0B1
:1002E00028EC30E0F9013197F1F70197D9F782E076
:1002F00060E041E025EF00E010E047DF88EE93E0AA
:1003000028EC30E0F9013197F1F70197D9F782E055
:1003100060E041E024EF00E010E037DF88EE93E09A
:1003200028EC30E0F9013197F1F70197D9F782E035
:1003300060E041E020EC00E010E027DF88EE93E091
:1003400028EC30E0F9013197F1F70197D9F782E015
:1003500060E041E026EF00E010E017DF88EE93E078
:1003600028EC30E0F9013197F1F70197D9F782E0F5
:1003700060E041E022EF00E010E007DF88EE93E06C
:1003800028EC30E0F9013197F1F70197D9F782E0D5
:1003900060E041E021EF00E010E0F7DE88EE93E05E
:1003A00028EC30E0F9013197F1F70197D9F782E0B5
:1003B00060E041E024E000E010E0E7DE88EE93E05A
:1003C00028EC30E0F9013197F1F70197D9F781E096
:1003D000898382E061E041E028EB8E010F5F1F4FCF
:1003E000D4DE88EE93E028EC30E0F9013197F1F7A4
:1003F0000197D9F782E08A8361E041E028EB8E0122
:100400000E5F1F4FC2DE88EE93E028EC30E0F9016A
:100410003197F1F70197D9F783E08B8382E061E0B0
:1004200041E028EB8E010D5F1F4FAFDE88EE93E0B9
:1004300028EC30E0F9013197F1F70197D9F784E022
:100440008C8382E061E041E028EB8E010C5F1F4F5E
:100450009CDE88EE93E028EC30E0F9013197F1F76B
:100460000197D9F785E08D8382E061E041E028EBD8
:100470008E010B5F1F4F89DE88EE93E028EC30E0A1
:10048000F9013197F1F70197D9F786E08E8382E081
:1004900061E041E028EB8E010A5F1F4F76DE88EEB7
:1004A00093E028EC30E0F9013197F1F70197D9F7A3
:1004B00087E08F8382E061E041E028EB8E01095FF5
:1004C0001F4F63DE88EE93E028EC30E0F9013197AE
:1004D000F1F70197D9F788E0888782E061E041E091
:1004E00028EB8E01085F1F4F50DE88EE93E028EC6A
:1004F00030E0F9013197F1F70197D9F78FEF8A874B
:100500008B8782E062E041E027EE8E01065F1F4F9D
:100510003CDE88EE93E028EC30E0F9013197F1F70A
:100520000197D9F78FEF8C878D8788E262E041E0F1
:1005300027EE8E01045F1F4F28DE88EE93E028EC43
:1005400030E0F9013197F1F70197D9F7DE011E96F6
:10055000E1E7F0E088E001900D928150E1F788E258
:1005600068E041E027EE8E01025F1F4F0EDE84EF50
:1005700091E028EC30E0F9013197F1F70197D9F7D4
:1005800081E0898788E261E041E024EE8E01075F27
:100590001F4FFBDD84EF91E028EC30E0F90131974B
:1005A000F1F70197D9F728ECA22EB12C9AE9992EF0
:1005B0008BE3882E01E0E02EF12C10E4C12E1CE923
:1005C000D12E82E060E041E025EE00E010E0DDDDCC
:1005D00020E030E05F9BFECF8CB190E0F901EE0FA0
:1005E000FF1FDF01A351BF4F11969C938E93809103
:1005F000670090916800019751F48D919C91ED53A3
:10060000FF4F9183808310926800109267002F5FE4
:100610003F4F25313105F1F68091010190910201A2
:10062000019709F437C0809101019091020102976E
:1006300089F18091010190910201039759F1809114
:10064000010190910201049729F18091010190919B
:1006500002010597F9F0809101019091020106973E
:10066000C9F08091010190910201079799F0809162
:10067000010190910201089769F080910101909128
:100680000201099739F080910101909102010A97C6
:1006900009F0A6C020916500309166008091FF00AE
:1006A000909100012817390709F49AC08091FF0042
:1006B0009091000190936600809365008091030102
:1006C00090910401029709F08BC0ADDD019709F00C
:1006D00087C08091010190910201019749F48091B6
:1006E0007B0090917C00019690937C0080937B002E
:1006F0008091010190910201029749F480917B0061
:1007000090917C00019690937C0080937B00809177
:10071000010190910201039749F480917B0090912F
:100720007C00019690937C0080937B008091010176
:1007300090910201049749F480917B0090917C0094
:10074000019690937C0080937B00809101019091B1
:100750000201059749F480917B0090917C000196FD
:1007600090937C0080937B00809101019091020125
:10077000069749F480917B0090917C0001969093BC
:100780007C0080937B00809101019091020107978A
:1007900049F480917B0090917C00019690937C00BD
:1007A00080937B008091010190910201089749F4A8
:1007B00080917B0090917C00019690937C008093C7
:1007C0007B008091010190910201099749F4809189
:1007D0007B0090917C00019690937C0080937B003D
:1007E00020E030E0F901EE0FFF1FDF01A351BF4F02
:1007F0008D919C91ED53FF4F918380832F5F3F4FED
:100800002531310579F788EE93E0F5013197F1F75D
:100810000197D9F788E260E041E02FE900E010E0BD
:10082000B4DC80E090E08A30910599F45F9BFECFC4
:100830008CB190E090938800809387005F9BFECFFF
:100840008CB190E090938A00809389008BE090E0D7
:1008500003C05F9BFECF2CB10196853191051CF33F
:100860008091890090918A00892B21F410928C004C
:1008700010928B0088EE93E0F5013197F1F7019724
:10088000D9F780918B0090918C00892B09F0BBC027
:100890008091870090918800019759F1809187009D
:1008A00090918800029729F18091870090918800AB
:1008B0000397F9F080918700909188000497C9F020
:1008C0008091870090918800069799F08091870029
:1008D00090918800079769F0809187009091880037
:1008E000089739F08091870090918800099709F066
:1008F0008AC08091890090918A00019709F083C095
:100900008091870090918800019731F08091870055
:1009100090918800069769F48091830090918400FB
:1009200002969093840080938300F0928C00E09272
:100930008B008091870090918800029731F0809120
:10094000870090918800079769F4809183009091C7
:10095000840004969093840080938300F0928C002E
:10096000E0928B008091870090918800039731F08E
:100970008091870090918800089769F480918300A6
:10098000909184000A969093840080938300F09263
:100990008C00E0928B0080918700909188000497F2
:1009A00031F08091870090918800099769F48091D7
:1009B00083009091840044969093840080938300F8
:1009C000F0928C00E0928B005D9BFECF88E28CB9A8
:1009D0005D9BFECF81E08CB95D9BFECF81E08CB941
:1009E0005D9BFECF9CB85D9BFECF81E08CB95D9B8B
:1009F000FECF8CB880E090E05F9BFECF2CB10196DB
:100A00008A309105C9F78091830090918400892BE9
:100A1000C1F08091950090919600049790F0AD9868
:100A2000C6010197F1F7AD9A1092960010929500C9
:100A3000809183009091840001979093840080932B
:100A4000830080917B0090917C00892BC1F0809184
:100A5000950090919600049790F0AD98C60101978B
:100A6000F1F7AD9A109296001092950080917B005C
:100A700090917C00019790937C0080937B00809103
:100A80009500909196000196909396008093950022
:060A900098CDF894FFCFA1
:100A960001FFFF0100FFFF01000C00000100010142
:0A0AA60000FFFFFFFFFFFFFFFF004E
:040000050080006017
:00000001FF
