:100000000C942A000C9447000C9447000C94470071
:100010000C9447000C9447000C9447000C94470044
:100020000C9447000C9447000C9447000C94470034
:100030000C9447000C9447000C9447000C94470024
:100040000C9447000C9447000C9447000C94470014
:100050000C94470011241FBECFE5D4E0DEBFCDBF16
:1000600011E0A8E6B1E001C01D92AE3EB107E1F794
:1000700011E0A0E6B0E0E0E5FDE102C005900D92E0
:10008000A836B107D9F70E94DD0C0C94A60E0C948B
:100090000000EF92FF920F931F937B018C0120E0F1
:1000A00030E040E05FE40E94490388238CF0C801FF
:1000B000B70120E030E040E05FE40E94C1010E940F
:1000C000A9039B01AC01205030404040504806C07D
:1000D000C801B7010E94A9039B01AC01B901CA0183
:1000E0001F910F91FF90EF900895A0E0B0E0EBE733
:1000F000F0E00C946F0EDC012B01FA019C91923020
:1001000008F439C1EB018881823008F433C194309E
:1001100069F4843009F02FC111969C91119789815F
:10012000981709F428C1A0E6B0E025C1843009F48D
:1001300021C18230A9F4923009F01DC19A01AD01AC
:1001400088E0EA010990AE01E90109929E0181501F
:10015000C1F7E201898111969C918923818308C1AD
:10016000923009F407C112962D903C901397EB0141
:100170008A819B811496AD90BD90CD90DC901797AD
:10018000EC80FD800E811F819101281B390BB90184
:1001900037FF04C066277727621B730B6032710537
:1001A0000CF061C0121613066CF537014801062EDB
:1001B00004C096948794779467940A94D2F721E0C8
:1001C00030E040E050E004C0220F331F441F551FB1
:1001D0006A95D2F721503040404050402E213F21B7
:1001E00040235123211531054105510521F021E01E
:1001F00030E040E050E079018A01E628F72808293C
:1002000019293CC0232BD1F1260E371E350146019A
:10021000062E04C096948794779467940A94D2F734
:1002200021E030E040E050E004C0220F331F441FC3
:10023000551F6A95D2F721503040404050402A2146
:100240003B214C215D21211531054105510521F04E
:1002500021E030E040E050E059016A01A628B728CB
:10026000C828D9280BC0821593052CF01C01AA249C
:10027000BB24650103C0EE24FF24870111969C91E5
:10028000D20111968C91981709F445C0992339F041
:10029000A80197012A193B094C095D0906C0A6016E
:1002A00095012E193F09400B510B57FD08C01182D3
:1002B0003382228224833583468357831DC081E0A5
:1002C00081833382228288279927DC01821B930B4A
:1002D000A40BB50B84839583A683B7830DC0220F2F
:1002E000331F441F551F24833583468357838281E0
:1002F000938101979383828324813581468157813D
:10030000DA01C9010197A109B1098F5F9F4FAF4F72
:10031000BF4328F30BC0918333822282EA0CFB1C7B
:100320000C1D1D1DE482F5820683178383E0808304
:10033000248135814681578157FF1AC0C901AA27F8
:1003400097FDA095BA2F81709070A070B0705695EF
:10035000479537952795822B932BA42BB52B848318
:100360009583A683B7838281938101969383828349
:10037000DF0101C0D201CD01CDB7DEB7E2E10C94BF
:100380008B0EA0E2B0E0E7ECF1E00C947B0E698309
:100390007A838B839C832D833E834F835887E9E048
:1003A000EE2EF12CEC0EFD1ECE010196B7010E943F
:1003B0009A058E010F5E1F4FCE010596B8010E946F
:1003C0009A058A8991E089278A8BC701B801AE0115
:1003D000475E5F4F0E9475000E94C504A096E6E04C
:1003E0000C94970EA0E2B0E0E8EFF1E00C947B0EE5
:1003F00069837A838B839C832D833E834F835887C5
:10040000F9E0EF2EF12CEC0EFD1ECE010196B701A6
:100410000E949A058E010F5E1F4FCE010596B8010E
:100420000E949A05C701B801AE01475E5F4F0E9466
:1004300075000E94C504A096E6E00C94970EA0E219
:10044000B0E0E5E2F2E00C946F0E69837A838B836F
:100450009C832D833E834F835887CE010196BE0136
:10046000675F7F4F0E949A05CE010596BE016F5EC1
:100470007F4F0E949A059985923088F08989823051
:10048000C8F0943019F4823051F404C0843029F457
:10049000923081F480E690E0C6C0923049F420E0CA
:1004A0009A858A89981321E02A87CE010996BBC0D4
:1004B000823049F420E09A858A89981321E02A8BBA
:1004C000CE014196B0C02D843E844F8458886D88FB
:1004D0007E888F88988CEE24FF248701AA24BB2471
:1004E000650140E050E060E070E0E0E0F0E0C10174
:1004F00081709070892BE9F0E60CF71C081D191D1E
:100500009A01AB012A0D3B1D4C1D5D1D80E090E062
:10051000A0E0B0E0E614F7040805190520F481E036
:1005200090E0A0E0B0E0BA01A901480F591F6A1F8E
:100530007B1FAA0CBB1CCC1CDD1C97FE08C081E0F5
:1005400090E0A0E0B0E0A82AB92ACA2ADB2A3196B6
:10055000E032F10549F0660C771C881C991C569412
:10056000479437942794C3CFFA85EA892B893C892D
:100570008B859C85280F391F2E5F3F4F17C0CA01FE
:1005800081709070892B61F016950795F794E79428
:1005900080E090E0A0E0B0E8E82AF92A0A2B1B2BC3
:1005A00076956795579547952F5F3F4F77FDE7CF36
:1005B0000CC0440F551F661F771F17FD4160EE0CDE
:1005C000FF1C001F111F21503040403090E05907A0
:1005D00090E0690790E4790760F32B8F3C8FDB0193
:1005E000CA018F779070A070B07080349105A1051A
:1005F000B10561F447FD0AC0E114F10401051105DC
:1006000029F0405C5F4F6F4F7F4F40781A8EFE1786
:1006100011F081E08A8F4D8F5E8F6F8F78A383E01A
:10062000898FCE0149960E94C504A096E2E10C9400
:100630008B0EA8E1B0E0EFE1F3E00C947B0E698350
:100640007A838B839C832D833E834F83588789E0F5
:10065000E82EF12CEC0EFD1ECE010196B7010E9492
:100660009A058E010F5E1F4FCE010596B8010E94BC
:100670009A058985823040F08989823028F0C70147
:10068000B8010E94120601C08FEF6896E6E00C9454
:10069000970EA8E1B0E0EFE4F3E00C947B0E6983E1
:1006A0007A838B839C832D833E834F83588789E095
:1006B000E82EF12CEC0EFD1ECE010196B7010E9432
:1006C0009A058E010F5E1F4FCE010596B8010E945C
:1006D0009A058985823040F08989823028F0C701E7
:1006E000B8010E94120601C08FEF6896E6E00C94F4
:1006F000970EA8E1B0E0EFE7F3E00C947B0E69837E
:100700007A838B839C832D833E834F83588789E034
:10071000E82EF12CEC0EFD1ECE010196B7010E94D1
:100720009A058E010F5E1F4FCE010596B8010E94FB
:100730009A058985823040F08989823028F0C70186
:10074000B8010E94120601C081E06896E6E00C94B0
:10075000970EACE0B0E0EFEAF3E00C947F0E698313
:100760007A838B839C83CE010196BE016B5F7F4FA2
:100770000E949A058D81823061F1823050F184307F
:1007800021F48E81882351F12EC02F81388537FDC9
:1007900020C06E812F3131051CF06623F9F023C093
:1007A0008EE190E0821B930B29853A854B855C8511
:1007B00004C056954795379527958A95D2F76623B5
:1007C000B1F050954095309521953F4F4F4F5F4F79
:1007D0000EC020E030E040E050E009C02FEF3FEFD6
:1007E0004FEF5FE704C020E030E040E050E8B9019F
:1007F000CA012C96E2E00C949B0EA8E0B0E0E3E086
:10080000F4E00C94770E7B018C0161157105810574
:10081000910519F482E0898360C083E089838EE1C9
:10082000C82ED12CDC82CB82ED82FE820F8318870A
:10083000C801B7010E947604FC013197F7FF3BC065
:10084000222733272E1B3F0B57016801022E04C0BD
:10085000D694C794B794A7940A94D2F740E050E096
:1008600060E070E081E090E0A0E0B0E004C0880FBC
:10087000991FAA1FBB1F2A95D2F70197A109B10999
:100880008E219F21A023B1230097A105B10521F05E
:1008900041E050E060E070E04A295B296C297D2945
:1008A0004D835E836F8378878EE190E08E1B9F0B74
:1008B0009C838B8312C0309781F00E2E04C0EE0C07
:1008C000FF1C001F111F0A94D2F7ED82FE820F83D6
:1008D0001887CE1ADF0ADC82CB821A82CE010196FB
:1008E0000E94C5042896EAE00C94930EEF92FF92C2
:1008F0000F931F937B018C0180E0E81680E0F806DF
:1009000081E0080780E0180788F48FEFE816F1040B
:100910000105110531F028F088E090E0A0E0B0E09A
:1009200017C080E090E0A0E0B0E012C080E0E816E0
:1009300080E0F80680E0080781E0180728F088E1E9
:1009400090E0A0E0B0E004C080E190E0A0E0B0E082
:1009500020E230E040E050E0281B390B4A0B5B0BF3
:1009600004C016950795F794E7948A95D2F7F70196
:10097000E859FF4F8081281B310941095109C901FC
:100980001F910F91FF90EF900895DF92EF92FF92E9
:100990000F931F93FC01E480F58006811781D180BD
:1009A0008081823048F480E090E0A0E1B0E0E82A65
:1009B000F92A0A2B1B2BA5C0843009F49FC0823072
:1009C00021F4EE24FF24870105C0E114F1040105A0
:1009D000110519F4E0E0F0E096C0628173819FEFA9
:1009E000623879070CF05BC022E83FEF261B370B1B
:1009F0002A3131052CF020E030E040E050E02AC000
:100A0000B801A701022E04C07695679557954795C2
:100A10000A94D2F781E090E0A0E0B0E004C0880F33
:100A2000991FAA1FBB1F2A95D2F70197A109B109E7
:100A30008E219F21A023B1230097A105B10521F0AC
:100A400081E090E0A0E0B0E09A01AB01282B392BC7
:100A50004A2B5B2BDA01C9018F779070A070B070C0
:100A600080349105A105B10539F427FF09C0205C48
:100A70003F4F4F4F5F4F04C0215C3F4F4F4F5F4F81
:100A8000E0E0F0E02030A0E03A07A0E04A07A0E470
:100A90005A0710F0E1E0F0E079018A0127C06038E0
:100AA000710564F5FB01E158FF4FD801C7018F774D
:100AB0009070A070B07080349105A105B10539F433
:100AC000E7FE0DC080E490E0A0E0B0E004C08FE35A
:100AD00090E0A0E0B0E0E80EF91E0A1F1B1F17FF10
:100AE00005C016950795F794E794319687E016951B
:100AF0000795F794E7948A95D1F705C0EE24FF2473
:100B00008701EFEFF0E06E2F679566276795902FCE
:100B10009F77D794DD24D7948E2F8695492F462B27
:100B2000582F5D29B701CA011F910F91FF90EF90D7
:100B3000DF900895FC01DB01408151812281622F09
:100B40006F7770E0221F2227221F9381892F880F41
:100B5000822B282F30E0991F9927991F11969C937B
:100B6000119721153105A9F541155105610571054B
:100B700011F482E037C082E89FEF13969C938E9326
:100B800012979A01AB0167E0220F331F441F551FD4
:100B90006A95D1F783E08C930DC0220F331F441F59
:100BA000551F12968D919C911397019713969C93C4
:100BB0008E931297203080E0380780E0480780E469
:100BC000580758F314962D933D934D935C931797C4
:100BD00008952F3F310579F44115510561057105DF
:100BE00019F484E08C93089564FF03C081E08C9332
:100BF00012C01C9210C02F57304013963C932E9376
:100C0000129783E08C9387E0440F551F661F771F70
:100C10008A95D1F7706414964D935D936D937C9390
:100C2000179708951F93DC01FB019C91923008F403
:100C300047C08081823008F443C0943051F411964B
:100C40001C91843099F58181682F70E0611B7109D6
:100C50003FC0843021F0923031F48230B9F181818B
:100C6000882389F12DC011961C9111978230F1F0E3
:100C700081811817D9F412962D913C911397828196
:100C800093818217930794F028173907BCF01496C4
:100C90008D919D910D90BC91A02D2481358146812F
:100CA0005781281739074A075B0718F4112341F0C9
:100CB0000AC082179307A407B50740F4112319F05F
:100CC00061E070E005C06FEF7FEF02C060E070E0B0
:100CD000CB011F9108958091D301882309F4C9C0E5
:100CE000CC995BC080916F01882309F456C080EADB
:100CF0009FE00197F1F7CC99BCC081E08093DD01C2
:100D0000809170018130D1F420E030E00FC0F90112
:100D1000EF57FE4F8081882339F48091D40180837E
:100D20008091DB01282F30E02F5F3F4F8091DB0166
:100D300090E0281739075CF31092700110926F0150
:100D400081E090E09093C5018093C40180917F0180
:100D50008F5F80937F0180917F018A3008F489C082
:100D600020E030E04AE012C0F901EF57FE4F8081E9
:100D7000882351F4408380917F018A5080937F01C2
:100D80008091DB01282F30E02F5F3F4F8091DB0106
:100D900090E02817390744F30895CC9B6AC08091EE
:100DA000C4019091C501892B49F08091C4019091B3
:100DB000C50101969093C5018093C4012091C4019F
:100DC0003091C5018091E5019091E601281739071E
:100DD00009F04CC081E080937001C59820E030E0BC
:100DE00065E052E041E038C0F901EF57FE4F8081E5
:100DF000882361F480917F01853040F06083809189
:100E00007F01855080937F012F5F3F4FF901EF579E
:100E1000FE4F8081882361F480917F01823040F011
:100E2000508380917F01825080937F012F5F3F4FDD
:100E3000F901EF57FE4F8081882361F480917F0193
:100E4000882341F0408380917F01815080937F010E
:100E50002F5F3F4F2F5F3F4F8091DB0190E02817BE
:100E6000390714F21092C5011092C40181E08093F9
:100E70006F0108959D9960C08091E201882309F473
:100E80005BC08091D301882309F056C080EA9FE0BF
:100E90000197F1F79D99BCC081E08093DD018091BD
:100EA000BB018130D1F420E030E00FC0F901EF57F1
:100EB000FE4F8081882339F48091D4018083809112
:100EC000DB01282F30E02F5F3F4F8091DB0190E066
:100ED000281739075CF31092BB011092E20181E000
:100EE00090E09093E4018093E30180917F018F5F14
:100EF00080937F0180917F018A3008F489C020E0CF
:100F000030E04AE012C0F901EF57FE4F808188239C
:100F100051F4408380917F018A5080937F018091BA
:100F2000DB01282F30E02F5F3F4F8091DB0190E005
:100F30002817390744F308959D9B6AC08091E30107
:100F40009091E401892B49F08091E3019091E401B3
:100F500001969093E4018093E3012091E3013091A5
:100F6000E4018091E9019091EA012817390709F01D
:100F70004CC081E08093BB01C59820E030E065E083
:100F800052E041E038C0F901EF57FE4F80818823DD
:100F900061F480917F01853040F0608380917F0112
:100FA000855080937F012F5F3F4FF901EF57FE4F30
:100FB0008081882361F480917F01823040F05083EA
:100FC00080917F01825080937F012F5F3F4FF90115
:100FD000EF57FE4F8081882361F480917F01882341
:100FE00041F0408380917F01815080937F012F5F8A
:100FF0003F4F2F5F3F4F8091DB0190E0281739076B
:1010000014F21092E4011092E30181E08093E20176
:101010000895B09909C08091BA01882329F0A89851
:1010200081E08093780105C09C9902C0A89A01C014
:10103000A898B09B1FC0809178018823D9F01092A6
:101040007801979A20E030E00FC0F901EF57FE4F8A
:101050008081882339F48091D90180838091DB01DC
:10106000282F30E02F5F3F4F8091DB0190E0281761
:1010700039075CF30895B09909C08091BA018823BB
:1010800029F0A99881E08093780105C09D9902C05C
:10109000A99A01C0A998B09B1FC0809178018823AC
:1010A000D9F010927801979A20E030E00FC0F90152
:1010B000EF57FE4F8081882339F48091D9018083D6
:1010C0008091DB01282F30E02F5F3F4F8091DB01C3
:1010D00090E0281739075CF308959091DA01809128
:1010E000D701981719F481E08093D6019091DA0125
:1010F0008091D501981711F41092D6018091D601F4
:10110000882321F09F9902C0AB9A0895AB98089567
:101110009091DA018091D801981751F48091BF0124
:101120009091C0019093D2018093D1011092DA0185
:101130008091D1019091D201892B59F08091D101F8
:101140009091D20101979093D2018093D101AA9AF4
:101150000895AA980895CD992EC08091C80188233A
:1011600051F11092C801979820E030E006C0F901D3
:10117000EF57FE4F10822F5F3F4F8091DB0190E0D1
:1011800028173907A4F320E030E048E00DC0F9014A
:10119000EF57FE4F8081882329F440838091DB0143
:1011A000282F30E02F5F3F4F8091DB0190E0281720
:1011B00039076CF30895CD9B03C081E08093C8018B
:1011C00008950E9409080E943B080E946D080E9431
:1011D0006B060E943A070E9488080E94AB08089597
:1011E00088E893E120E931E0F9013197F1F70197BF
:1011F000D9F7A498A598A698A798B898D198D59803
:10120000D498D398B998AC9AAD9AAE9AAF9AC09A3E
:10121000D99ADD9ADC9ADB9AC19AA09AA19AA39AEC
:10122000A29ABD9ABC9ABA9A8F9ABB9AA898A99882
:10123000AB98AA98C598C498C29A9798C39888E81A
:1012400093E120E931E0F9013197F1F70197D9F7FE
:101250000895C99B08C080918001882321F0809166
:10126000C201882361F4C99974C0809180018823E8
:1012700009F06FC08091C201882309F46AC080E43C
:101280009FE10197F1F7C99B08C0809180018823F5
:1012900021F08091C201882361F4C9995AC08091DC
:1012A0008001882309F055C08091C201882309F488
:1012B00050C01092C201C598C4981092D301809179
:1012C000EC01882331F41092CA0181E08093B501CA
:1012D00005C081E08093CA011092B5018091EC01B4
:1012E0008823C1F020E030E00FC0F901EF57FE4F36
:1012F0008081882339F48091EB0180838091DB0128
:10130000282F30E02F5F3F4F8091DB0190E02817BE
:1013100039075CF38091EC018823D9F48091C601F0
:101320008130B9F420E030E046E00DC0F901EF571C
:10133000FE4F8081882329F440838091DB01282F90
:1013400030E02F5F3F4F8091DB0190E02817390795
:101350006CF308958091DA01833009F043C081E095
:101360008093D301C49AC59A40E951E076E061E0E8
:1013700033C080E197E2FA013197F1F70197D9F78D
:101380008091B8019091B90101979093B901809330
:10139000B80180E29EE4FA013197F1F70197D9F79D
:1013A00020E030E00DC0F901EF57FE4F8081882327
:1013B00029F470838091DB01282F30E02F5F3F4FAD
:1013C0008091DB0190E0281739076CF31092DA0165
:1013D0001092CA016093B5018091B8019091B90152
:1013E000892B39F608958091DA01873069F41092DB
:1013F000DA01AB9A88EE93E020E931E0F901319708
:10140000F1F70197D9F7AB980895CB9952C0809125
:10141000C701882309F44DC080E29EE40197F1F7EB
:10142000CB9947C01092C70181E08093D301C49A41
:10143000C59A20E931E010C080E197E2F9013197C7
:10144000F1F70197D9F78091B8019091B90101970F
:101450009093B9018093B8018091B8019091B9013E
:10146000892B51F780E29EE420E931E0F9013197C0
:10147000F1F70197D9F720E030E046E00DC0F9011F
:10148000EF57FE4F8081882329F440838091DB0150
:10149000282F30E02F5F3F4F8091DB0190E028172D
:1014A00039076CF31092DA011092CA0181E080933F
:1014B000B50108959E992EC08091C301882351F1F2
:1014C0001092C301979820E030E006C0F901EF5771
:1014D000FE4F10822F5F3F4F8091DB0190E0281775
:1014E0003907A4F320E030E048E00DC0F901EF57E0
:1014F000FE4F8081882329F440838091DB01282FCF
:1015000030E02F5F3F4F8091DB0190E028173907D3
:101510006CF308959E9B03C081E08093C3010895FE
:10152000DF93CF93CDB7DEB760970FB6F894DEBFE9
:101530000FBECDBF682FC398FE01319620E830E082
:1015400041E050E0A1E0B0E0862F90E082179307E1
:1015500024F0B183A083621B02C0118210823595F2
:1015600027954F5F5F4F32964930510569F7B19922
:1015700029C0C29881E080937D0180EA91E00197C3
:10158000F1F7FE013F9640EA51E09E0121503040C4
:1015900080819181019711F4C29A01C0C298CA0159
:1015A0000197F1F73297E217F30791F7C29A80EEAD
:1015B0009EE20197F1F7B19B05C0C29AC39A21E060
:1015C00030E002C020E030E0C90160960FB6F89428
:1015D000DEBF0FBECDBFCF91DF9108950F931F9354
:1015E000CF93DF930E9409080E943B080E946B067C
:1015F000B19943C088E99FE00197F1F7B1993DC0E7
:10160000C39810E0C8E9DFE0CE010197F1F70E942E
:1016100009080E943B081F5F1531B1F700E048E060
:1016200050E020E030E060E27EE4B199040FCB01AD
:101630000197F1F7559547952F5F3F4F24303105BE
:10164000A1F70E9409080E943B0810E048E050E022
:1016500020E030E060E27EE4B199140FCB01019705
:10166000F1F7559547952F5F3F4F24303105A1F78E
:101670000E9409080E943B0802C000E010E00E949E
:101680003A070E946B06011711F000E010C000231A
:1016900071F0C39A10E0C8E9DFE0CE010197F1F7DD
:1016A0000E9409080E943B081F5F1431B1F7802F88
:1016B000DF91CF911F910F9108951F93C39A11E06D
:1016C00042C00E94EE0A8093DA018091DA018530EF
:1016D00011F41093C6018091DA01843021F4109343
:1016E000EC011093CA018091DA01863011F4109355
:1016F000C9018091DA01873011F41093BA01809109
:10170000C601813041F48091EC01813021F4809157
:10171000EB018093BC018091C601813041F480913E
:10172000EC01882321F48091E1018093BC01809138
:10173000C601882341F48091EC01813021F480912D
:10174000EB018093BC018091DA018A3009F0B9CFB6
:1017500081E08093DF011092DA011F910895AF922A
:10176000BF92CF92DF92EF92FF920F931F93CF938E
:10177000DF93CD995CC08091D301882309F443C0E5
:1017800056C06091790170E080E090E00E94FD0316
:101790005B016C0120E030E04AE755E40E941F0243
:1017A0007B018C0120E030E040E85FE30E94790398
:1017B00088231CF461E070E022C0C801B70120E07A
:1017C0003FEF4FE757E40E9419031816A4F4C6012F
:1017D000B50120E030E040E251E40E941F020E9487
:1017E000490005C0CE010197F1F7615070406115C5
:1017F0007105C1F70AC0C801B7010E944900CB01B9
:101800000197F1F702C0C0E9D1E08091CE010E94BA
:10181000900A892B09F4B5CF04C00E94EE0A809388
:10182000DA018091DA018823C1F30E945D0BDF9118
:10183000CF911F910F91FF90EF90DF90CF90BF90CD
:10184000AF90089584E18093DB0120E030E006C092
:10185000F901EF57FE4F10822F5F3F4F8091DB0160
:1018600090E028173907A4F341E04093BE012BE034
:101870002093DE015CE05093E0013DE03093D9011C
:101880008EE08093CE0187E08093EB0193E090930C
:10189000C10188E08093ED019093D40186E08093AC
:1018A000E1012093D8015093D5013093D701809363
:1018B000E1012093E70110927F0120E137E23093AC
:1018C000E6012093E50180E69AEE9093EA01809389
:1018D000E9013093B4012093B30110927B0110927F
:1018E0007A011092EC011092C6011092C901109277
:1018F000BA014093CA014093C2011092B50181E040
:1019000090E09093B9018093B8011092E401109295
:10191000E3014093E2011092D3011092E801409359
:10192000B7014093CD011092BC0184E1809379010D
:101930001092DA014093C80110927E011092DF01EB
:101940004093BD0140937C011092D2011092D101CD
:1019500080EA9FE09093C0018093BF0110927801CC
:1019600088EE93E09093CC018093CB014093C70124
:101970004093BB011092DD011092C5011092C40189
:101980001092800110927D011092D0011092CF012F
:101990004093C3010E945D0B0E94AF0B88EE93E061
:1019A00020E931E0F9013197F1F70197D9F7C999A9
:1019B00003C081E08093800108950E94F0080E9496
:1019C000220C8091BE018823A1F08091DB01282F99
:1019D00030E0F901EF57FE4F8081882331F080819C
:1019E0008093BC0110822FEF3FEF2150304037FF32
:1019F000F0CF8091BC01882361F08091BC010E94EE
:101A0000900A8093BE018091BE01813011F4109242
:101A1000BC010E94EE0A8093DA018091CA018823FA
:101A200011F00E94660E8091B501882339F00E9462
:101A3000E1080E945A0A0E94F30906C08091C6017B
:101A4000882311F00E94E1080E94050A0E94AA0959
:101A50000E942909B6CF8091BA01882309F450C0A9
:101A6000B09B44C080917301882379F49C990DC088
:101A700080E49FE10197F1F780917301882329F4B5
:101A80009C9903C081E08093730180917301882346
:101A900069F09C9B0BC08091710190917201059639
:101AA000909372018093710110927301809174017F
:101AB000882309F449C020E030E00FC0F901EF5756
:101AC000FE4F8081882339F48091D90180838091F1
:101AD000DB01282F30E02F5F3F4F8091DB0190E04A
:101AE000281739075CF310927401089580E49FE190
:101AF0000197F1F7B09928C081E0809374010895AF
:101B000080917301882379F49C990DC080E49FE152
:101B10000197F1F780917301882329F49C9903C000
:101B200081E08093730180917301882369F09C9B0D
:101B30000BC0809171019091720105969093720192
:101B4000809371011092730108958091BA018823E6
:101B500009F450C0B09B44C080917501882379F48A
:101B60009D990DC080E49FE10197F1F78091750187
:101B7000882329F49D9903C081E0809375018091A9
:101B80007501882369F09D9B0BC080917101909134
:101B900072010A96909372018093710110927501FF
:101BA00080917601882309F440C020E030E00FC026
:101BB000F901EF57FE4F8081882339F48091D901D4
:101BC00080838091DB01282F30E02F5F3F4F809191
:101BD000DB0190E0281739075CF310927601089535
:101BE00080E49FE10197F1F7B0991FC081E08093F5
:101BF0007601089580917501882379F49D990DC02F
:101C000080E49FE10197F1F780917501882329F421
:101C10009D9903C081E080937501809175018823AF
:101C200021F09D9B02C01092750108958091710171
:101C300090917201892B09F440C020E030E00FC080
:101C4000F901EF57FE4F8081882339F48091E70135
:101C500080838091DB01282F30E02F5F3F4F809100
:101C6000DB0190E0281739075CF3809171019091B6
:101C700072010597909372018093710180917701B1
:101C80008823D9F420E030E00FC0F901EF57FE4F70
:101C90008081882339F48091D40180838091DB0195
:101CA000282F30E02F5F3F4F8091DB0190E0281715
:101CB00039075CF381E08093770180917101909105
:101CC0007201892B11F41092770108950E942B0D57
:101CD0000E94A50D0E94160E0E94AB0808952F9237
:101CE0003F924F925F926F927F928F929F92AF92AC
:101CF000BF92CF92DF92EF92FF920F931F93CF93F9
:101D0000DF93CDB7DEB7CA1BDB0B0FB6F894DEBF8F
:101D10000FBECDBF09942A88398848885F846E84B5
:101D20007D848C849B84AA84B984C884DF80EE80FF
:101D3000FD800C811B81AA81B981CE0FD11D0FB608
:101D4000F894DEBF0FBECDBFED010895F894FFCF2C
:101D50000000000000000000000102020303030372
:101D6000040404040404040405050505050505052B
:101D7000050505050505050506060606060606060B
:101D800006060606060606060606060606060606F3
:101D900006060606060606060707070707070707DB
:101DA00007070707070707070707070707070707C3
:101DB00007070707070707070707070707070707B3
:101DC00007070707070707070707070707070707A3
:101DD000070707070707070708080808080808088B
:101DE0000808080808080808080808080808080873
:101DF0000808080808080808080808080808080863
:101E00000808080808080808080808080808080852
:101E10000808080808080808080808080808080842
:101E20000808080808080808080808080808080832
:101E30000808080808080808080808080808080822
:101E40000808080808080808080808080808080812
:081E500008080808080808084A
:00000001FF
