:1000000012C021C020C01FC01EC01DC01CC01BC00C
:100010001AC094C018C017C016C015C014C013C0B1
:1000200012C011C010C011241FBECFE5D4E0DEBF46
:10003000CDBF10E0A0E6B0E001C01D92A637B10729
:10004000E1F7D2D201C3DCCF86990CC080E197E200
:1000500029E130E0F9013197F1F70197D9F7869B53
:10006000FECF90D00895979A8AE390E20197F1F736
:1000700097980895C79A8AE390E2FC013197F1F7C7
:10008000C7980197F1F70895B09B15C0989B13C0CE
:10009000999B11C09A9B0FC0849B0DC080B3282FE1
:1000A00030E086E0369527958A95E1F720953095E2
:1000B0002170307002C021E030E0C901089587B39B
:1000C000806987BB88B38F7688BBC09AA39AAB9AA6
:1000D00085B3876085BB81B3806A81BB82B38F752E
:1000E00082BB82B3806582BB0895E9DF80E395E738
:1000F00029E130E0F9013197F1F70197D9F7C4DF31
:10010000892B09F0FFCF07D00895959AC49A0895D6
:100110009598C498089583B7856083BF12BE89B748
:10012000816089BF789410926100109260000895F8
:1001300012BE109261001092600008951F920F92FB
:100140000FB60F9211248F939F938091600090912E
:100150006100019690936100809360009F918F9160
:100160000F900FBE0F901F9018959598C49880E13E
:1001700097E229E130E0F9013197F1F70197D9F7DA
:10018000F2D00895F2D0959AC49A05C0849903C01C
:100190006ADF849BFECF869B02C0B39BF7CF869B12
:1001A000FECFE3DF0895CF93DF9362E070E025D2C6
:1001B0007093630060936200D8D0C0E0D0E002C0CA
:1001C00059DF21968091620090916300C817D9078A
:1001D000BCF3959AC49A12BE10926100109260000E
:1001E0001DC0849912C012BE10926100109260006E
:1001F000849BFECF80916200909163000197909361
:100200006300809362002FDF09C0809160009091AD
:100210006100869718F09598C498FFCF809162008E
:100220009091630018161906E4F29598C4989BD033
:10023000DF91CF910895AF92BF92CF92DF92EF926C
:10024000FF920F931F93892B49F0672B81F5452B64
:1002500071F5232B61F5EF2849F029C0672B49F090
:10026000452B29F5232B19F5012B09F5CD2849F04C
:100270001EC0452B59F0232BD1F4012BC1F4EF28DC
:10028000B1F480E090E0AB2881F00DC0232B19F48D
:1002900020E030E00EC0012B51F4EF2841F480E063
:1002A00090E0CD2811F081E090E09C0102C021E0B7
:1002B00030E0C9011F910F91FF90EF90DF90CF9038
:1002C000BF90AF900895AF92BF92CF92DF92EF921E
:1002D000FF920F931F93892B59F0012BC1F5672BC8
:1002E000B1F5452BA1F5232B91F5EF2859F02FC03F
:1002F000672B59F0EF2859F5452B49F5232B39F594
:10030000012B29F5CD2859F022C0452B69F0CD28C5
:10031000F1F4232BE1F4012BD1F4EF28C1F480E0B8
:1003200090E0AB2891F00FC0232B19F420E030E0CF
:1003300010C0AB2861F4012B51F4EF2841F480E0A8
:1003400090E0CD2811F081E090E09C0102C021E016
:1003500030E0C9011F910F91FF90EF90DF90CF9097
:10036000BF90AF900895AB980895AB9A0895AF925F
:10037000BF92CF92DF92EF92FF920F931F9386B3BB
:1003800090E021E030E08227932781709070909375
:1003900075008093740083B390E082279327817067
:1003A0009070909365008093640083B390E096957D
:1003B0008795822793278170907090937100809326
:1003C000700083B390E096958795969587958227E0
:1003D0009327817090709093730080937200809146
:1003E000740090917500892B99F48091640090912C
:1003F0006500892B69F48091700090917100892BC0
:1004000039F48091720090917300892B09F4E3C054
:1004100086EA9EE00197F1F786B390E021E030E0B4
:10042000822793278170907090936D0080936C0069
:1004300083B390E082279327817090709093690036
:100440008093680083B390E09695879582279327E1
:100450008170907090936F0080936E0083B390E0F2
:1004600096958795969587958227932781709070AA
:10047000909367008093660080917400909175005E
:10048000609164007091650040917000509171001E
:10049000209172003091730000916C0010916D00FA
:1004A000E0906800F0906900C0906E00D0906F00FE
:1004B000A0906600B0906700BEDE892B11F0AB9A69
:1004C00027DE88EA91E60197F1F786B390E021E014
:1004D00030E0822793278170907090936D00809315
:1004E0006C0083B390E08227932781709070909383
:1004F00069008093680083B390E096958795822782
:1005000093278170907090936F0080936E0083B3F7
:1005100090E0969587959695879582279327817089
:100520009070909367008093660080917400909122
:100530007500609164007091650040917000509169
:100540007100209172003091730000916C00109145
:100550006D00E0906800F0906900C0906E00D0904F
:100560006F00A0906600B0906700ADDE892B19F097
:10057000AB9ACEDDFFCF10926B0010926A00809193
:10058000740090917500892B19F08AE090E01AC0F0
:100590008091640090916500892B19F084E190E0CE
:1005A00011C08091700090917100892B19F082E345
:1005B00090E008C08091720090917300892B59F0EF
:1005C00084E690E090936B0080936A0080916A00CB
:1005D00090916B00E8DD1F910F91FF90EF90DF90FD
:1005E000CF90BF90AF90089580DDBDDEBB98C39AD9
:1005F000BEDEB399FDCF28DDFBCF97FB092E072682
:100600000AD077FD04D00CD006D000201AF47095E3
:1006100061957F4F0895F6F7909581959F4F0895C6
:10062000AA1BBB1B51E107C0AA1FBB1FA617B70718
:1006300010F0A61BB70B881F991F5A95A9F7809534
:0C0640009095BC01CD010895F894FFCF07
:00000001FF
