:1000000023C03DC03CC03BC03AC039C038C037C037
:1000100036C035C034C033C032C031C030C02FC04C
:1000200014C52DC078C72BC02AC029C028C027C03E
:1000300026C025C08DC18AC18DC18CC18BC188C12C
:1000400085C188C187C186C111241FBECFEFD4E00E
:10005000DEBFCDBF11E0A0E0B1E0EAE1F1E102C016
:1000600005900D92A838B107D9F711E0A8E8B1E0E2
:1000700001C01D92A43AB107E1F797D34CC8C0CF95
:100080000F931F93DF93CF9300D00F92CDB7DEB7BE
:1000900082E060E041E02EEF00E010E06CD084EF01
:1000A00091E028EC30E0F9013197F1F70197D9F7A9
:1000B00081E08A831B8282E062E041E027EE8E01CC
:1000C0000E5F1F4F58D084EF91E028EC30E0F9012B
:1000D0003197F1F70197D9F782E060E041E026EE31
:1000E00000E010E048D084EF91E028EC30E0F90126
:1000F0003197F1F70197D9F781E0898382E061E0D8
:1001000041E024EE8E010F5F1F4F35D084EF91E068
:1001100028EC30E0F9013197F1F70197D9F70F900A
:100120000F900F90CF91DF911F910F910895DC01F7
:1001300040E050E090E070E09B012150304006C06C
:10014000EA0FFB1F8081480F511D9F5FE92FF0E0F0
:10015000E217F307ACF3E0E020E031E0241B3109C3
:10016000A60FB71F11978C9190E02817390709F453
:10017000E1E08E2F0895AF92BF92CF92DF92EF927F
:10018000FF920F931F93CF93DF93C82EF62EE42E8A
:10019000D22E2AD78F2D28D78E2D26D78D2D24D736
:1001A000CF0CCE0CCD0CE80100E010E0EF2CFF24CA
:1001B00080EDA82E87E0B82E09C0888115D7C5012B
:1001C0000197F1F78991C80E0F5F1F4F0E151F059C
:1001D000A4F38C2D819508D7DF91CF911F910F91BA
:1001E000FF90EF90DF90CF90BF90AF9008950F9366
:1001F0001F9388E260E041E02FE900E010E0BBDF00
:1002000088EE93E028EC30E0F9013197F1F701979F
:10021000D9F782E060E041E025EE00E010E0ABDFDE
:100220001F910F9108950F931F93DF93CF930F9218
:10023000CDB7DEB7198288E261E041E02AE98E019C
:100240000F5F1F4F98DF0F90CF91DF911F910F919C
:1002500008950F931F93DF93CF9300D00F92CDB7E4
:10026000DEB780E29EE428EC30E0F9013197F1F747
:100270000197D9F788E260E041E02EEF00E010E05E
:100280007ADF80ED97E028EC30E0F9013197F1F763
:100290000197D9F78FEF8A838B8388E262E041E090
:1002A00027EE8E010E5F1F4F66DF80ED97E028EC92
:1002B00030E0F9013197F1F70197D9F781E08983AF
:1002C00088E261E041E024EE8E010F5F1F4F53DFB3
:1002D00080ED97E028EC30E0F9013197F1F70197D4
:1002E000D9F70F900F900F90CF91DF911F910F9141
:1002F0000895CF93DF93EC0188818130C1F5898126
:100300008B3061F58A81823041F48C81882379F1C8
:100310008D81813061F585E02BC0883241F58D817A
:10032000882321F48E81863009F493DF9D819923FF
:10033000F1F08E818130D9F4892F90E0FC01319762
:10034000EA30F10548F4E65EFF4F099484E110C0FD
:100350008AE00EC068DF0BC08FEF0AC08D81882352
:1003600031F48E81843019F474DF8EEF01C080E0A7
:1003700090E0DF91CF9108950F931F93DF93CF9378
:1003800000D0CDB7DEB719821A8288E262E041E080
:1003900027EE8E010F5F1F4FEEDE0F900F90CF9173
:1003A000DF911F910F9108950F931F93DF93CF93C8
:1003B0000F92CDB7DEB781E0898388E261E041E04A
:1003C0002AE98E010F5F1F4FD6DE0F90CF91DF918C
:1003D0001F910F910895299A2A9A2B9A579A5E9AFB
:1003E000289A549A5B9A5D9A3C9A249A2C9844983D
:1003F0005F9A08955F9808955F9A08955C980895AC
:100400005C9A08952C9A88EE93E028EC30E0F9018C
:100410003197F1F70197D9F72C9888EE93E028EC03
:1004200030E0F9013197F1F70197D9F70895449A2F
:1004300088EE93E028EC30E0F9013197F1F701976D
:10044000D9F7449888EE93E028EC30E0F901319731
:10045000F1F70197D9F7089528EC30E0449A88E83D
:1004600093E1F9013197F1F70197D9F7449888E8BA
:1004700093E1F9013197F1F70197D9F7EFCF823086
:1004800039F0833041F0813049F480E090E002C0DF
:1004900080E290E0E8C580E490E0E5C5089580E45E
:1004A00090E0DCC51F93182F80E490E0D7D5AB0116
:1004B000BC01410F511D611D711D83E0E0DF1F91E3
:1004C000089580E290E0CAC51F93182F80E290E063
:1004D000C5D5AB01BC01410F511D611D711D82E0ED
:1004E000CEDF1F91089580E090E0B8C51F93182FCC
:1004F00080E090E0B3D5AB01BC01410F511D611DFF
:10050000711D81E0BCDF1F9108954B990BC04B9B7F
:10051000FECF84EF91E028EC30E0F9013197F1F75C
:100520000197D9F76BDF80E090E0A0E0B0E00EC06B
:10053000813826E9920728E9A20720E0B20719F4DA
:100540005FDF81E008950196A11DB11D4B99F0CFA9
:1005500057DF84EC99E028EC30E0F9013197F1F7AE
:100560000197D9F780E008954E990BC04E9BFECFBE
:1005700084EF91E028EC30E0F9013197F1F7019731
:10058000D9F738DF80E090E0A0E0B0E00EC081381D
:1005900026E9920728E9A20720E0B20719F42CDF28
:1005A00081E008950196A11DB11D4E99F0CF24DF81
:1005B0003EDF28DF84EC99E028EC30E0F901319748
:1005C000F1F70197D9F780E00895DF93CF93CDB786
:1005D000DEB7A0970FB6F894DEBF0FBECDBFAE0159
:1005E0004F5F5F4F2AE030E016D55CD0A0960FB683
:1005F000F894DEBF0FBECDBFCF91DF910895EF928B
:10060000FF920F931F9379018A013AD0C801B70175
:10061000DCDF1F910F91FF90EF900895662311F09A
:100620002D9A01C02D98399A3A9A529A3B9A43983A
:100630005A984298419887FD439A86FD5A9A85FDBB
:10064000429A84FD419A409A00C0409843985A9833
:100650004298419883FD439A82FD5A9A81FD429ABD
:1006600080FD419A409A00C04098419A429A5A9A15
:10067000439A0895E0E2FEE43197F1F760E0CECFCF
:10068000662311F4805801C08054F4CF81E0F2CF8A
:10069000E0E2FEE43197F1F78A3011F480ECEACF22
:1006A00061E0BCCFCF93DF93EC0101C0F1DF899112
:1006B0008823E1F7DF91CF9108951F93182F259A92
:1006C000389A399A3A9A529A3B9A80E49CE901976F
:1006D000F1F7429A419A409A00C0409880E097E230
:1006E0000197F1F7409A00C0409880E890E0FC0143
:1006F0003197F1F7409A00C04098FC013197F1F72B
:100700004198409A00C040980197F1F788E2B2DF23
:1007100088E0B0DFBBDF86E0ADDF812FABDF1F916C
:1007200008956F927F928F929F92AF92BF92CF92D5
:10073000DF92EF92FF920F931F93A8DFD4DE7B012D
:100740008C01BFDE5B016C01AADE3B014C01C801DC
:10075000B7013BDF80E061E093DFC601B50135DF23
:1007600087E061E08DDFC401B3012FDF1F910F919E
:10077000FF90EF90DF90CF90BF90AF909F908F90C1
:100780007F906F90089581E040E050E060E070E07D
:1007900076DE82E040E050E060E070E070DE83E012
:1007A00040E050E060E070E06ACEFF920F931F934C
:1007B000CF93DF9310DE20DE23DEEBD3F4D306D419
:1007C0008CE07BDF789445DD5BDCC8ECD0E083E037
:1007D000F82E02E00CDD88E893E1FE013197F1F795
:1007E0000197D9F7189B04C081E080938F0102C064
:1007F00010928F014D9B04C081E08093900102C054
:10080000109290011B99A4C08CDF13E098C0199935
:1008100019C01A9917C03ADF80E091E043DF80E306
:1008200095E7FE013197F1F70197D9F719990CC0B7
:100830001A990AC0A8DF80E061E022DF80E191E040
:1008400031DF02C080E002C081E014E0199933C0BA
:10085000113011F4882361F019DF85E191E022DF86
:1008600061E070E080E090E0B0DE8BE191E01ADFC3
:1008700010E015C0BFDD212F30E040E050E080E007
:1008800061E0BDDE4B990BC0B7DDD1DD88EE93E0B2
:10089000FE013197F1F70197D9F71F5FABDD199B87
:1008A000E9CFAADD84EC99E0FE013197F1F70197D9
:1008B000D9F711E03CC01A9933C0123011F48823E3
:1008C00061F0E4DE85E191E0EDDE61E070E080E082
:1008D00090E07BDE8BE191E0E5DE10E015C08ADD83
:1008E000212F30E040E050E080E061E088DE4E996A
:1008F0000BC082DD9CDD88EE93E0FE013197F1F7BD
:100900000197D9F71F5F76DD1A9BE9CF75DD84EC7F
:1009100099E0FE013197F1F70197D9F712E007C08E
:10092000133011F4882319F0B1DEFBDE13E07FDD14
:1009300088EE93E0FE013197F1F70197D9F71B9B01
:1009400066CF109293011092910181E08093920101
:1009500080918F018823A1F080919001882381F0FC
:1009600095DE80E291E09EDE1092930181E080931B
:10097000920101C05CDD189B02C04D99FBCF86DE61
:1009800080918F01882361F091E090939101809193
:1009900093018130B1F0909393019093920119C02B
:1009A0008091900190919301882339F000939101F7
:1009B000923039F00093930109C0F0929101933085
:1009C00019F41092920105C0F092930181E0809396
:1009D000920180919201882309F4FCCE57DE809128
:1009E0009101813049F48EE291E05CDE80E061E0CB
:1009F00047DE8DE391E01EC0823049F48EE291E043
:100A000051DE80E061E03CDE84E491E013C083309D
:100A100009F0E0CE8EE291E045DE80E061E030DE7C
:100A20008AE491E03FDE61E070E080E090E0CDDDBF
:100A30008DE491E037DE61E070E080E090E0C5DDBC
:100A40008BE191E02FDE05DCC5CE1F920F920FB631
:100A50000F921124AF92BF92CF92DF92FF920F9329
:100A60001F932F933F934F935F936F937F938F9336
:100A70009F93AF93BF93CF93DF93EF93FF938091B7
:100A80008C0190918D0122E08237920708F424C2F4
:100A90008AD285E991E060918B0149DB882309F4D2
:100AA00011C2809197018230A9F49091990190939D
:100AB000890180918801891719F410928E010FC065
:100AC00085E991E016DC80938E01809199018093F5
:100AD000880105C085E991E00CDC80938E0180914E
:100AE0008E01882309F4EEC15FDC46DC80918E0123
:100AF000FDDC80919101813009F058C010918E0188
:100B0000C5DD80E060E0BCDD83E591E0CBDD609198
:100B10008E0170E080E090E058DD8DE060E0B0DDB7
:100B20008DE591E0BFDD80E061E0AADD81E691E046
:100B3000B9DD8DE061E0A4DD8DE591E0B3DDC0E1DC
:100B4000D7E231C0E2DC882389F4115020918E0174
:100B500030E0211B3109442737FD4095542F8AE0AE
:100B600061E04DDDCE010197F1F71DC08FDD80E220
:100B700091E098DD80E061E083DD612F70E080E04E
:100B800090E023DD8DE691E08DDD60918E0170E0D7
:100B900080E090E01ADD8BE191E084DD80918E01B0
:100BA000811B80DC59DC112369F683C1823009F096
:100BB00058C010918E016ADD80E060E061DD83E560
:100BC00091E070DD60918E0170E080E090E0FDDCEE
:100BD0008DE060E055DD8DE591E064DD80E061E071
:100BE0004FDD81E691E05EDD8DE061E049DD8DE580
:100BF00091E058DDC0E1D7E231C0B6DC882389F44A
:100C0000115020918E0130E0211B3109442737FD1E
:100C10004095542F8AE061E0F2DCCE010197F1F7B4
:100C20001DC034DD80E291E03DDD80E061E028DD43
:100C3000612F70E080E090E0C8DC8DE691E032DD6D
:100C400060918E0170E080E090E0BFDC8BE191E08C
:100C500029DD80918E01811B37DCFEDB112369F6D3
:100C6000BDC0833009F02DC111DD84E791E01ADDAC
:100C700080E061E005DD61E070E080E090E0A5DC0F
:100C80008BE191E00FDD84E491E00CDD61E070E048
:100C900080E090E09ADC8BE191E004DD80E197E276
:100CA00028EC30E0F9013197F1F70197D9F712E01C
:100CB000199B02C01A99FCCF199B04C081E0809354
:100CC000940104C01A9B02C010939401DFDC80E001
:100CD00060E0D6DC83E591E0E5DC60918E0170E0B8
:100CE00080E090E072DC8DE060E0CADC8DE591E0B0
:100CF000D9DC80E061E0C4DC81E691E0D3DC8DE00A
:100D000061E0BEDC8DE591E0CDDC80919401813025
:100D100009F068C0F0908E0140E1A42E47E2B42EA5
:100D200038ECC32ED12C57C01FDC10918E018823C4
:100D300089F40F2D0150212F30E0201B3109442769
:100D400037FD4095542F8AE061E059DCC5010197D9
:100D5000F1F740C01F19812FB7DB0F2DC12FD0E055
:100D6000D4DB8823A9F4015020918E0130E0201BB0
:100D70003109442737FD4095542F8AE061E03FDC7C
:100D800080E197E2F6013197F1F70197D9F71EC09C
:100D90001F2D101B7BDC80E291E084DC80E061E0B1
:100DA0006FDC8DE791E07EDC60918E0170E06C1B62
:100DB0007D0B611B7109882777FD8095982F05DCD5
:100DC0008BE191E06FDC812F6DDB46DB002341F688
:100DD0008F2D68DBF02EFF2009F0A6CF80918E01C9
:100DE00073DB6AC0823009F063CFF0908E0120E19E
:100DF000A22E27E2B22E98ECC92ED12C57C085DB4B
:100E000010918E018823A9F40F2D0150212F30E07D
:100E1000201B3109442737FD4095542F8AE061E0BB
:100E2000EEDB80E197E2F6013197F1F70197D9F710
:100E30003CC01F19812F36DB0F2DC12FD0E094DB72
:100E4000882389F4015020918E0130E0201B310964
:100E5000442737FD4095542F8AE061E0D0DBC5017F
:100E60000197F1F71EC012DC80E291E01BDC80E00C
:100E700061E006DC8DE791E015DC1F2D101B609111
:100E80008E0170E06C1B7D0B611B7109882777FD5B
:100E90008095982F9ADB8BE191E004DC812F14DBA5
:100EA000DBDA002361F68F2D0FDBF02EFF2009F037
:100EB000A6CF80918E01F6DA1092930181E08093A3
:100EC0009201C7D910928B01E5E9F1E0119281E01E
:100ED000E43AF807D9F705C0019690938D01809305
:100EE0008C01FF91EF91DF91CF91BF91AF919F91D5
:100EF0008F917F916F915F914F913F912F911F91B2
:100F00000F91FF90DF90CF90BF90AF900F900FBEEA
:100F10000F901F9018951F920F920FB60F921124E9
:100F20002F933F934F935F936F937F938F939F93F1
:100F3000AF93BF93CF93DF93EF93FF9380918A0199
:100F4000882331F481E080938A0110928B0127D0AD
:100F500080918B01C82FD0E05BD0CB56DE4F8883C9
:100F600080918B018F5F80938B0125D0FF91EF9152
:100F7000DF91CF91BF91AF919F918F917F916F91B1
:100F80005F914F913F912F910F900FBE0F901F9047
:100F9000189583E085BD81E080936E00089516BCAE
:100FA00083E085BD089585B58D7F85BD85B58E7F30
:100FB00085BD16BC089585B58D7F85BD85B58E7FB1
:100FC00085BD16BC16BC83E085BD089583E3809380
:100FD000C4001092C50088E98093C100E2ECF0E003
:100FE0008081866080830895E1ECF0E090819F7EAF
:100FF000908390819F7790839091C0008093C600EA
:1010000080ED97E00197F1F78081806980830895F2
:101010008091C6000895FA01CF93FF93EF93223099
:10102000C4F02532B4F4C22F2C2F33274427552780
:10103000FF93EF934ED0EF91FF91605D6A330CF018
:10104000695D6193B901CA01605070408040904071
:1010500059F710828F919F91CF910DC0A6E1B0E01A
:1010600044E050E01AC0242F27D0252F25D000C0FF
:1010700022D0272F21C0DC01FC01672F719177233B
:10108000E1F7329704C07C916D9370836291AE1743
:10109000BF07C8F30895DC01CB01FC01F999FECF2D
:1010A00006C0F2BDE1BDF89A319600B40D924150F0
:1010B0005040B8F70895262FF999FECF1FBA92BD78
:1010C00081BD20BD0FB6F894FA9AF99A0FBE019629
:1010D0000895A1E21A2EAA1BBB1BFD010DC0AA1F79
:1010E000BB1FEE1FFF1FA217B307E407F50720F091
:1010F000A21BB30BE40BF50B661F771F881F991F0C
:101100001A9469F760957095809590959B01AC0154
:0A111000BD01CF010895F894FFCF50
:10111A00436C656172696E67206D657465727300F0
:10112A00446F6E650044554D50200020504C4E00CF
:10113A002020204272616B206D6F6E657400202042
:10114A00526F7A6D69656E6961726B610020202049
:10115A002020200020202020200020200020504C89
:10116A004E200057706C61636F6E6F3A00504C4EA0
:10117A00005779706C61636F6E6F3A3000504C4E55
:10118A00207A20005779626965727A3A00506F7A3C
:08119A006F7374616C6F20009B
:00000001FF
