:100000000C942A000C9447000C9447000C94470071
:100010000C9447000C9447000C9447000C94470044
:100020000C9447000C9447000C9447000C94470034
:100030000C9447000C9447000C9447000C94470024
:100040000C9447000C9447000C9447000C94470014
:100050000C94470011241FBECFE5D4E0DEBFCDBF16
:1000600011E0A8E6B1E001C01D92AD3EB107E1F795
:1000700011E0A0E6B0E0EAE8FDE102C005900D92D3
:10008000A836B107D9F70E94FA0C0C94C30E0C9451
:100090000000EF92FF920F931F937B018C0120E0F1
:1000A00030E040E05FE40E94490388238CF0C801FF
:1000B000B70120E030E040E05FE40E94C1010E940F
:1000C000A9039B01AC01205030404040504806C07D
:1000D000C801B7010E94A9039B01AC01B901CA0183
:1000E0001F910F91FF90EF900895A0E0B0E0EBE733
:1000F000F0E00C948C0EDC012B01FA019C91923003
:1001000008F439C1EB018881823008F433C194309E
:1001100069F4843009F02FC111969C91119789815F
:10012000981709F428C1A0E6B0E025C1843009F48D
:1001300021C18230A9F4923009F01DC19A01AD01AC
:1001400088E0EA010990AE01E90109929E0181501F
:10015000C1F7E201898111969C918923818308C1AD
:10016000923009F407C112962D903C901397EB0141
:100170008A819B811496AD90BD90CD90DC901797AD
:10018000EC80FD800E811F819101281B390BB90184
:1001900037FF04C066277727621B730B6032710537
:1001A0000CF061C0121613066CF537014801062EDB
:1001B00004C096948794779467940A94D2F721E0C8
:1001C00030E040E050E004C0220F331F441F551FB1
:1001D0006A95D2F721503040404050402E213F21B7
:1001E00040235123211531054105510521F021E01E
:1001F00030E040E050E079018A01E628F72808293C
:1002000019293CC0232BD1F1260E371E350146019A
:10021000062E04C096948794779467940A94D2F734
:1002200021E030E040E050E004C0220F331F441FC3
:10023000551F6A95D2F721503040404050402A2146
:100240003B214C215D21211531054105510521F04E
:1002500021E030E040E050E059016A01A628B728CB
:10026000C828D9280BC0821593052CF01C01AA249C
:10027000BB24650103C0EE24FF24870111969C91E5
:10028000D20111968C91981709F445C0992339F041
:10029000A80197012A193B094C095D0906C0A6016E
:1002A00095012E193F09400B510B57FD08C01182D3
:1002B0003382228224833583468357831DC081E0A5
:1002C00081833382228288279927DC01821B930B4A
:1002D000A40BB50B84839583A683B7830DC0220F2F
:1002E000331F441F551F24833583468357838281E0
:1002F000938101979383828324813581468157813D
:10030000DA01C9010197A109B1098F5F9F4FAF4F72
:10031000BF4328F30BC0918333822282EA0CFB1C7B
:100320000C1D1D1DE482F5820683178383E0808304
:10033000248135814681578157FF1AC0C901AA27F8
:1003400097FDA095BA2F81709070A070B0705695EF
:10035000479537952795822B932BA42BB52B848318
:100360009583A683B7838281938101969383828349
:10037000DF0101C0D201CD01CDB7DEB7E2E10C94BF
:10038000A80EA0E2B0E0E7ECF1E00C94980E6983CF
:100390007A838B839C832D833E834F835887E9E048
:1003A000EE2EF12CEC0EFD1ECE010196B7010E943F
:1003B0009A058E010F5E1F4FCE010596B8010E946F
:1003C0009A058A8991E089278A8BC701B801AE0115
:1003D000475E5F4F0E9475000E94C504A096E6E04C
:1003E0000C94B40EA0E2B0E0E8EFF1E00C94980EAB
:1003F00069837A838B839C832D833E834F835887C5
:10040000F9E0EF2EF12CEC0EFD1ECE010196B701A6
:100410000E949A058E010F5E1F4FCE010596B8010E
:100420000E949A05C701B801AE01475E5F4F0E9466
:1004300075000E94C504A096E6E00C94B40EA0E2FC
:10044000B0E0E5E2F2E00C948C0E69837A838B8352
:100450009C832D833E834F835887CE010196BE0136
:10046000675F7F4F0E949A05CE010596BE016F5EC1
:100470007F4F0E949A059985923088F08989823051
:10048000C8F0943019F4823051F404C0843029F457
:10049000923081F480E690E0C6C0923049F420E0CA
:1004A0009A858A89981321E02A87CE010996BBC0D4
:1004B000823049F420E09A858A89981321E02A8BBA
:1004C000CE014196B0C02D843E844F8458886D88FB
:1004D0007E888F88988CEE24FF248701AA24BB2471
:1004E000650140E050E060E070E0E0E0F0E0C10174
:1004F00081709070892BE9F0E60CF71C081D191D1E
:100500009A01AB012A0D3B1D4C1D5D1D80E090E062
:10051000A0E0B0E0E614F7040805190520F481E036
:1005200090E0A0E0B0E0BA01A901480F591F6A1F8E
:100530007B1FAA0CBB1CCC1CDD1C97FE08C081E0F5
:1005400090E0A0E0B0E0A82AB92ACA2ADB2A3196B6
:10055000E032F10549F0660C771C881C991C569412
:10056000479437942794C3CFFA85EA892B893C892D
:100570008B859C85280F391F2E5F3F4F17C0CA01FE
:1005800081709070892B61F016950795F794E79428
:1005900080E090E0A0E0B0E8E82AF92A0A2B1B2BC3
:1005A00076956795579547952F5F3F4F77FDE7CF36
:1005B0000CC0440F551F661F771F17FD4160EE0CDE
:1005C000FF1C001F111F21503040403090E05907A0
:1005D00090E0690790E4790760F32B8F3C8FDB0193
:1005E000CA018F779070A070B07080349105A1051A
:1005F000B10561F447FD0AC0E114F10401051105DC
:1006000029F0405C5F4F6F4F7F4F40781A8EFE1786
:1006100011F081E08A8F4D8F5E8F6F8F78A383E01A
:10062000898FCE0149960E94C504A096E2E10C9400
:10063000A80EA8E1B0E0EFE1F3E00C94980E698316
:100640007A838B839C832D833E834F83588789E0F5
:10065000E82EF12CEC0EFD1ECE010196B7010E9492
:100660009A058E010F5E1F4FCE010596B8010E94BC
:100670009A058985823040F08989823028F0C70147
:10068000B8010E94120601C08FEF6896E6E00C9454
:10069000B40EA8E1B0E0EFE4F3E00C94980E6983A7
:1006A0007A838B839C832D833E834F83588789E095
:1006B000E82EF12CEC0EFD1ECE010196B7010E9432
:1006C0009A058E010F5E1F4FCE010596B8010E945C
:1006D0009A058985823040F08989823028F0C701E7
:1006E000B8010E94120601C08FEF6896E6E00C94F4
:1006F000B40EA8E1B0E0EFE7F3E00C94980E698344
:100700007A838B839C832D833E834F83588789E034
:10071000E82EF12CEC0EFD1ECE010196B7010E94D1
:100720009A058E010F5E1F4FCE010596B8010E94FB
:100730009A058985823040F08989823028F0C70186
:10074000B8010E94120601C081E06896E6E00C94B0
:10075000B40EACE0B0E0EFEAF3E00C949C0E6983D9
:100760007A838B839C83CE010196BE016B5F7F4FA2
:100770000E949A058D81823061F1823050F184307F
:1007800021F48E81882351F12EC02F81388537FDC9
:1007900020C06E812F3131051CF06623F9F023C093
:1007A0008EE190E0821B930B29853A854B855C8511
:1007B00004C056954795379527958A95D2F76623B5
:1007C000B1F050954095309521953F4F4F4F5F4F79
:1007D0000EC020E030E040E050E009C02FEF3FEFD6
:1007E0004FEF5FE704C020E030E040E050E8B9019F
:1007F000CA012C96E2E00C94B80EA8E0B0E0E3E069
:10080000F4E00C94940E7B018C0161157105810557
:10081000910519F482E0898360C083E089838EE1C9
:10082000C82ED12CDC82CB82ED82FE820F8318870A
:10083000C801B7010E947604FC013197F7FF3BC065
:10084000222733272E1B3F0B57016801022E04C0BD
:10085000D694C794B794A7940A94D2F740E050E096
:1008600060E070E081E090E0A0E0B0E004C0880FBC
:10087000991FAA1FBB1F2A95D2F70197A109B10999
:100880008E219F21A023B1230097A105B10521F05E
:1008900041E050E060E070E04A295B296C297D2945
:1008A0004D835E836F8378878EE190E08E1B9F0B74
:1008B0009C838B8312C0309781F00E2E04C0EE0C07
:1008C000FF1C001F111F0A94D2F7ED82FE820F83D6
:1008D0001887CE1ADF0ADC82CB821A82CE010196FB
:1008E0000E94C5042896EAE00C94B00EEF92FF92A5
:1008F0000F931F937B018C0180E0E81680E0F806DF
:1009000081E0080780E0180788F48FEFE816F1040B
:100910000105110531F028F088E090E0A0E0B0E09A
:1009200017C080E090E0A0E0B0E012C080E0E816E0
:1009300080E0F80680E0080781E0180728F088E1E9
:1009400090E0A0E0B0E004C080E190E0A0E0B0E082
:1009500020E230E040E050E0281B390B4A0B5B0BF3
:1009600004C016950795F794E7948A95D2F7F70196
:10097000E859FF4F8081281B310941095109C901FC
:100980001F910F91FF90EF900895DF92EF92FF92E9
:100990000F931F93FC01E480F58006811781D180BD
:1009A0008081823048F480E090E0A0E1B0E0E82A65
:1009B000F92A0A2B1B2BA5C0843009F49FC0823072
:1009C00021F4EE24FF24870105C0E114F1040105A0
:1009D000110519F4E0E0F0E096C0628173819FEFA9
:1009E000623879070CF05BC022E83FEF261B370B1B
:1009F0002A3131052CF020E030E040E050E02AC000
:100A0000B801A701022E04C07695679557954795C2
:100A10000A94D2F781E090E0A0E0B0E004C0880F33
:100A2000991FAA1FBB1F2A95D2F70197A109B109E7
:100A30008E219F21A023B1230097A105B10521F0AC
:100A400081E090E0A0E0B0E09A01AB01282B392BC7
:100A50004A2B5B2BDA01C9018F779070A070B070C0
:100A600080349105A105B10539F427FF09C0205C48
:100A70003F4F4F4F5F4F04C0215C3F4F4F4F5F4F81
:100A8000E0E0F0E02030A0E03A07A0E04A07A0E470
:100A90005A0710F0E1E0F0E079018A0127C06038E0
:100AA000710564F5FB01E158FF4FD801C7018F774D
:100AB0009070A070B07080349105A105B10539F433
:100AC000E7FE0DC080E490E0A0E0B0E004C08FE35A
:100AD00090E0A0E0B0E0E80EF91E0A1F1B1F17FF10
:100AE00005C016950795F794E794319687E016951B
:100AF0000795F794E7948A95D1F705C0EE24FF2473
:100B00008701EFEFF0E06E2F679566276795902FCE
:100B10009F77D794DD24D7948E2F8695492F462B27
:100B2000582F5D29B701CA011F910F91FF90EF90D7
:100B3000DF900895FC01DB01408151812281622F09
:100B40006F7770E0221F2227221F9381892F880F41
:100B5000822B282F30E0991F9927991F11969C937B
:100B6000119721153105A9F541155105610571054B
:100B700011F482E037C082E89FEF13969C938E9326
:100B800012979A01AB0167E0220F331F441F551FD4
:100B90006A95D1F783E08C930DC0220F331F441F59
:100BA000551F12968D919C911397019713969C93C4
:100BB0008E931297203080E0380780E0480780E469
:100BC000580758F314962D933D934D935C931797C4
:100BD00008952F3F310579F44115510561057105DF
:100BE00019F484E08C93089564FF03C081E08C9332
:100BF00012C01C9210C02F57304013963C932E9376
:100C0000129783E08C9387E0440F551F661F771F70
:100C10008A95D1F7706414964D935D936D937C9390
:100C2000179708951F93DC01FB019C91923008F403
:100C300047C08081823008F443C0943051F411964B
:100C40001C91843099F58181682F70E0611B7109D6
:100C50003FC0843021F0923031F48230B9F181818B
:100C6000882389F12DC011961C9111978230F1F0E3
:100C700081811817D9F412962D913C911397828196
:100C800093818217930794F028173907BCF01496C4
:100C90008D919D910D90BC91A02D2481358146812F
:100CA0005781281739074A075B0718F4112341F0C9
:100CB0000AC082179307A407B50740F4112319F05F
:100CC00061E070E005C06FEF7FEF02C060E070E0B0
:100CD000CB011F9108958091D201882309F4C9C0E6
:100CE0009F995BC080916F01882309F456C080EA08
:100CF0009FE00197F1F79F99BCC081E08093DC01F0
:100D0000809170018130D1F420E030E00FC0F90112
:100D1000EF57FE4F8081882339F48091D30180837F
:100D20008091DA01282F30E02F5F3F4F8091DA0168
:100D300090E0281739075CF31092700110926F0150
:100D400081E090E09093C4018093C30180917F0182
:100D50008F5F80937F0180917F018A3008F489C082
:100D600020E030E04AE012C0F901EF57FE4F8081E9
:100D7000882351F4408380917F018A5080937F01C2
:100D80008091DA01282F30E02F5F3F4F8091DA0108
:100D900090E02817390744F308959F9B6AC080911B
:100DA000C3019091C401892B49F08091C3019091B6
:100DB000C40101969093C4018093C3012091C301A3
:100DC0003091C4018091E4019091E5012817390721
:100DD00009F04CC081E080937001C29820E030E0BF
:100DE00065E052E041E038C0F901EF57FE4F8081E5
:100DF000882361F480917F01853040F06083809189
:100E00007F01855080937F012F5F3F4FF901EF579E
:100E1000FE4F8081882361F480917F01823040F011
:100E2000508380917F01825080937F012F5F3F4FDD
:100E3000F901EF57FE4F8081882361F480917F0193
:100E4000882341F0408380917F01815080937F010E
:100E50002F5F3F4F2F5F3F4F8091DA0190E02817BF
:100E6000390714F21092C4011092C30181E08093FB
:100E70006F0108959C9960C08091E101882309F475
:100E80005BC08091D201882309F056C080EA9FE0C0
:100E90000197F1F79C99BCC081E08093DC018091BF
:100EA000BB018130D1F420E030E00FC0F901EF57F1
:100EB000FE4F8081882339F48091D3018083809113
:100EC000DA01282F30E02F5F3F4F8091DA0190E068
:100ED000281739075CF31092BB011092E10181E001
:100EE00090E09093E3018093E20180917F018F5F16
:100EF00080937F0180917F018A3008F489C020E0CF
:100F000030E04AE012C0F901EF57FE4F808188239C
:100F100051F4408380917F018A5080937F018091BA
:100F2000DA01282F30E02F5F3F4F8091DA0190E007
:100F30002817390744F308959C9B6AC08091E20109
:100F40009091E301892B49F08091E2019091E301B6
:100F500001969093E3018093E2012091E2013091A8
:100F6000E3018091E8019091E9012817390709F020
:100F70004CC081E08093BB01C29820E030E065E086
:100F800052E041E038C0F901EF57FE4F80818823DD
:100F900061F480917F01853040F0608380917F0112
:100FA000855080937F012F5F3F4FF901EF57FE4F30
:100FB0008081882361F480917F01823040F05083EA
:100FC00080917F01825080937F012F5F3F4FF90115
:100FD000EF57FE4F8081882361F480917F01882341
:100FE00041F0408380917F01815080937F012F5F8A
:100FF0003F4F2F5F3F4F8091DA0190E0281739076C
:1010000014F21092E3011092E20181E08093E10179
:1010100008959A9909C08091BA01882329F095987A
:1010200081E08093780105C09B9902C0959A01C028
:1010300095989A9B1EC0809178018823D1F01092D8
:10104000780120E030E00FC0F901EF57FE4F8081BA
:10105000882339F48091D80180838091DA01282F88
:1010600030E02F5F3F4F8091DA0190E02817390779
:101070005CF308959A9909C08091BA01882329F0F8
:10108000969881E08093780105C09C9902C0969A59
:1010900001C096989A9B1EC0809178018823D1F058
:1010A0001092780120E030E00FC0F901EF57FE4FB9
:1010B0008081882339F48091D80180838091DA017E
:1010C000282F30E02F5F3F4F8091DA0190E0281702
:1010D00039075CF308959091D9018091D601981752
:1010E00019F481E08093D5019091D9018091D401C8
:1010F000981711F41092D5018091D501882321F021
:101100009E9902C0A89A0895A89808959091D9012F
:101110008091D701981751F48091BF019091C0013F
:101120009093D1018093D0011092D9018091D00188
:101130009091D101892B59F08091D0019091D101EA
:1011400001979093D1018093D001979A0895979831
:101150000895CF992DC08091C701882349F110923D
:10116000C70120E030E006C0F901EF57FE4F1082C2
:101170002F5F3F4F8091DA0190E028173907A4F3E1
:1011800020E030E048E00DC0F901EF57FE4F8081CC
:10119000882329F440838091DA01282F30E02F5FE3
:1011A0003F4F8091DA0190E0281739076CF30895DA
:1011B000CF9B03C081E08093C70108950E94090876
:1011C0000E943A080E946B080E946B060E943A0730
:1011D0000E9486080E94A908089588E893E120E902
:1011E00031E0F9013197F1F70197D9F7A398A49865
:1011F000A598A698A298D498D798A7988898AB9ABB
:10120000AC9AAD9AAE9AAA9ADC9ADF9AAF9A909A63
:101210008D9A8E9AA09A8F9ABA9AB89A899ABD9AFC
:1012200095989698A8989798C298C098919AC598BA
:1012300088E893E120E931E0F9013197F1F701976E
:10124000D9F70895CC9B08C080918001882321F0B4
:101250008091C201882361F4CC9974C0809180018F
:10126000882309F06FC08091C201882309F46AC005
:1012700080E49FE10197F1F7CC9B08C08091800149
:10128000882321F08091C201882361F4CC995AC04F
:1012900080918001882309F055C08091C201882384
:1012A00009F450C01092C201C298C0981092D201A5
:1012B0008091EB01882331F41092C90181E0809381
:1012C000B50105C081E08093C9011092B5018091FC
:1012D000EB018823C1F020E030E00FC0F901EF57A7
:1012E000FE4F8081882339F48091EA0180838091C8
:1012F000DA01282F30E02F5F3F4F8091DA0190E034
:10130000281739075CF38091EB018823D9F4809189
:10131000C5018130B9F420E030E046E00DC0F901AC
:10132000EF57FE4F8081882329F440838091DA01B2
:10133000282F30E02F5F3F4F8091DA0190E028178F
:1013400039076CF308958091D901833009F043C0C7
:1013500081E08093D201C09AC29A40E951E076E0E0
:1013600061E033C080E197E2FA013197F1F701972C
:10137000D9F78091B8019091B90101979093B90183
:101380008093B80180E29EE4FA013197F1F701976A
:10139000D9F720E030E00DC0F901EF57FE4F808112
:1013A000882329F470838091DA01282F30E02F5FA1
:1013B0003F4F8091DA0190E0281739076CF31092C3
:1013C000D9011092C9016093B5018091B801909143
:1013D000B901892B39F608958091D901873069F4D4
:1013E0001092D901A89A88EE93E020E931E0F90142
:1013F0003197F1F70197D9F7A8980895CE9952C07F
:101400008091C601882309F44DC080E29EE40197D3
:10141000F1F7CE9947C01092C60181E08093D201C6
:10142000C09AC29A20E931E010C080E197E2F90148
:101430003197F1F70197D9F78091B8019091B901EF
:1014400001979093B9018093B8018091B801909170
:10145000B901892B51F780E29EE420E931E0F901DE
:101460003197F1F70197D9F720E030E046E00DC061
:10147000F901EF57FE4F8081882329F44083809142
:10148000DA01282F30E02F5F3F4F8091DA0190E0A2
:10149000281739076CF31092D9011092C90181E025
:1014A0008093B50108958091D201882309F456C034
:1014B0008091CA019091CB0183709070892B49F47F
:1014C00080917A0190917B01019690937B018093AA
:1014D0007A018091CA019091CB0101969093CB0142
:1014E0008093CA0180917A0190917B0180549C493C
:1014F00058F08091DC01813039F4C29810927B0160
:1015000010927A0180937E019D9910C080917A019A
:1015100090917B01895E934048F080917E018130FB
:1015200029F4C29A10927B0110927A019D9916C0FB
:101530008091DC01882391F480EE9EE20197F1F71F
:101540009D990CC08091DC01882341F4C2981092CF
:101550007B0110927A0181E08093DC010895DF9392
:10156000CF93CDB7DEB760970FB6F894DEBF0FBE4E
:10157000CDBF682FC598FE01319620E830E041E0EC
:1015800050E0A1E0B0E0862F90E08217930724F0AE
:10159000B183A083621B02C011821082359527950A
:1015A0004F5F5F4F32964930510569F7809929C0E6
:1015B000919881E080937D0180EA91E00197F1F7B5
:1015C000FE013F9640EA51E09E012150304080816B
:1015D0009181019711F4919A01C09198CA010197E4
:1015E000F1F73297E217F30791F7919A80EE9EE2B6
:1015F0000197F1F7809B05C0919AC59A21E030E0F0
:1016000002C020E030E0C90160960FB6F894DEBF5A
:101610000FBECDBFCF91DF9108950F931F93CF934E
:10162000DF930E9409080E943A080E946B06809985
:1016300043C088E99FE00197F1F780993DC0C598C4
:1016400010E0C8E9DFE0CE010197F1F70E94090838
:101650000E943A081F5F1531B1F700E048E050E002
:1016600020E030E060E27EE48099040FCB01019736
:10167000F1F7559547952F5F3F4F24303105A1F77E
:101680000E9409080E943A0810E048E050E020E07B
:1016900030E060E27EE48099140FCB010197F1F70E
:1016A000559547952F5F3F4F24303105A1F70E9494
:1016B00009080E943A0802C000E010E00E943A07C0
:1016C0000E946B06011711F000E010C0002371F0BA
:1016D000C59A10E0C8E9DFE0CE010197F1F70E945A
:1016E00009080E943A081F5F1431B1F7802FDF917B
:1016F000CF911F910F9108951F93C59A11E042C099
:101700000E940D0B8093D9018091D901853011F48D
:101710001093C5018091D901843021F41093EB011D
:101720001093C9018091D901863011F41093C8013A
:101730008091D901873011F41093BA018091C501CD
:10174000813041F48091EB01813021F48091EA01F4
:101750008093BC018091C501813041F48091EB01FF
:10176000882321F48091E0018093BC018091C50120
:10177000882341F48091EB01813021F48091EA01CA
:101780008093BC018091D9018A3009F0B9CF81E002
:101790008093DE011092D9011F910895AF92BF92FC
:1017A000CF92DF92EF92FF920F931F93CF93DF932D
:1017B000CF995CC08091D201882309F443C056C000
:1017C0006091790170E080E090E00E94FD035B0190
:1017D0006C0120E030E04AE755E40E941F027B01E3
:1017E0008C0120E030E040E85FE30E947903882329
:1017F0001CF461E070E022C0C801B70120E03FEFB7
:101800004FE757E40E9419031816A4F4C601B50166
:1018100020E030E040E251E40E941F020E944900B3
:1018200005C0CE010197F1F7615070406115710557
:10183000C1F70AC0C801B7010E944900CB01019756
:10184000F1F702C0C0E9D1E08091CD010E94AF0A5A
:10185000892B09F4B5CF04C00E940D0B8093D901E8
:101860008091D9018823C1F30E947C0BDF91CF9135
:101870001F910F91FF90EF90DF90CF90BF90AF90AE
:10188000089584E18093DA0120E030E006C0F90198
:10189000EF57FE4F10822F5F3F4F8091DA0190E0AB
:1018A00028173907A4F341E04093BE012BE02093B1
:1018B000DD015CE05093DF013DE03093D8018EE024
:1018C0008093CD0187E08093EA0193E09093C1017A
:1018D00088E08093EC019093D30186E08093E0014F
:1018E0002093D7015093D4013093D6018093E00127
:1018F0002093E60110927F0120E137E23093E50169
:101900002093E40180E69AEE9093E9018093E80148
:101910003093B4012093B30110927B0110927A01AD
:101920001092EB011092C5011092C8011092BA01F9
:101930004093C9014093C2011092B50181E090E04B
:101940009093B9018093B8011092E3011092E201E3
:101950004093E1011092D2011092E7014093B70148
:101960004093CC011092BC0184E1809379011092E4
:10197000D9014093C70110927E011092DE0140937D
:10198000BD0140937C011092D1011092D00180EAF8
:101990009FE09093C0018093BF011092780188EE80
:1019A00093E09093CB018093CA014093C60140938A
:1019B000BB011092DC011092C4011092C30110927D
:1019C000800110927D011092CF011092CE010E94F1
:1019D0007C0B0E94CE0B88EE93E020E931E0F90108
:1019E0003197F1F70197D9F7CC9903C081E0809343
:1019F000800108950E94ED080E94410C8091BE0173
:101A00008823A1F08091DA01282F30E0F901EF5707
:101A1000FE4F8081882331F080818093BC01108249
:101A20002FEF3FEF2150304037FFF0CF8091BC01C6
:101A3000882361F08091BC010E94AF0A8093BE01AF
:101A40008091BE01813011F41092BC010E940D0BF7
:101A50008093D9018091C901882311F00E94830EDF
:101A60008091B501882339F00E94DE080E94530A54
:101A70000E94EC0906C08091C501882311F00E94E4
:101A8000DE080E94FE090E94A3090E942209B6CF27
:101A90008091BA01882309F450C09A9B44C0809178
:101AA0007301882379F49B990DC080E49FE101972D
:101AB000F1F780917301882329F49B9903C081E099
:101AC0008093730180917301882369F09B9B0BC005
:101AD00080917101909172010596909372018093AB
:101AE00071011092730180917401882309F449C037
:101AF00020E030E00FC0F901EF57FE4F80818823CE
:101B000039F48091D80180838091DA01282F30E068
:101B10002F5F3F4F8091DA0190E0281739075CF37F
:101B200010927401089580E49FE10197F1F79A996A
:101B300028C081E080937401089580917301882307
:101B400079F49B990DC080E49FE10197F1F78091B2
:101B50007301882329F49B9903C081E0809373016A
:101B600080917301882369F09B9B0BC08091710168
:101B70009091720105969093720180937101109279
:101B8000730108958091BA01882309F450C09A9B8B
:101B900044C080917501882379F49C990DC080E43C
:101BA0009FE10197F1F780917501882329F49C99B1
:101BB00003C081E08093750180917501882369F0ED
:101BC0009C9B0BC080917101909172010A96909339
:101BD00072018093710110927501809176018823C2
:101BE00009F440C020E030E00FC0F901EF57FE4F8C
:101BF0008081882339F48091D80180838091DA0133
:101C0000282F30E02F5F3F4F8091DA0190E02817B6
:101C100039075CF310927601089580E49FE1019703
:101C2000F1F79A991FC081E0809376010895809121
:101C30007501882379F49C990DC080E49FE1019798
:101C4000F1F780917501882329F49C9903C081E004
:101C50008093750180917501882321F09C9B02C0BF
:101C60001092750108958091710190917201892BF4
:101C700009F440C020E030E00FC0F901EF57FE4FFB
:101C80008081882339F48091E60180838091DA0194
:101C9000282F30E02F5F3F4F8091DA0190E0281726
:101CA00039075CF3809171019091720105979093CF
:101CB000720180937101809177018823D9F420E02B
:101CC00030E00FC0F901EF57FE4F8081882339F4CF
:101CD0008091D30180838091DA01282F30E02F5F3B
:101CE0003F4F8091DA0190E0281739075CF381E0DB
:101CF000809377018091710190917201892B11F489
:101D00001092770108950E94480D0E94C20D0E9412
:101D1000330E0E94A90808952F923F924F925F922E
:101D20006F927F928F929F92AF92BF92CF92DF92EB
:101D3000EF92FF920F931F93CF93DF93CDB7DEB750
:101D4000CA1BDB0B0FB6F894DEBF0FBECDBF0994E4
:101D50002A88398848885F846E847D848C849B843B
:101D6000AA84B984C884DF80EE80FD800C811B8149
:101D7000AA81B981CE0FD11D0FB6F894DEBF0FBE78
:0A1D8000CDBFED010895F894FFCFE8
:101D8A000000000000000000000102020303030338
:101D9A0004040404040404040505050505050505F1
:101DAA0005050505050505050606060606060606D1
:101DBA0006060606060606060606060606060606B9
:101DCA0006060606060606060707070707070707A1
:101DDA000707070707070707070707070707070789
:101DEA000707070707070707070707070707070779
:101DFA000707070707070707070707070707070769
:101E0A000707070707070707080808080808080850
:101E1A000808080808080808080808080808080838
:101E2A000808080808080808080808080808080828
:101E3A000808080808080808080808080808080818
:101E4A000808080808080808080808080808080808
:101E5A0008080808080808080808080808080808F8
:101E6A0008080808080808080808080808080808E8
:101E7A0008080808080808080808080808080808D8
:081E8A00080808080808080810
:00000001FF
