:100000000C942A000C9447000C9447000C94470071
:100010000C9447000C9447000C9447000C94470044
:100020000C9447000C9447000C9447000C94470034
:100030000C9447000C9447000C9447000C94470024
:100040000C9447000C9447000C9447000C94470014
:100050000C94470011241FBECFE5D4E0DEBFCDBF16
:1000600011E0A8E6B1E001C01D92AF3EB107E1F793
:1000700011E0A0E6B0E0E0E6FBE102C005900D92E1
:10008000A836B107D9F70E94880C0C94AE0D0C94D9
:100090000000EF92FF920F931F937B018C0120E0F1
:1000A00030E040E05FE40E94490388238CF0C801FF
:1000B000B70120E030E040E05FE40E94C1010E940F
:1000C000A9039B01AC01205030404040504806C07D
:1000D000C801B7010E94A9039B01AC01B901CA0183
:1000E0001F910F91FF90EF900895A0E0B0E0EBE733
:1000F000F0E00C94770DDC012B01FA019C91923019
:1001000008F439C1EB018881823008F433C194309E
:1001100069F4843009F02FC111969C91119789815F
:10012000981709F428C1A0E6B0E025C1843009F48D
:1001300021C18230A9F4923009F01DC19A01AD01AC
:1001400088E0EA010990AE01E90109929E0181501F
:10015000C1F7E201898111969C918923818308C1AD
:10016000923009F407C112962D903C901397EB0141
:100170008A819B811496AD90BD90CD90DC901797AD
:10018000EC80FD800E811F819101281B390BB90184
:1001900037FF04C066277727621B730B6032710537
:1001A0000CF061C0121613066CF537014801062EDB
:1001B00004C096948794779467940A94D2F721E0C8
:1001C00030E040E050E004C0220F331F441F551FB1
:1001D0006A95D2F721503040404050402E213F21B7
:1001E00040235123211531054105510521F021E01E
:1001F00030E040E050E079018A01E628F72808293C
:1002000019293CC0232BD1F1260E371E350146019A
:10021000062E04C096948794779467940A94D2F734
:1002200021E030E040E050E004C0220F331F441FC3
:10023000551F6A95D2F721503040404050402A2146
:100240003B214C215D21211531054105510521F04E
:1002500021E030E040E050E059016A01A628B728CB
:10026000C828D9280BC0821593052CF01C01AA249C
:10027000BB24650103C0EE24FF24870111969C91E5
:10028000D20111968C91981709F445C0992339F041
:10029000A80197012A193B094C095D0906C0A6016E
:1002A00095012E193F09400B510B57FD08C01182D3
:1002B0003382228224833583468357831DC081E0A5
:1002C00081833382228288279927DC01821B930B4A
:1002D000A40BB50B84839583A683B7830DC0220F2F
:1002E000331F441F551F24833583468357838281E0
:1002F000938101979383828324813581468157813D
:10030000DA01C9010197A109B1098F5F9F4FAF4F72
:10031000BF4328F30BC0918333822282EA0CFB1C7B
:100320000C1D1D1DE482F5820683178383E0808304
:10033000248135814681578157FF1AC0C901AA27F8
:1003400097FDA095BA2F81709070A070B0705695EF
:10035000479537952795822B932BA42BB52B848318
:100360009583A683B7838281938101969383828349
:10037000DF0101C0D201CD01CDB7DEB7E2E10C94BF
:10038000930DA0E2B0E0E7ECF1E00C94830D6983FB
:100390007A838B839C832D833E834F835887E9E048
:1003A000EE2EF12CEC0EFD1ECE010196B7010E943F
:1003B0009A058E010F5E1F4FCE010596B8010E946F
:1003C0009A058A8991E089278A8BC701B801AE0115
:1003D000475E5F4F0E9475000E94C504A096E6E04C
:1003E0000C949F0DA0E2B0E0E8EFF1E00C94830DD7
:1003F00069837A838B839C832D833E834F835887C5
:10040000F9E0EF2EF12CEC0EFD1ECE010196B701A6
:100410000E949A058E010F5E1F4FCE010596B8010E
:100420000E949A05C701B801AE01475E5F4F0E9466
:1004300075000E94C504A096E6E00C949F0DA0E212
:10044000B0E0E5E2F2E00C94770D69837A838B8368
:100450009C832D833E834F835887CE010196BE0136
:10046000675F7F4F0E949A05CE010596BE016F5EC1
:100470007F4F0E949A059985923088F08989823051
:10048000C8F0943019F4823051F404C0843029F457
:10049000923081F480E690E0C6C0923049F420E0CA
:1004A0009A858A89981321E02A87CE010996BBC0D4
:1004B000823049F420E09A858A89981321E02A8BBA
:1004C000CE014196B0C02D843E844F8458886D88FB
:1004D0007E888F88988CEE24FF248701AA24BB2471
:1004E000650140E050E060E070E0E0E0F0E0C10174
:1004F00081709070892BE9F0E60CF71C081D191D1E
:100500009A01AB012A0D3B1D4C1D5D1D80E090E062
:10051000A0E0B0E0E614F7040805190520F481E036
:1005200090E0A0E0B0E0BA01A901480F591F6A1F8E
:100530007B1FAA0CBB1CCC1CDD1C97FE08C081E0F5
:1005400090E0A0E0B0E0A82AB92ACA2ADB2A3196B6
:10055000E032F10549F0660C771C881C991C569412
:10056000479437942794C3CFFA85EA892B893C892D
:100570008B859C85280F391F2E5F3F4F17C0CA01FE
:1005800081709070892B61F016950795F794E79428
:1005900080E090E0A0E0B0E8E82AF92A0A2B1B2BC3
:1005A00076956795579547952F5F3F4F77FDE7CF36
:1005B0000CC0440F551F661F771F17FD4160EE0CDE
:1005C000FF1C001F111F21503040403090E05907A0
:1005D00090E0690790E4790760F32B8F3C8FDB0193
:1005E000CA018F779070A070B07080349105A1051A
:1005F000B10561F447FD0AC0E114F10401051105DC
:1006000029F0405C5F4F6F4F7F4F40781A8EFE1786
:1006100011F081E08A8F4D8F5E8F6F8F78A383E01A
:10062000898FCE0149960E94C504A096E2E10C9400
:10063000930DA8E1B0E0EFE1F3E00C94830D698342
:100640007A838B839C832D833E834F83588789E0F5
:10065000E82EF12CEC0EFD1ECE010196B7010E9492
:100660009A058E010F5E1F4FCE010596B8010E94BC
:100670009A058985823040F08989823028F0C70147
:10068000B8010E94120601C08FEF6896E6E00C9454
:100690009F0DA8E1B0E0EFE4F3E00C94830D6983D3
:1006A0007A838B839C832D833E834F83588789E095
:1006B000E82EF12CEC0EFD1ECE010196B7010E9432
:1006C0009A058E010F5E1F4FCE010596B8010E945C
:1006D0009A058985823040F08989823028F0C701E7
:1006E000B8010E94120601C08FEF6896E6E00C94F4
:1006F0009F0DA8E1B0E0EFE7F3E00C94830D698370
:100700007A838B839C832D833E834F83588789E034
:10071000E82EF12CEC0EFD1ECE010196B7010E94D1
:100720009A058E010F5E1F4FCE010596B8010E94FB
:100730009A058985823040F08989823028F0C70186
:10074000B8010E94120601C081E06896E6E00C94B0
:100750009F0DACE0B0E0EFEAF3E00C94870D698305
:100760007A838B839C83CE010196BE016B5F7F4FA2
:100770000E949A058D81823061F1823050F184307F
:1007800021F48E81882351F12EC02F81388537FDC9
:1007900020C06E812F3131051CF06623F9F023C093
:1007A0008EE190E0821B930B29853A854B855C8511
:1007B00004C056954795379527958A95D2F76623B5
:1007C000B1F050954095309521953F4F4F4F5F4F79
:1007D0000EC020E030E040E050E009C02FEF3FEFD6
:1007E0004FEF5FE704C020E030E040E050E8B9019F
:1007F000CA012C96E2E00C94A30DA8E0B0E0E3E07F
:10080000F4E00C947F0D7B018C016115710581056D
:10081000910519F482E0898360C083E089838EE1C9
:10082000C82ED12CDC82CB82ED82FE820F8318870A
:10083000C801B7010E947604FC013197F7FF3BC065
:10084000222733272E1B3F0B57016801022E04C0BD
:10085000D694C794B794A7940A94D2F740E050E096
:1008600060E070E081E090E0A0E0B0E004C0880FBC
:10087000991FAA1FBB1F2A95D2F70197A109B10999
:100880008E219F21A023B1230097A105B10521F05E
:1008900041E050E060E070E04A295B296C297D2945
:1008A0004D835E836F8378878EE190E08E1B9F0B74
:1008B0009C838B8312C0309781F00E2E04C0EE0C07
:1008C000FF1C001F111F0A94D2F7ED82FE820F83D6
:1008D0001887CE1ADF0ADC82CB821A82CE010196FB
:1008E0000E94C5042896EAE00C949B0DEF92FF92BB
:1008F0000F931F937B018C0180E0E81680E0F806DF
:1009000081E0080780E0180788F48FEFE816F1040B
:100910000105110531F028F088E090E0A0E0B0E09A
:1009200017C080E090E0A0E0B0E012C080E0E816E0
:1009300080E0F80680E0080781E0180728F088E1E9
:1009400090E0A0E0B0E004C080E190E0A0E0B0E082
:1009500020E230E040E050E0281B390B4A0B5B0BF3
:1009600004C016950795F794E7948A95D2F7F70196
:10097000E859FF4F8081281B310941095109C901FC
:100980001F910F91FF90EF900895DF92EF92FF92E9
:100990000F931F93FC01E480F58006811781D180BD
:1009A0008081823048F480E090E0A0E1B0E0E82A65
:1009B000F92A0A2B1B2BA5C0843009F49FC0823072
:1009C00021F4EE24FF24870105C0E114F1040105A0
:1009D000110519F4E0E0F0E096C0628173819FEFA9
:1009E000623879070CF05BC022E83FEF261B370B1B
:1009F0002A3131052CF020E030E040E050E02AC000
:100A0000B801A701022E04C07695679557954795C2
:100A10000A94D2F781E090E0A0E0B0E004C0880F33
:100A2000991FAA1FBB1F2A95D2F70197A109B109E7
:100A30008E219F21A023B1230097A105B10521F0AC
:100A400081E090E0A0E0B0E09A01AB01282B392BC7
:100A50004A2B5B2BDA01C9018F779070A070B070C0
:100A600080349105A105B10539F427FF09C0205C48
:100A70003F4F4F4F5F4F04C0215C3F4F4F4F5F4F81
:100A8000E0E0F0E02030A0E03A07A0E04A07A0E470
:100A90005A0710F0E1E0F0E079018A0127C06038E0
:100AA000710564F5FB01E158FF4FD801C7018F774D
:100AB0009070A070B07080349105A105B10539F433
:100AC000E7FE0DC080E490E0A0E0B0E004C08FE35A
:100AD00090E0A0E0B0E0E80EF91E0A1F1B1F17FF10
:100AE00005C016950795F794E794319687E016951B
:100AF0000795F794E7948A95D1F705C0EE24FF2473
:100B00008701EFEFF0E06E2F679566276795902FCE
:100B10009F77D794DD24D7948E2F8695492F462B27
:100B2000582F5D29B701CA011F910F91FF90EF90D7
:100B3000DF900895FC01DB01408151812281622F09
:100B40006F7770E0221F2227221F9381892F880F41
:100B5000822B282F30E0991F9927991F11969C937B
:100B6000119721153105A9F541155105610571054B
:100B700011F482E037C082E89FEF13969C938E9326
:100B800012979A01AB0167E0220F331F441F551FD4
:100B90006A95D1F783E08C930DC0220F331F441F59
:100BA000551F12968D919C911397019713969C93C4
:100BB0008E931297203080E0380780E0480780E469
:100BC000580758F314962D933D934D935C931797C4
:100BD00008952F3F310579F44115510561057105DF
:100BE00019F484E08C93089564FF03C081E08C9332
:100BF00012C01C9210C02F57304013963C932E9376
:100C0000129783E08C9387E0440F551F661F771F70
:100C10008A95D1F7706414964D935D936D937C9390
:100C2000179708951F93DC01FB019C91923008F403
:100C300047C08081823008F443C0943051F411964B
:100C40001C91843099F58181682F70E0611B7109D6
:100C50003FC0843021F0923031F48230B9F181818B
:100C6000882389F12DC011961C9111978230F1F0E3
:100C700081811817D9F412962D913C911397828196
:100C800093818217930794F028173907BCF01496C4
:100C90008D919D910D90BC91A02D2481358146812F
:100CA0005781281739074A075B0718F4112341F0C9
:100CB0000AC082179307A407B50740F4112319F05F
:100CC00061E070E005C06FEF7FEF02C060E070E0B0
:100CD000CB011F9108958091D401882309F4C9C0E4
:100CE000CC995BC080916F01882309F456C080EADB
:100CF0009FE00197F1F7CC99BCC081E08093DE01C1
:100D0000809170018130D1F420E030E00FC0F90112
:100D1000EF57FE4F8081882339F48091D50180837D
:100D20008091DC01282F30E02F5F3F4F8091DC0164
:100D300090E0281739075CF31092700110926F0150
:100D400081E090E09093C6018093C50180917F017E
:100D50008F5F80937F0180917F018A3008F489C082
:100D600020E030E04AE012C0F901EF57FE4F8081E9
:100D7000882351F4408380917F018A5080937F01C2
:100D80008091DC01282F30E02F5F3F4F8091DC0104
:100D900090E02817390744F30895CC9B6AC08091EE
:100DA000C5019091C601892B49F08091C5019091B0
:100DB000C60101969093C6018093C5012091C5019B
:100DC0003091C6018091E6019091E701281739071B
:100DD00009F04CC081E080937001C59820E030E0BC
:100DE00065E052E041E038C0F901EF57FE4F8081E5
:100DF000882361F480917F01853040F06083809189
:100E00007F01855080937F012F5F3F4FF901EF579E
:100E1000FE4F8081882361F480917F01823040F011
:100E2000508380917F01825080937F012F5F3F4FDD
:100E3000F901EF57FE4F8081882361F480917F0193
:100E4000882341F0408380917F01815080937F010E
:100E50002F5F3F4F2F5F3F4F8091DC0190E02817BD
:100E6000390714F21092C6011092C50181E08093F7
:100E70006F0108959D9960C08091E301882309F472
:100E80005BC08091D401882309F056C080EA9FE0BE
:100E90000197F1F79D99BCC081E08093DE018091BC
:100EA000BB018130D1F420E030E00FC0F901EF57F1
:100EB000FE4F8081882339F48091D5018083809111
:100EC000DC01282F30E02F5F3F4F8091DC0190E064
:100ED000281739075CF31092BB011092E30181E0FF
:100EE00090E09093E5018093E40180917F018F5F12
:100EF00080937F0180917F018A3008F489C020E0CF
:100F000030E04AE012C0F901EF57FE4F808188239C
:100F100051F4408380917F018A5080937F018091BA
:100F2000DC01282F30E02F5F3F4F8091DC0190E003
:100F30002817390744F308959D9B6AC08091E40106
:100F40009091E501892B49F08091E4019091E501B0
:100F500001969093E5018093E4012091E4013091A2
:100F6000E5018091EA019091EB012817390709F01A
:100F70004CC081E08093BB01C59820E030E065E083
:100F800052E041E038C0F901EF57FE4F80818823DD
:100F900061F480917F01853040F0608380917F0112
:100FA000855080937F012F5F3F4FF901EF57FE4F30
:100FB0008081882361F480917F01823040F05083EA
:100FC00080917F01825080937F012F5F3F4FF90115
:100FD000EF57FE4F8081882361F480917F01882341
:100FE00041F0408380917F01815080937F012F5F8A
:100FF0003F4F2F5F3F4F8091DC0190E0281739076A
:1010000014F21092E5011092E40181E08093E30173
:1010100008959C9902C0A89A0895A89808959D994A
:1010200002C0A99A0895A99808959091DB01809132
:10103000D801981719F481E08093D7019091DB01D2
:101040008091D601981711F41092D7018091D701A1
:10105000882321F09F9902C0AB9A0895AB98089518
:101060009091DB018091D901981751F48091C001D2
:101070009091C1019093D3018093D2011092DB0132
:101080008091D2019091D301892B59F08091D201A6
:101090009091D30101979093D3018093D201AA9AA2
:1010A0000895AA980895CD992EC08091C9018823EA
:1010B00051F11092C901979820E030E006C0F90183
:1010C000EF57FE4F10822F5F3F4F8091DC0190E081
:1010D00028173907A4F320E030E048E00DC0F901FB
:1010E000EF57FE4F8081882329F440838091DC01F3
:1010F000282F30E02F5F3F4F8091DC0190E02817D0
:1011000039076CF30895CD9B03C081E08093C9013A
:10111000089526B340B380B361E070E026274627E8
:101120004170242330E090E09695879596958795B9
:101130008627972782239323892B29F081E08093A8
:10114000BE011092C30186B380B380B38091BE010B
:101150008823F1F48091C3018823D1F481E0809346
:10116000C30120E030E048E00DC0F901EF57FE4F29
:101170008081882329F440838091DC01282F30E08E
:101180002F5F3F4F8091DC0190E0281739076CF307
:1011900008950E9409080E940F080E9415080E94E5
:1011A0006B060E943A070E9430080E9453080E9472
:1011B0008908089588E893E120E931E0F901319741
:1011C000F1F70197D9F7A498A598A698A798D19870
:1011D000D598D49888988A98B898B998AC9AAD9AC6
:1011E000AE9AAF9AD99ADD9ADC9A909A929AC09A5E
:1011F000C19AA09AA19AA39AA29ABD9ABC9ABA9AA5
:101200008F9ABB9AA898A998AB98AA98C598C498A1
:10121000C29A9798C39888E893E120E931E0F901F0
:101220003197F1F70197D9F70895C99B08C08091CC
:101230008001882321F08091C401882361F4C99939
:1012400074C080918001882309F06FC08091C4012F
:10125000882309F46AC080E49FE10197F1F7C99BF4
:1012600008C080918001882321F08091C4018823E7
:1012700061F4C9995AC080918001882309F055C052
:101280008091C401882309F450C01092C401C5980C
:10129000C4981092D4018091ED01882331F410920A
:1012A000CB0181E08093B50105C081E08093CB0143
:1012B0001092B5018091ED018823C1F020E030E06B
:1012C0000FC0F901EF57FE4F8081882339F48091D8
:1012D000EC0180838091DC01282F30E02F5F3F4FAD
:1012E0008091DC0190E0281739075CF38091ED01D3
:1012F0008823D9F48091C7018130B9F420E030E02F
:1013000046E00DC0F901EF57FE4F8081882329F494
:1013100040838091DC01282F30E02F5F3F4F809188
:10132000DC0190E0281739076CF308958091DB0108
:10133000833059F481E08093D401C49AC598109207
:10134000DB011092CB018093B50108958091DB0100
:10135000873069F41092DB01AB9A88EE93E020E9C4
:1013600031E0F9013197F1F70197D9F7AB9808957A
:101370008091D401882309F456C08091CC019091CA
:10138000CD0183709070892B49F480917A019091FE
:101390007B01019690937B0180937A018091CC012F
:1013A0009091CD0101969093CD018093CC018091D5
:1013B0007A0190917B0180549C4958F08091DE0124
:1013C000813039F4C59810927B0110927A01809394
:1013D0007E019E9910C080917A0190917B01895E77
:1013E000934048F080917E01813029F4C59A109293
:1013F0007B0110927A019E9916C08091DE018823AC
:1014000091F480EE9EE20197F1F79E990CC08091D5
:10141000DE01882341F4C59810927B0110927A0175
:1014200081E08093DE010895DF93CF93CDB7DEB7DF
:1014300060970FB6F894DEBF0FBECDBF682FC3987C
:10144000FE01319620E830E041E050E0A1E0B0E05C
:10145000862F90E08217930724F0B183A083621B4C
:1014600002C011821082359527954F5F5F4F3296EB
:101470004930510569F7B19929C0C29881E080933C
:101480007D0180EA91E00197F1F7FE013F9640EA85
:1014900051E09E012150304080819181019711F4EB
:1014A000C29A01C0C298CA010197F1F73297E217B8
:1014B000F30791F7C29A80EE9EE20197F1F7B19B94
:1014C00005C0C29AC39A21E030E002C020E030E0BB
:1014D000C90160960FB6F894DEBF0FBECDBFCF91A5
:1014E000DF9108950F931F93CF93DF930E94090814
:1014F0000E940F080E946B06B19943C088E99FE0E3
:101500000197F1F7B1993DC0C39810E0C8E9DFE059
:10151000CE010197F1F70E9409080E940F081F5F92
:101520001531B1F700E048E050E020E030E060E243
:101530007EE4B199040FCB010197F1F755954795DA
:101540002F5F3F4F24303105A1F70E9409080E9408
:101550000F0810E048E050E020E030E060E27EE478
:10156000B199140FCB010197F1F7559547952F5F6E
:101570003F4F24303105A1F70E9409080E940F084F
:1015800002C000E010E00E943A070E946B060117BB
:1015900011F000E010C0002371F0C39A10E0C8E918
:1015A000DFE0CE010197F1F70E9409080E940F08C1
:1015B0001F5F1431B1F7802FDF91CF911F910F91F1
:1015C00008951F93C39A11E042C00E94720A80934B
:1015D000DB018091DB01853011F41093C70180910C
:1015E000DB01843021F41093ED011093CB01809145
:1015F000DB01863011F41093CA018091DB01873042
:1016000011F41093BA018091C701813041F48091A7
:10161000ED01813021F48091EC018093BC01809137
:10162000C701813041F48091ED01882321F480913C
:10163000E2018093BC018091C701882341F480912D
:10164000ED01813021F48091EC018093BC01809107
:10165000DB018A3009F0B9CF81E08093E00110927C
:10166000DB011F910895AF92BF92CF92DF92EF926C
:10167000FF920F931F93CF93DF93CD995CC080911E
:10168000D401882309F443C056C06091790170E009
:1016900080E090E00E94FD035B016C0120E030E0FF
:1016A0004AE755E40E941F027B018C0120E030E0F4
:1016B00040E85FE30E94790388231CF461E070E056
:1016C00022C0C801B70120E03FEF4FE757E40E9476
:1016D00019031816A4F4C601B50120E030E040E279
:1016E00051E40E941F020E94490005C0CE010197EB
:1016F000F1F76150704061157105C1F70AC0C8016A
:10170000B7010E944900CB010197F1F702C0C0E97F
:10171000D1E08091CF010E94140A892B09F4B5CF42
:1017200004C00E94720A8093DB018091DB01882350
:10173000C1F30E94E10A81E08093D4018093DE012D
:10174000C49AC59820E030E046E00DC0F901EF579B
:10175000FE4F8081882329F440838091DC01282F6B
:1017600030E02F5F3F4F8091DC0190E02817390770
:101770006CF31092DB011092CB0181E08093B501F4
:10178000DF91CF911F910F91FF90EF90DF90CF905D
:10179000BF90AF90089584E18093DC0120E030E0B9
:1017A00006C0F901EF57FE4F10822F5F3F4F809127
:1017B000DC0190E028173907A4F341E04093BF0112
:1017C0002BE02093DF015CE05093E1013DE030939A
:1017D000DA018EE08093CF0187E08093EC0193E003
:1017E0009093C20188E08093EE019093D50186E04A
:1017F0008093E2012093D9015093D6013093D80110
:101800008093E2012093E80110927F0120E137E20A
:101810003093E7012093E60180E69AEE9093EB0186
:101820008093EA013093B4012093B30110927B01BD
:1018300010927A011092ED011092C7011092CA0124
:101840001092BA014093CB014093C4011092B501AC
:1018500081E090E09093B9018093B8011092E50186
:101860001092E4014093E3011092D4011092E90137
:101870004093B7014093CE011092BC0184E1809364
:1018800079011092DB014093C90110927E01109200
:10189000E0014093BD0140937C011092D30110926E
:1018A000D20180EA9FE09093C1018093C001109221
:1018B000780188EE93E09093CD018093CC01409322
:1018C000C8014093BB011092DE011092C601109234
:1018D000C5011092800110927D011092D1011092E9
:1018E000D0014093BE014093C3010E94E10A0E94CF
:1018F000330B88EE93E020E931E0F9013197F1F7FD
:101900000197D9F7C99903C081E0809380010895B8
:101910000E94DA080E94CB0B8091BF018823A1F0BE
:101920008091DC01282F30E0F901EF57FE4F8081D4
:10193000882331F080818093BC0110822FEF3FEF2C
:101940002150304037FFF0CF8091BC01882361F0F7
:101950008091BC010E94140A8093BF018091BF0155
:10196000813011F41092BC010E94720A8093DB0155
:101970008091CB01882311F00E946E0D8091B501FA
:10198000882339F00E94C9080E94B8090E94A6095C
:1019900006C08091C701882311F00E94C9080E94E7
:1019A00096090E941509B8CF80917301882379F4B4
:1019B0009C990DC080E49FE10197F1F7809173013C
:1019C000882329F49C9903C081E08093730180915E
:1019D0007301882369F09C9B0BC0809171019091E9
:1019E00072010596909372018093710110927301B8
:1019F000089580917501882379F49D990DC080E444
:101A00009FE10197F1F780917501882329F49D9951
:101A100003C081E08093750180917501882369F08E
:101A20009D9B0BC080917101909172010A969093D9
:101A30007201809371011092750108958091710176
:101A400090917201892B09F440C020E030E00FC072
:101A5000F901EF57FE4F8081882339F48091E80126
:101A600080838091DC01282F30E02F5F3F4F8091F1
:101A7000DC0190E0281739075CF3809171019091A7
:101A800072010597909372018093710180917701A3
:101A90008823D9F420E030E00FC0F901EF57FE4F62
:101AA0008081882339F48091D50180838091DC0185
:101AB000282F30E02F5F3F4F8091DC0190E0281706
:101AC00039075CF381E080937701809171019091F7
:101AD0007201892B11F41092770108950E94D40CA1
:101AE0000E94F90C0E941E0D0E94530808952F9227
:101AF0003F924F925F926F927F928F929F92AF929E
:101B0000BF92CF92DF92EF92FF920F931F93CF93EA
:101B1000DF93CDB7DEB7CA1BDB0B0FB6F894DEBF81
:101B20000FBECDBF09942A88398848885F846E84A7
:101B30007D848C849B84AA84B984C884DF80EE80F1
:101B4000FD800C811B81AA81B981CE0FD11D0FB6FA
:101B5000F894DEBF0FBECDBFED010895F894FFCF1E
:101B60000000000000000000000102020303030364
:101B7000040404040404040405050505050505051D
:101B800005050505050505050606060606060606FD
:101B900006060606060606060606060606060606E5
:101BA00006060606060606060707070707070707CD
:101BB00007070707070707070707070707070707B5
:101BC00007070707070707070707070707070707A5
:101BD0000707070707070707070707070707070795
:101BE000070707070707070708080808080808087D
:101BF0000808080808080808080808080808080865
:101C00000808080808080808080808080808080854
:101C10000808080808080808080808080808080844
:101C20000808080808080808080808080808080834
:101C30000808080808080808080808080808080824
:101C40000808080808080808080808080808080814
:101C50000808080808080808080808080808080804
:081C600008080808080808083C
:00000001FF
